:020000040800F2
:10000000300700209D04000861010008630100081A
:10001000670100086B0100086F0100080000000084
:100020000000000000000000000000007301000854
:100030007501000800000000770100087901000840
:10004000B7040008B7040008B7040008B7040008A4
:10005000B7040008B7040008B7040008B704000894
:10006000B7040008B7040008B7040008B704000884
:10007000B7040008B7040008B7040008B704000874
:10008000B7040008B7040008B7040008B704000864
:10009000B7040008B7040008B7040008B704000854
:1000A000B7040008B7040008B7040008B704000844
:1000B000B7040008B7040008B7040008B704000834
:1000C000B7040008B7040008B7040008B704000824
:1000D000B704000811040008B7040008B7040008BA
:1000E000B7040008B7040008B7040008B704000804
:1000F000B7040008B7040008B7040008B7040008F4
:10010000B7040008B7040008B7040008B7040008E3
:10011000B7040008B7040008B7040008B7040008D3
:10012000B7040008B7040008B7040008B7040008C3
:10013000DFF80CD003F04EFC0048004745010008F2
:100140003007002001F040F802F0F7F904E001F078
:100150003AF8024802F040FCF9E700000C010020E8
:10016000704700BFFEE700BFFEE700BFFEE700BF2D
:10017000FEE7704770477047704700000CB50020DD
:10018000019000906C48006840F480306A49086033
:1001900000BF6948006800F4003000900198401CDE
:1001A0000190009818B90198B0F5A06FF1D162489C
:1001B000006800F4003010B10120009001E0002040
:1001C00000900098012843D15C48006840F010007E
:1001D0005A4908600846006820F003000860084695
:1001E000006840F002000860534840685249486087
:1001F0000846406848600846406840F480604860AF
:100200000846406820F47C1048600846406840F486
:10021000E81048600846006840F08070086000BF41
:100220004548006800F000700028F9D04248406856
:1002300020F00300404948600846406840F0020052
:10024000486000BF3C48406800F00C000828F9D125
:100250000CBD10B5FFF792FF10BD10B53648006811
:1002600040F00100344908600846406834490840BD
:100270003149486008460068324908402E49086004
:100280000846006820F4802008600846406820F492
:10029000FE0048604FF41F008860FFF7DAFF4FF060
:1002A00000602949086010BD10B50021002000221F
:1002B000214B5B6803F00C0121B1042906D0082909
:1002C00028D107E0214B224C236027E01F4B204C14
:1002D000236023E0184B5B6803F47010164B5B68D7
:1002E00003F48032022303EB904022B9194B4343BD
:1002F000174C23600DE0104B5B6803F4003323B10F
:10030000144B4343124C236003E0104B4343104C07
:10031000236003E00D4B0E4C236000BF00BF064B73
:100320005B68C3F303130C4CE15C094B1B68CB40C7
:10033000074C236010BD0000001002400020024066
:100340000000FFF8FFFFF6FE08ED00E000127A0063
:100350000000002000093D000400002000BF70479D
:1003600000BF4A4A128802F04002002AF9D0C2B205
:10037000464B1B1D1A80704710B586B004460121FC
:1003800044F2040000F026FC4FF40070ADF81400B5
:1003900003208DF8160018208DF8170005A93C4899
:1003A00000F05CF94FF48060ADF8140004208DF883
:1003B000170005A9364800F051F925208DF80000F6
:1003C00003208DF801008DF8020001208DF8030054
:1003D000684600F07AF801940020ADF80800ADF806
:1003E0000A00ADF80C00ADF810000C20ADF80E00BE
:1003F00001A9264800F095FC012240F2255123482E
:1004000000F027FD0121214800F017FD06B010BDC6
:1004100010B540F225511D4800F000FE10B31B48F6
:1004200000F07CFDC4B21B48008800F40040C8B94D
:100430001848008800F4804060B10A2C03D00020E6
:100440001449088020E01348008840F40040114916
:10045000088019E00D2C06D10E48008840F4804039
:100460000C49088010E00B480088C0F30D000A49D1
:100470000C5408480088401C06490880084600883B
:10048000C72801DD0020088010BD000000380140B1
:100490000008014018000020440000200648804762
:1004A00006480047FEE7FEE7FEE7FEE7FEE7FEE759
:1004B000FEE7FEE7FEE7FEE75B0200083101000809
:1004C00031490143314A1160704770B50021002362
:1004D0000F22C47804B32D4C246804F4E064C4F5FE
:1004E000E064210AC1F10403CA40447804FA03F12C
:1004F0008478144021430901254C0678A1550478DD
:1005000004F01F050124AC4005786D11AD0005F124
:10051000E025C5F8004109E0047804F01F05012436
:10052000AC401C4D0678761145F8264070BD1A4A3D
:100530000A400243154B1B1F1A60704739B1134A1A
:10054000121D12680243114B1B1D1A6006E00F4A70
:10055000121D126882430D4B1B1D1A607047042840
:1005600008D14FF0E021096941F004014FF0E02289
:10057000116107E04FF0E021096921F004014FF01B
:10058000E0221161704700000000FA050CED00E068
:1005900000E400E080E100E080FFFF1F10B50446AA
:1005A000CC48844208D10121042000F02DFB002119
:1005B000042000F029FB46E0C748844208D101210D
:1005C000082000F021FB0021082000F01DFB3AE08C
:1005D000C248844208D10121102000F015FB0021FF
:1005E000102000F011FB2EE0BD48844208D101210B
:1005F000202000F009FB0021202000F005FB22E074
:10060000B848844208D10121402000F0FDFA0021C1
:10061000402000F0F9FA16E0B348844208D10121E5
:10062000802000F0F1FA0021802000F0EDFA0AE0CD
:10063000AE48844207D10121801500F0E5FA00217F
:10064000A01500F0E1FA10BD10B50121084600F038
:10065000DBFA0021012000F0D7FA10BD2DE9F041AE
:10066000024600250026002000230024002791F8E0
:1006700003C00CF00F0591F803C00CF0100CBCF196
:10068000000F03D091F802C04CEA050591F800C0B4
:10069000BCF1000F31D0146800202BE04FF0010CAA
:1006A0000CFA00F3B1F800C00CEA03069E4220D118
:1006B00083004FF00F0C0CFA03F7BC4305FA03FC60
:1006C0004CEA040491F803C0BCF1280F06D14FF0A6
:1006D000010C0CFA00FCC2F814C00AE091F803C047
:1006E000BCF1480F05D14FF0010C0CFA00FCC2F828
:1006F00010C0401C0828D1D31460B1F800C0BCF170
:10070000FF0F34DD546800202EE000F1080C4FF09C
:10071000010808FA0CF3B1F800C00CEA03069E4287
:1007200021D183004FF00F0C0CFA03F7BC4305FAFC
:1007300003FC4CEA040491F803C0BCF1280F05D176
:1007400000F1080C08FA0CF8C2F8148091F803C004
:10075000BCF1480F07D100F1080C4FF0010808FA6E
:100760000CF8C2F81080401C0828CED35460BDE8B5
:10077000F0814FF6FF710180022181700421C17068
:1007800070470246002093680B400BB1012000E047
:10079000002070470146886880B2704702460020FA
:1007A000D3680B400BB1012000E0002070470146E8
:1007B000C86880B2704701617047416170470AB1F3
:1007C000016100E041617047C16070474FF48032C1
:1007D0000A4382618161826182698269704702464F
:1007E0000020434B18684FF68073184040EA02100F
:1007F00008433F4B186070473E49C8617047F0B5E9
:100800000A46002300240021002500F00046B6F12E
:10081000004F02D1364EF16901E0354E7168C0F3E8
:10082000034583B200F44016B6F5401F08D121F00D
:1008300070612F4E766826F070662D4F7E6012E054
:1008400000F48016B6F5801F06D1032606FA05F4DB
:10085000A14341F0706106E0460D360103FA06F649
:10086000B14341F0706122B1460D360103FA06F63C
:10087000314300F00046B6F1004F02D11C4EF16149
:1008800001E01B4E7160F0BD30B500228B071C0FDC
:100890000F2303FA04F2164B08338C1053F824305C
:1008A0009343134C08348D1044F8253023468C10A4
:1008B00053F824308C07240F00FA04F423430C4C23
:1008C00008348D1044F8253030BD0A49DC31086009
:1008D0007047000000080140000C0140001001407A
:1008E0000014014000180140001C0140002001409C
:1008F0000000014000002042DF48006840F0010095
:10090000DD49086008464068DC490840DA4948602B
:1009100008460068DA490840D74908600846006878
:1009200020F4802008600846406820F4FE004860FB
:100930004FF41F0088607047CF49096821F4803167
:10094000CD4A11601146096821F480211160B0F58B
:10095000803F03D0B0F5802F0ED106E0C64909686C
:1009600041F48031C44A116007E0C349096841F489
:10097000A021C14A116000E000BF00BF704710B560
:1009800001460022002300204A11012A02D1BA4C5C
:10099000236806E0022A02D1B74C236A01E0B64C74
:1009A000636A01F01F02012494401C400CB1012035
:1009B00000E0002010BD38B5002000900024002584
:1009C00000BF3120FFF7DBFF05460098401C009078
:1009D0000098B0F5A06F01D0002DF2D03120FFF7C4
:1009E000CEFF08B1012400E00024204638BD0146B6
:1009F0000020A14A106820F0F80040EAC100106011
:100A00007047A04908607047024600209A4B58681A
:100A100020F47C1042EA01031843974B586070475A
:100A200098490866704701460020934A506820F0B4
:100A300003000843506070478F48406800F00C0086
:100A40007047014600208C4A506820F0F0000843AF
:100A50005060704701460020874A506820F4E060EB
:100A600008435060704701460020834A506820F4D4
:100A7000605040EAC1005060704729B17E4A527A06
:100A800002437D4B5A7204E07B4A527A82437A4B8E
:100A90005A7270477B49D831086070470146002080
:100AA000754A506820F44040084350607047002168
:100AB000714A20321170704A82F82010012802D049
:100AC00004280AD104E001216B4A2032117005E0AC
:100AD0000521694A2032117000E000BF00BF704755
:100AE0006949086070476449096A0143624A1162B2
:100AF0007047654944390860704730B500210022CD
:100B0000002400235C4D6D6805F00C0121B104291F
:100B100005D0082923D105E05C4D056022E05B4D3E
:100B200005601FE0544D6D6805F47012524D6D68FC
:100B300005F48034022505EB92421CB9544D55430F
:100B400005600BE04C4D6D6805F400351DB1504D4E
:100B50005543056002E04D4D5543056002E04B4DA5
:100B6000056000BF00BF444D6D6805F0F001090944
:100B7000484D6B5C0568DD4045603F4D6D6805F490
:100B8000E061090A434D6B5C4568DD4085603A4D84
:100B90006D6805F46051C90A3E4D6B5C4568DD40E7
:100BA000C560354D6D6805F44041890B3A4D6B5C6D
:100BB000C568B5FBF3F5056130BD29B12E4A526910
:100BC00002432D4B5A6104E02B4A526982432A4B5F
:100BD0005A61704729B1284A92690243264B9A61AB
:100BE00004E0254A92698243234B9A61704729B1F8
:100BF000214AD2690243204BDA6104E01E4AD269DD
:100C000082431D4BDA61704729B11B4AD268024307
:100C1000194BDA6004E0184AD2688243164BDA6056
:100C2000704729B1144A12690243134B1A6104E058
:100C3000114A12698243104B1A61704712494039B8
:100C4000086070470F49C86470470B49C871704706
:100C50000948406A40F08070074948627047014681
:100C60000020054A92680A400AB1012000E00020F5
:100C70007047014988727047001002400000FFF879
:100C8000FFFFF6FE000042428004424200127A005A
:100C900000093D001A0000202A00002010B504467B
:100CA000FB48844209D101218803FFF7ADFF0021F1
:100CB0004FF48040FFF7A8FF32E0F648844209D1A4
:100CC00001214804FFF7ADFF00214FF40030FFF78A
:100CD000A8FF25E0F048844209D101218804FFF7EC
:100CE000A0FF00214FF48020FFF79BFF18E0EB48A6
:100CF000844209D10121C804FFF793FF00214FF47A
:100D00000020FFF78EFF0BE0E548844208D1012167
:100D10000805FFF786FF00214FF48010FFF781FFE1
:100D200010BD2DE9F04786B005460E460024A246C8
:100D300000BFA1460027B08900B100BF2F462C8A12
:100D40004CF6FF700440F08804432C82AC894EF6C8
:100D5000F3100440B0883189084371890843044383
:100D6000AC81AC8A4FF6FF400440B0890443AC82AA
:100D700001A8FFF7C2FEC648874202D1DDF810A0E5
:100D800001E0DDF80CA0A88900F4004040B10AEBB6
:100D9000CA0000EB0A1031684900B0FBF1F807E027
:100DA0000AEBCA0000EB0A1031688900B0FBF1F8C9
:100DB0006420B8FBF0F004012009642101FB1089D4
:100DC000A88900F4004040B1322000EBC900B0FB1C
:100DD000F1F000F00700044308E0322000EB0910B6
:100DE0006421B0FBF1F000F00F0004432C8106B049
:100DF000BDE8F0874FF41651016000218180C18069
:100E000001810C21418100218181704710B502468A
:100E10000020108A4FF2FF0318400B884C882343B0
:100E20008C882343CC8823431843108210BD0021B3
:100E3000018041808180C180704721B1828942F464
:100E40000052828104E082894DF6FF731A4082814C
:100E50007047F0B50346002400260025002040F628
:100E60006A17B94200D100BF1846C1F3421401F01D
:100E70001F06012707FA06F5012C01D10C3004E00A
:100E8000022C01D1103000E014301AB107682F4352
:100E9000076002E00768AF430760F0BD1AB1838ABC
:100EA0000B43838202E0838A8B4383827047028AEA
:100EB0004FF6F0731A400282028A0A430282704798
:100EC00082894FF2FF731A40828182890A438281AC
:100ED000704721B1828942F00202828104E0828956
:100EE0004FF6FD731A4082817047028A4FF6DF7316
:100EF0001A400282028A0A430282704721B1028AA2
:100F000042F48042028204E0028A4BF6FF731A40E8
:100F100002827047C1F308028280704701468888C8
:100F2000C0F308007047818941F001018181704759
:100F3000028BD2B20283028B42EA01220283704703
:100F4000028B02F47F420283028B0A4302837047C2
:100F500021B1828A42F02002828204E0828A4FF626
:100F6000DF731A408282704721B1828A42F01002F8
:100F7000828204E0828A4FF6EF731A4082827047C1
:100F800021B1828A42F00802828204E0828A4FF60E
:100F9000F7731A408282704721B1828942F400427D
:100FA000828103E08289C2F30E028281704721B1FF
:100FB000828A42F40062828204E0828A4FF2FF73E6
:100FC0001A4082827047828A4FF6FB731A408282EF
:100FD000828A0A438282704721B1828A42F00202E9
:100FE000828204E0828A4FF6FD731A408282704743
:100FF00002460020B1F5007F00D100BF13880B40EE
:101000000BB1012000E00020704701F40072B2F53E
:10101000007F00D100BFCA430280704770B502460E
:10102000002400230025002040F66A16B14200D1BA
:1010300000BFC1F3421501F01F03012606FA03F3B6
:10104000012D02D19689334006E0022D02D1168A85
:10105000334001E0968A33400C12012606FA04F46C
:101060001688344013B10CB1012000E0002070BD9F
:1010700010B50022002340F66A14A14200D100BF3F
:101080000A1201249440A3B2DC43048010BD000086
:10109000003801400044004000480040004C00403F
:1010A000005000402DE9FF5F07460E4693464FF083
:1010B00000083546B1463446B24607B126B94FF06E
:1010C000FF3004B0BDE8F09F4FF0000876E0781CD8
:1010D00010F8080015286BD2DFE800F03E3F406AA8
:1010E0006A414243446A6A6A6A454F5E4B0B142761
:1010F00033002878484908700846017847A002F074
:101100008BFC56E0D5F801004349C1F801000846C0
:10111000D0F8011046A002F07FFC3F48D0F8010053
:1011200000B900E000BF00BF43E0D5F805003A4930
:10113000C1F805000846D0F8051042A002F06CFC8A
:1011400037E044A002F068FC142205F1090132489E
:10115000093002F0AEFA2CE02BE02AE029E028E08A
:1011600027E026E025E099F800103EA002F054FCAC
:101170001FE03FA002F050FC1BE0A17962792379C7
:10118000A068CDE90032CDE90210E378A278218889
:101190003CA002F041FC0CE045A002F03DFC49A05F
:1011A00002F03AFC9AF800104AA002F035FC00E088
:1011B00000BF00BF08F1010000F0FF08387840458B
:1011C00085DC00207DE7704710B51F21124802F032
:1011D00089FA10BD44480068401C434908607047C4
:1011E000414800687047704700B5FFF7F3FF00BD46
:1011F00008B5002000900121684600F077F808BD8E
:10120000024600230AB9581E7047002300E05B1C09
:101210008B42FCD30846F7E70C0100204576743A70
:10122000204556454E545F61202564200A00000089
:101230004576743A204556454E545F662025640A2B
:10124000000000004576743A4556454E545F6220D2
:1012500025640A004576743A204556454E545F632E
:101260000A000000525353492025640A0000000080
:101270005452414E53504152454E545F44415441A3
:10128000200A0000574946495F4E5450203A205BDF
:1012900025642D25642D256420253032643A2530BF
:1012A00032643A253032645D5B25645D200A0000BB
:1012B0004D4F44554C4520494E464F202E2E2E0A68
:1012C00000000000574946204D4F44554C45202E04
:1012D0002E2E0A006D6F64756C6554797065203A26
:1012E000205B25645D200A003000002070B50446B4
:1012F0000D46002624B9F0A002F08EFB701E70BDD2
:101300002A462146F44802F081F90646AE4205D04D
:10131000F2A002F081FB4FF0FF30F0E73046EEE73D
:1013200010B504462CB9F4A002F076FB4FF0FF3064
:1013300010BD002020606060FF20207060700020E1
:10134000F6E770B504460D462CB9F6A002F064FB32
:101350004FF0FF3070BD3521F84802F0C3F92A463E
:101360002146F648801C02F0A4F9F4486738A0F83A
:101370009650012180F86810FFF732FFEF49673976
:10138000C1F898000020E5E7F8B505460C4616467A
:101390000DB104B12EB9EAA002F03EFB4FF0FF30D0
:1013A000F8BD287800F0010098B111212278601C66
:1013B00081542078401C207001206B1C02460021C3
:1013C0000090084601F0E7FF08B1012000E000208E
:1013D00030702878C0F3400080B112212278601C60
:1013E00081542078401C207001206B1C024601466D
:1013F0000090002001F0CFFFC6F801002878C0F36C
:10140000800068B113212278601C81542078401C30
:101410002070AA780021012001F0D8FEC6F805004E
:101420002878C0F3C00060B114212278601C815478
:101430002078401C20701422E91C06F1090002F0FB
:1014400038F90020ACE72DE9F04104460D460026AE
:10145000002704B135B9C5A002F0DEFA4FF0FF3025
:10146000BDE8F081FFF7BCFE074628782178884266
:1014700003D0C8A002F0D0FA0126D5F80100D4F8B4
:101480000110884203D0C7A002F0C6FA0126D5F8A1
:101490000500D4F80510884203D0C6A002F0BCFABB
:1014A0000126142204F1090105F1090002F02CF9CA
:1014B00018B1C4A002F0B0FA0126687F617F8842AB
:1014C00003D0C4A002F0A8FA0126A87FA17F884219
:1014D00003D0C4A002F0A0FA0126012E03D1FFF729
:1014E0007FFEC44908603046BAE738B505460C4669
:1014F00005B12CB9C0A002F08FFA4FF0FF3038BD13
:1015000000202070A075E075287823460122002174
:101510000090084601F0A0FFD5F8010028B1C2A054
:1015200002F07AFA4FF0FF30E9E7D5F801002346E0
:10153000012211460090002001F08EFF687F2346B3
:10154000012200210090162001F086FFA87F23468B
:10155000012200210090172001F07EFF012120468A
:1015600001F014FE012104F1160001F00FFE01212B
:1015700004F1170001F00AFED5F805200021012032
:1015800001F01DFE6070142205F10901A01C02F09B
:1015900090F80020B3E72DE9F04780460C46174647
:1015A0001D46089E94F800900CB105B136B9A9A06B
:1015B00002F032FA4FF0FF30BDE8F087B8F1000FCB
:1015C00055D116215D48353002F08CF8B9F1010F84
:1015D00006D0B9F1020F12D0B9F1050F45D124E0C0
:1015E000564AA532A2F17001601CFFF7CDFE012022
:1015F00052496739087000250020306036E04F49B5
:101600008D3101F13700FFF770FF50B918224B49B7
:101610008D31681C02F04DF80320287019203060CD
:1016200002E04FF0FF30C7E720E07A1E611C43481C
:10163000393802F03EF8781E40496739C1F85B003E
:1016400010213E48673890F89C209D3081549D3889
:1016500090F89C00401C3949673981F89C000320B0
:10166000087000250020306000E000BF00BF0020AF
:10167000A2E72DE9F04F99B006468B4617469946EA
:101680000020189082468046002501ACBBF1000F77
:1016900006D17CA002F0C0F9681E19B0BDE8F08F39
:1016A000B9F1010F06D196F8088008F10600384418
:1016B00085B2F5E0F2E000004552523A2067697ABF
:1016C0005075744461746120627566206973206589
:1016D0006D707479200A0000C30200204552523A0E
:1016E000204661696C656420746F2072625772696C
:1016F0007465200A000000004552523A2067697A5A
:1017000050726F746F636F6C48656164496E697481
:10171000206865616420697320656D707479200AA2
:10172000000000004552523A2064617461206973E0
:1017300020656D707479200A00000000920100207D
:1017400067697A44617461506F696E743245766579
:101750006E74204572726F72202C20496C6C656724
:10176000616C20506172616D0A00000067697A4304
:101770006865636B5265706F7274204572726F7228
:10178000202C20496C6C6567616C20506172616D22
:101790000A00000076616C756561204368616E67C0
:1017A00065640A0076616C756566204368616E67E2
:1017B00065640A0076616C756562204368616E67D6
:1017C00065640A0076616C756563204368616E67C5
:1017D00065640A0076616C756564204368616E67B4
:1017E00065640A0076616C756565204368616E67A3
:1017F00065640A003400002067697A4461746150AE
:101800006F696E7473325265706F72744461746183
:10181000204572726F72202C20496C6C6567616C78
:1018200020506172616D0A005B4552524F525D203B
:1018300076616C756566204572726F72202C204946
:101840006C6C6567616C204F766572737465700AA5
:101850000000000067697A50726F746F636F6C49A3
:10186000737375656450726F63657373204572722C
:101870006F72202C20496C6C6567616C205061721E
:10188000616D0A005B4552525D20206461746120E5
:101890004973204E756C6C200A000000781D85B2DB
:1018A0002B4642463946FEA002F0B6F8FF2004F867
:1018B000010B04F8010B281204F8010B04F8015B7A
:1018C0003079401C04F8010B707904F8010B0020FA
:1018D00004F8010B04F8019B4FF0080AB9F1010F5D
:1018E0000DD104F8018B0AF1010A01A901EB0A00EC
:1018F000424606F1090101F0DCFEC244444437B11E
:1019000001A901EB0A003A46594601F0D2FE291D11
:1019100001A801F06FFA0146E81C01AA1154291D23
:1019200001A8FFF76DFC18901898002806DAE6A0C9
:10193000189902F071F86FF00100AEE60020ACE6F5
:10194000F0B589B005460E46174600242EB9E4A02E
:1019500002F062F8601E09B0F0BD6846FFF7E0FCD7
:1019600005208DF80400E84890F85F10D0F85F007B
:10197000401CE54AC2F85F00C8B28DF805008DF83A
:1019800008501E2001F049FAADF802003A463146EF
:101990000DF1090001F08DFE2221684601F02AFABE
:1019A0008DF8210022216846FFF72AFC0446002C0E
:1019B00006DA2146D5A002F02FF86FF00100CAE741
:1019C00022216846FFF7BDFC2046C4E770B50546F6
:1019D000FFF706FC0446D4492846FFF734FD0128EA
:1019E00013D1D2A002F018F8CF4937392846FFF7B3
:1019F0007CFD28B91822CC4937390420FFF7A0FF15
:101A00001F222946C84801F054FECE48B4FBF0F12D
:101A100000FB1140C8B9CC480068A04215D0CBA04B
:101A200001F0FAFFC04937392846FFF75EFD28B9B3
:101A30001822BD4937390420FFF782FF1F222946AB
:101A4000B94801F036FEC048046070BD2DE9FE4F74
:101A500080460E4617464FF0000B0020029081464C
:101A60008246002534460090B8F1000F01D006B13F
:101A700037B9BCA001F0D0FF4FF0FF30BDE8FE8FBA
:101A8000404601F047FD00F0FF0ABAF1000F02D115
:101A90004FF0FF30F2E74FF000095DE0012201A9AD
:101AA000404601F062FD8346BBF1000F52D0B948B9
:101AB0000078FF281FD19DF80400FF281BD1B648ED
:101AC000007848B9FF20207060700220B349088078
:101AD0000120B149087034E0B0480088042830DDA6
:101AE000AE480088A8422CD0FF20207060700220F1
:101AF000AA49088025E0A7480078FF2803D19DF86F
:101B0000040055281DD0A4480078012819D19DF85B
:101B10000400A24909886054A0480088401C9F49DD
:101B200008800846008804280BDD0094009C60882B
:101B300001F073F9001D85B298480088A84200D1D1
:101B40000CE09DF804009349087095480078401C0B
:101B50009349087009F10109D1459FDB00BF8F4807
:101B60000088042823DD8D480088A8421FD18B48B7
:101B70000188204601F03EF9029088480088401E06
:101B8000215C029881420FD12A462146304601F05D
:101B900090FD3D8000208049087080490880804980
:101BA00008707C49087069E76FF0010066E7012062
:101BB00064E710B50024544890F8680000B910BDDF
:101BC00078A001F029FF5048B0F896106930FFF76F
:101BD00017FB04464C48B0F89600A04202D079A00A
:101BE00001F01AFFFFF7FCFA4749C1F8980000BF5F
:101BF000E5E770B50446444D693534B9AFF2DC40D1
:101C000001F00AFF4FF0FF3070BD2879401C2179A8
:101C1000884204D135213C48673001F063FD002043
:101C2000F2E73EB50446002524B96CA001F0F4FEAD
:101C3000681E3EBD20680090606801909DF8040019
:101C4000401CC0B28DF80400052001F0E6F8ADF8A4
:101C500002000921684601F0CDF88DF8080009213D
:101C60006846FFF7CDFA0546002D03DA294627A07E
:101C700001F0D2FE2846DCE710B5234890F8680052
:101C800001280BD1204890F86700022807DAFFF7F7
:101C9000A7FA1D49D1F89810401AB5E0CBE0CBE087
:101CA0006C656E203D202564202C20734469644CB3
:101CB000656E203D202564202C646174615F6C6535
:101CC0006E203D2025640A00756172742077726968
:101CD0007465206572726F72202564200A0000000E
:101CE00067697A5265706F727444617461204572DD
:101CF000726F72202C20496C6C6567616C2050619A
:101D000072616D0A000000002B0100204552523A1A
:101D10002075617274207772697465206572726FC4
:101D200072202564200A0000560200206368616E5C
:101D30006765642C207265706F72742064617461D1
:101D40000A000000C027090038000020496E666FB5
:101D50003A2036303053207265706F72742064619F
:101D600074610A0067697A50726F746F636F6C47B1
:101D700065744F6E655061636B6574204572726F58
:101D800072202C20496C6C6567616C205061726117
:101D90006D0A0000400000203C0000203E000020B2
:101DA000410000205761726E696E673A2074696D58
:101DB000656F75742C20726573656E642064617440
:101DC00061200A004552523A20726573656E6420A4
:101DD00064617461206572726F720A004552523AF2
:101DE0002067697A50726F746F636F6C436F6D6DAB
:101DF0006F6E41636B206461746120697320656D4F
:101E0000707479200A000000C8281AD9FFF7E8F991
:101E10000446F14890F86730D0F898202146EFA0AA
:101E200001F0FAFDFFF7C5FEEB4890F86700401C93
:101E3000E94981F8670004E03521E748673001F09F
:101E400051FC10BD30B59DB0044600252CB9EDA065
:101E500001F0E2FD681E1DB030BD6846FFF760FA74
:101E600002208DF8040060798DF80500F1A103C906
:101E7000CDE90201F2A103C9CDE90401F3A103C92F
:101E8000CDE90801F4A103C9CDE906012022F5A19D
:101E90000AA801F00EFC2022FBA10DF1520001F076
:101EA00008FC0020CDF84A00CDF84E009DF8510006
:101EB0008DF851009DF8510040F002018DF851104D
:101EC000002000F0AAFFADF848006F2000F0A5FF49
:101ED000ADF802007321684600F08CFF8DF87200A7
:101EE00073216846FFF78CF90546002D04DA294670
:101EF000AFF2E81001F090FD2846ACE7FEB50446CD
:101F00000E46002524B9E9A001F086FD681EFEBD3D
:101F10006846FFF705FA12208DF8040060798DF805
:101F20000500062000F079FFADF802008DF808608A
:101F30000A21684600F05EFF8DF809000A21684614
:101F4000FFF75EF90546002D04DA2946AFF244207A
:101F500001F062FD2846DAE770B5044625462CB943
:101F6000DDA001F059FD4FF0FF3070BDDF48A968DA
:101F70000160E9684160298A0181A97C81729649E2
:101F8000B1F84B0100F049FF9349A1F84B01D1F89A
:101F9000530100F04FFF9049C1F853010E218E48C4
:101FA00090F8C820C9308154C93890F8C800401C46
:101FB000894981F8C800042008700020D5E710B5D1
:101FC000FFF70EF9044600BFFFF70AF9001BB0F552
:101FD000167FF9D9FFF707F910BD10B504462CB9E3
:101FE000C3A001F019FD4FF0FF3010BD208900F0B3
:101FF00014FF2081CA480078C0F38000217AC1F321
:102000008001884256D0207AC0F38000002829D071
:10201000207A00F0010078B100216F4890F8B220DA
:10202000B3308154B33890F8B200401C6A4981F84B
:10203000B200BCA001F0F0FC207AC0F34000002800
:1020400038D00121644890F8B220B3308154B338BD
:1020500090F8B200401C604981F8B200B9A001F0CC
:10206000DBFC27E0207A00F0010078B100215A481B
:1020700090F8B220B3308154B33890F8B200401CCD
:10208000554981F8B200A7A001F0C6FC207AC0F340
:10209000400078B10221504890F8B220B33081540A
:1020A000B33890F8B200401C4B4981F8B200ACA0A4
:1020B00001F0B2FC9A480078C0F3C000217AC1F365
:1020C000C00188422CD0207AC1089548007861F37D
:1020D000C30093490870207AC0F3C00080B1032187
:1020E0003D4890F8B220B3308154B33890F8B20034
:1020F000401C394981F8B200A0A001F08DFC0FE02E
:102100000421354890F8B220B3308154B33890F8A8
:10211000B200401C304981F8B200A0A001F07CFC64
:102120007F480078C0F30010217AC1F30011884283
:102130002CD0207A01097A48007861F3041078499C
:102140000870207AC0F3001080B10521224890F871
:10215000B220B3308154B33890F8B200401C1E490D
:1021600081F8B20095A001F057FC0FE006211A4853
:1021700090F8B220B3308154B33890F8B200401CCC
:10218000154981F8B20095A001F046FC644800783A
:10219000C0F34010217AC1F3401188421AD0207A4E
:1021A00041095F48007861F345105D490870207A65
:1021B000C0F3401068B10721074890F8B220B3304F
:1021C0008154B33890F8B200401C034981F8B20042
:1021D00016E119E128E100002B0100205761726E21
:1021E000696E673A67697A50726F746F636F6C5289
:1021F0006573656E644461746120256420256420E4
:1022000025640A0067697A50726F746F636F6C4758
:102210006574446576696365496E666F20457272C0
:102220006F72202C20496C6C6567616C2050617264
:10223000616D0A0030303030303030340000000042
:102240003030303030303032000000003033303346
:102250003030303000000000303330313031303039
:102260000000000062643661336436333535306116
:10227000346561666161303831363331346433320C
:102280003232636200000000393332353930343085
:1022900061616535343431636230313637666636B4
:1022A00066616265386464640000000067697A50A2
:1022B000726F746F636F6C4572726F72436D6420DE
:1022C0004572726F72202C20496C6C6567616C20BE
:1022D000506172616D0A00004552523A204E5450CE
:1022E00020697320656D707479200A0076020020E1
:1022F00067697A50726F746F636F6C4D6F64756C41
:1023000065537461747573204572726F72202C204E
:10231000496C6C6567616C20506172616D0A0000E8
:10232000420000204F6E426F617264696E673A200E
:10233000536F66744150206F7220576562206D6F35
:1023400064650A004F6E426F617264696E673A207D
:102350004169724C696E6B206D6F64650A00000004
:102360004F6E426F617264696E673A205374617494
:10237000696F6E206D6F64650A00000057694669D9
:10238000207374617475733A20696E2062696E649B
:10239000696E67206D6F64650A00000057694669C1
:1023A000207374617475733A206F75742062696E5E
:1023B00064696E67206D6F64650A0000576946693D
:1023C000207374617475733A20636F6E6E65637405
:1023D000656420726F757465720A000057694669FA
:1023E000207374617475733A20646973636F6E6EE1
:1023F000656374656420726F757465720A0000000D
:10240000F0A001F009FB0FE00821F54890F8B22098
:10241000B3308154B33890F8B200401CF04981F8D1
:10242000B200F0A001F0F8FAF6484078C0F3C0011D
:10243000607AC0F3C00081422CD0607AC108F148B4
:10244000407861F3C300EF494870607AC0F3C00080
:1024500080B10B21E24890F8B220B3308154B338F8
:1024600090F8B200401CDE4981F8B200E6A001F00D
:10247000D3FA0FE00C21DA4890F8B220B33081543F
:10248000B33890F8B200401CD54981F8B200E5A0FD
:1024900001F0C2FADB484078C0F30011607AC0F363
:1024A000001081422CD0607A0109D648407861F34F
:1024B0000410D4494870607AC0F3001080B109213B
:1024C000C74890F8B220B3308154B33890F8B200C6
:1024D000401CC34981F8B200DAA001F09DFA0FE078
:1024E0000A21BF4890F8B220B3308154B33890F835
:1024F000B200401CBA4981F8B200D9A001F08CFAB0
:102500000D21B74890F8B220B3308154B33890F819
:10251000B200401CB24981F8B200607A00F00700B6
:1025200081F84A01084690F84A11D4A001F074FAE3
:102530000220AB490870002057E510B55A20D34956
:102540000860D348C860084600F0C6FF18B9D1A09B
:1025500001F062FA02E0D4A001F05EFA4FF4CC710F
:102560009F4801F0BFF810BD30B587B00546002484
:10257000062D7DD2DFE805F003316193C1F001A89B
:10258000FEF7CEFE0B208DF80800954890F85F10FE
:10259000D0F85F00401C924AC2F85F00C8B28DF8C4
:1025A0000900052000F039FCADF80600092101A85A
:1025B00000F020FC8DF80C00092101A8FEF720FE98
:1025C0000446002C04DA2146AFF6C00001F024FADC
:1025D000092101A8FEF7B5FEF0E004A8FEF7A0FE71
:1025E00009208DF814007E4890F85F10D0F85F0045
:1025F000401C7B4AC2F85F00C8B28DF815008DF808
:102600001850062000F009FCADF812000A2104A8B9
:1026100000F0F0FB8DF819000A2104A8FEF7F0FD88
:102620000446002C04DA2146AFF6201001F0F4F93C
:102630000A2104A8FEF785FEC0E004A8FEF770FE9C
:1026400009208DF81400664890F85F10D0F85F00FC
:10265000401C634AC2F85F00C8B28DF815008DF8BF
:102660001850062000F0D9FBADF812000A2100E056
:10267000A0E004A800F0BEFB8DF819000A2104A810
:10268000FEF7BEFD0446002C04DA2146AFF68410A6
:1026900001F0C2F90A2104A8FEF753FE8EE001A85A
:1026A000FEF73EFE13208DF808004D4890F85F10AD
:1026B000D0F85F00401C4A4AC2F85F00C8B28DF8EB
:1026C0000900052000F0A9FBADF80600092101A8CA
:1026D00000F090FB8DF80C00092101A8FEF790FD99
:1026E0000446002C04DA2146AFF6E01001F094F91C
:1026F000092101A8FEF725FE60E001A8FEF710FE03
:1027000015208DF80800364890F85F10D0F85F006B
:10271000401C334AC2F85F00C8B28DF8090005209A
:1027200000F07BFBADF80600092101A800F062FB78
:102730008DF80C00092101A8FEF762FD0446002C6B
:1027400004DA2146AFF63C2001F066F9092101A820
:10275000FEF7F7FD32E0FFE701A8FEF7E1FD2920D3
:102760008DF808001E4890F85F10D0F85F00401CFC
:102770001B4AC2F85F00C8B28DF80900052000F0BE
:102780004CFBADF80600092101A800F033FB8DF8E1
:102790000C00092101A8FEF733FD0446002C04DAE1
:1027A0002146AFF6982001F037F9092101A8FEF77C
:1027B000C8FD03E041A001F02FF900BF00BF204693
:1027C00007B030BD57694669207374617475733AF8
:1027D00020636F6E6E6563746564206D326D0A00F0
:1027E0002B01002057694669207374617475733A30
:1027F00020646973636F6E6E6563746564206D3207
:102800006D0A000042000020576946692073746118
:102810007475733A2061707020636F6E6E656374B7
:102820000A00000057694669207374617475733A31
:10283000206E6F2061707020636F6E6E6563740A26
:102840000000000057694669207374617475733A1B
:1028500020696E2074657374206D6F64650A0000D2
:1028600057694669207374617475733A206F757483
:102870002074657374206D6F64650A005253534968
:10288000206973202564200A00000000C302002094
:10289000D3020020726243726561746520537563D0
:1028A00063657373200A0000726243726561746528
:1028B000204661696C64200A000000004552523ACB
:1028C000204366674D6F6465206572726F72210ADE
:1028D000000000003EB500246846FEF721FD1720E9
:1028E0008DF80400EE4890F85F10D0F85F00401CAF
:1028F000EB4AC2F85F00C8B28DF80500052000F071
:102900008CFAADF802000921684600F073FA8DF8E0
:10291000080009216846FEF773FC0446002C03DA20
:102920002146E0A001F078F809216846FEF709FD8C
:102930003EBD3EB500246846FEF7F2FC21208DF82E
:102940000400D74890F85F10D0F85F00401CD44ACC
:10295000C2F85F00C8B28DF8050000208DF80800AD
:10296000062000F05AFAADF802000A21684600F08D
:1029700041FA8DF809000A216846FEF741FC044639
:10298000002C03DA2146C7A001F046F80A21684668
:10299000FEF7D7FC3EBD70B5044625462CB9C9A04C
:1029A00001F03AF84FF0FF3070BD412205F1080107
:1029B000C84800F07EFE0F21B94890F8DE20DF30D5
:1029C0008154DF3890F8DE00401CB54981F8DE0004
:1029D000052008700020E7E72DE9F0419AB0054690
:1029E000002600200290019000248046002735B97F
:1029F000B9A001F011F8601E1AB0BDE8F081FFF730
:102A00003BF902AAA649491CBD48FFF71FF8064634
:102A1000002E72D1BBA000F0FFFFA14C641C2079F6
:102A20000F284FD00ADC0E2873D2DFE800F07216B0
:102A3000721A7272433872724472453C182852D02E
:102A400006DC112847D0142846D0162861D134E07E
:102A5000222854D02A285CD130E02046FFF7F2F932
:102A60005FE0E279A179ACA000F0D6FF01A8009068
:102A700007F10900BDF808301A1A89480930C11950
:102A800003AB4046FEF787FD40B9E37903A9204632
:102A9000019AFEF7EEFDA4A000F0BEFF41E0204643
:102AA000FFF7BFF83DE02046FFF7BBF82046FFF7F1
:102AB00094FA36E000BF00BF00BF00BF2046FFF71A
:102AC00098F82EE02046FFF7ACF89AA000F0A4FF9B
:102AD000FFF775FA25E024E02046FFF78AF89AA070
:102AE00000F09AFF1DE02046FFF783F82046FFF72D
:102AF00033FA9DA000F090FF13E013E009E02046B8
:102B0000FFF777F82046FFF746FF9DA000F084FF0F
:102B100007E002212046FFF7F1F9A0A000F07CFFBA
:102B200000BF0EE016F1020F0BD15D4C641C0121B9
:102B30002046FFF7E3F99FA000F06EFF6FF0010061
:102B40005AE75748007806284ED2DFE800F04D03D8
:102B500013232E3E0020524908701F2201F5867172
:102B6000A1F17000FEF79EFA16214D489C3000F04E
:102B7000B9FD3AE000204A490870012201F5A5712B
:102B8000A1F19800FEF78EFA16215248A53800F000
:102B9000A9FD2AE00020424908700846D0F85B20D1
:102BA0002E319C30FEF77EFA1FE000203C49087071
:102BB0000C2201F24B11A1F18300FEF773FA1621EA
:102BC00044488F3800F08EFD0FE000203449087033
:102BD00041224049A1F17900FEF764FA41213D48C4
:102BE000793800F07FFD00E000BF00BF2846FEF707
:102BF000EDFE002000E72DE9F0418CB006460F46BF
:102C00004FF000086C46B81D85B23EB96FA000F0C9
:102C100003FF4FF0FF300CB0BDE8F081FF2004F857
:102C2000010B04F8010B281204F8010B04F8015BF6
:102C3000052004F8010B1A4890F85F10D0F85F00E7
:102C4000401C174AC2F85F0004F8011B002004F87A
:102C5000010B04F8010B062004F8010B3A4631463B
:102C60000DF1090000F025FD291D684600F0C2F8AD
:102C70000146E81C0DF80010291D6846FEF7C0FA51
:102C80008046B8F1000F04DA4146AFF6807000F0DC
:102C9000C3FE291D6846FEF754FB0020BBE7000079
:102CA0002B0100204552525B4E54505D3A20756115
:102CB0007274207772697465206572726F72202554
:102CC00064200A004E545020697320656D70747939
:102CD000200A00008202002047697A7769747348ED
:102CE000616E646C65204572726F72202C20496C95
:102CF0006C6567616C20506172616D0A00000000B4
:102D0000C3020020476574204F6E65205061636BDD
:102D10006574210A00000000666C61672025782038
:102D20002578200A0000000041636B446174612033
:102D30003A200A007265706F72743A4D43552072E2
:102D400065626F6F74210A0041636B2050524F44DB
:102D5000554354494F4E5F4D4F444520737563634F
:102D6000657373200A00000041636B204745545F80
:102D70005554542073756363657373200A00000013
:102D800041636B204745545F4D6F64756C652073DC
:102D9000756363657373200A000000004552523A60
:102DA00020636D6420636F6465206572726F7221A9
:102DB0000A0000004552523A20636865636B207335
:102DC000756D206572726F72210A00005B45525268
:102DD0005D2067697A776974735061737374687280
:102DE0006F75676844617461204572726F72200A62
:102DF0000000000010B502460024002302B109B90A
:102E0000002010BD022303E0D05C2044C4B25B1C50
:102E1000481E9842F8D82046F3E701B581B000205B
:102E20000090694601AA5078087010784870BDF883
:102E300000000CBD0146080601F47F4240EA022072
:102E400001F47F0240EA122040EA1160704710B599
:102E500002460024302A05DB392A03DCA2F13000C7
:102E6000C3B20EE0412A05DB462A03DCA2F137009B
:102E7000C3B206E0612A04DB662A02DCA2F1570035
:102E8000C3B2302905DB392903DCA1F13000C4B21B
:102E90000EE0412905DB462903DCA1F13700C4B26D
:102EA00006E0612904DB662902DCA1F15700C4B207
:102EB00004EB0310C0B210BD70B504460025002617
:102EC000204600F01AFC06460CB9681E70BD0025AD
:102ED00005E0605D302801D00020F7E76D1CB542A9
:102EE000F7D30120F2E72DE9F043034600BF0025A8
:102EF000002400260027012901D002290DD1A3F1C9
:102F0000010C4FF06408BCFBF8F4BCFBF8F908FBBB
:102F100019C501F10C06174609E04FF0640CB3FB2C
:102F2000FCF4B3FBFCF80CFB18350E46174606F113
:102F3000010C4FF01A080CFB08FC4FF00A08BCFB10
:102F4000F8FC05EB950808EB94084FF0020909FB23
:102F50001488C444BC44ACF10100002806DB4FF0E7
:102F6000070C90FBFCF80CFB180C07E04FF0070C6B
:102F700090FBFCF80CFB180C0CF1070C6046BDE84C
:102F8000F08301460A46C81701EB90708010A1EB50
:102F9000800070B9642091FBF0F300FB131030B98E
:102FA0004FF4C87091FBF0F300FB131008B9012037
:102FB00070470020FCE710B504462046FFF7E1FF0C
:102FC00010B14FF4B77010BD40F26D10FBE72DE962
:102FD000F04190B080460E4640F2B2753022694909
:102FE00001A800F066FB344604F5E14400BF11E09F
:102FF0002846FFF7E0FF074640F2A3207843B4EBF2
:10300000C01F06D340F2A3207843A4EBC0146D1C6C
:1030100000E001E0002CEBD100BFA8B2ADF8340015
:10302000002518E0BDF83400FFF7ABFF08B11D2004
:10303000029001A850F8250040F2A3214843B4EBC8
:10304000C01F07D301A850F825004843A4EBC014C3
:103050006D1C00E001E0002CE4D100BF1C200290B8
:10306000681CC0B28DF83600012506E0464884424F
:1030700002D3241A6D1C00E001E0002CF6D100BF41
:10308000E8B28DF837004FF46160B4FBF0F0C0B2E5
:103090008DF838004FF46160B4FBF0F100FB114093
:1030A0003C21B0FBF1F0C0B28DF839003C20B4FBFC
:1030B000F0F100FB11408DF83A00CDF83B600D981F
:1030C000C8F800000E98C8F80400BDF83C00A8F845
:1030D00008009DF83E0088F80A0010B0BDE8F081B5
:1030E0002DE9F05F80460E46914600241CE016F85C
:1030F00014A06000401C16F800B0504600F0D3FA4F
:103100003038C5B2092D01DDE81FC5B2584600F0C0
:10311000CAFA3038C7B2092F01DDF81FC7B207EB72
:10312000051008F80400641C4C45E0DBBDE8F09F86
:10313000F0B5034600201EE00E5CF71706EB17778C
:103140003F1107F130050E5CF71706EB17773F11BB
:10315000A6EB07173037FCB2392D01DDEE1DF5B2B5
:10316000392C01DDE61DF4B203F81050012606EB00
:1031700040069C55401C9042DEDB002603F812609E
:10318000F0BD0000BC3E00088051010030B5024691
:103190000B460021002400250AB9481E30BD00213D
:1031A00008E0545C581A401E155C5554581A401ECD
:1031B0001454491CB1EB530FF3D30020EEE710B5C4
:1031C00003460020541AB4FBF3F010BD10B50346BB
:1031D000002002FB031010BD2DE9F04704460E4607
:1031E000154600273146284600F0EDFA8146214673
:1031F00000F021FB804600F061FB07463846BDE841
:10320000F0872DE9F04704460E461546002728466C
:1032100000F04FFB8146214600F0DBFA8046314644
:1032200000F07FFA07463846BDE8F087024612B143
:1032300002F0070028B9082901D8002070470120B2
:10324000FCE702F00700C0F10800884201D300202B
:10325000F4E70120F2E72DE9F047054688461446D9
:103260001E464FF00009CA460027002314B9581E15
:10327000BDE8F087EB0841462846FFF7D7FF074631
:103280003FB9E05C05F0070106FA01F10843E0549C
:103290001DE0012F1BD1F0B205F00701C1F10801BB
:1032A00040FA01F905F00700C0F10801FF200841CC
:1032B00000EA060A581C205C40EA0900591C6054C8
:1032C000E05C05F007010AFA01F10843E054002030
:1032D000CEE72DE9F04F8FB004460F4690461D46CD
:1032E0000026B246B146B34600200E90B8F1000F5A
:1032F00000D025B94FF0FF300FB0BDE8F08F4FEA96
:10330000D4092A46414601A800F0D3F9012D09D974
:10331000294601A8FFF73AFFB0F1FF3F02D14FF075
:10332000FF30E9E739462046FFF780FF8246BAF1D1
:10333000000F0CD101A810F8090004F007010841A2
:10334000C7F10802FF2111410840064321E0BAF10C
:10335000010F1ED101A909F10100085C04F0070169
:10336000C1F10801791AC1F10802FF21114100EAF7
:10337000010B01A810F8090004F0070108410E90A4
:1033800004F00700C0F108010BFA01F006430E98A3
:1033900006433046B0E72DE9F04F8FB005460C46A6
:1033A00016469946189F4FF0000AD34600200E900B
:1033B0008046B9F1000F00D027B94FF0FF300FB0B1
:1033C000BDE8F08F3A46494601A800F072F9012F96
:1033D00009D9394601A8FFF7D9FEB0F1FF3F02D164
:1033E0004FF0FF30EBE731462046FFF71FFF8246E4
:1033F000BAF1000F0CD101A8405D04F007010841AB
:10340000C6F10802FF211141084040EA080821E006
:10341000BAF1010F1ED101A9681C085C04F0070174
:10342000C1F10801711AC1F10802FF21114100EA3E
:10343000010B01A8405D04F0070108410E9004F063
:103440000700C0F108010BFA01F040EA08080E98E5
:1034500048EA00084046B2E72DE9F04704460D4629
:103460001746089E4FF00009CA46C8461BB94FF0E0
:10347000FF30BDE8F08739462846FFF7D7FE804683
:10348000B8F1000F07D1185D05F0070106FA01F148
:10349000084318551EE0B8F1010F1BD1F0B205F03A
:1034A0000701C1F1080140FA01F905F00700C0F178
:1034B0000801FF20084100EA060A601C185C40EA87
:1034C0000900611C5854185D05F007010AFA01F162
:1034D000084318550020CCE7014611B94FF0FF30E2
:1034E0007047C8684860C86888600020F8E70146EF
:1034F00011B94FF0FF3070470020C8604860886005
:10350000086000BFF7E7014611B94FF0FF30704780
:103510000868FCE700B5024612B94FF0FF3000BD65
:1035200050689168884201D10020F8E7506891689E
:10353000884203D290685168401AF0E71046FFF7BE
:10354000E2FF51689368C91A401AE8E730B50446AB
:1035500014B94FF0FF3030BD2046FFF7D4FF0546C9
:103560002046FFF7D7FF281AF5E72DE9F04104467A
:103570000F461646002514B9681EBDE8F08117B93C
:103580004FF0FF30F9E76068A168884214D2204606
:10359000FFF7C0FFB04201D9304602E02046FFF7F6
:1035A000B9FF054661682A46384600F082F860682F
:1035B000284460602846E0E72046FFF7A4FF6168E2
:1035C000E268891A401AB0420AD9354661682A462B
:1035D000384600F06EF86068284460602846CCE702
:1035E0002046FFF790FF6168E268891A451A616812
:1035F0002A46384600F05DF8E0686060721B791971
:103600002046FFF7B2FF05442846B6E72DE9F04112
:1036100004460F461546002604B11FB94FF0FF308F
:10362000BDE8F0812046FFF791FFA84202D86FF075
:103630000100F5E76068A16888422AD82046FFF7B4
:1036400062FFA168E268891A461AB54213D8A068D9
:103650002A46394600F02DF8A0682844A06020468C
:10366000FFF751FFE1680844A168884201D1E06892
:10367000A0602846D4E7A0683246394600F019F821
:10368000E068A060AA1BB9192046FFF7BFFF3044CD
:10369000C6E7A0682A46394600F00BF8A06828441F
:1036A000A0602846BCE7A0F16101192900D82038A4
:1036B000704740EA01039B0703D009E008C9121FC5
:1036C00008C0042AFAD203E011F8013B00F8013BDC
:1036D000521EF9D27047D2B201E000F8012B491E08
:1036E000FBD270470022F6E710B513460A4604469F
:1036F0001946FFF7F0FF204610BD421C10F8011BD1
:103700000029FBD1801A704730B5044600200346DB
:1037100000E05B1C934203D2E05CCD5C401BF8D020
:1037200030BDF0B480EA0102D40F4200B2EB410F89
:1037300002D20246084611464A0042D0C30DDDB20D
:10374000C1F3C752AD1A202D35DAC1F3160141F489
:10375000000204B15242C5F1200602FA06F12A41E4
:103760001044B3EBD05F23D0C4B1012DA0EBC35004
:1037700009DCF0BC4FF0004202EAC352DBB200F5B4
:10378000000000F0F9B8400000F1807000EBC35079
:10379000A0F1807040EAD170490009E0490841EA8F
:1037A000C071A0EBC35000F50000400800EBC3500F
:1037B000F0BC00F0D8B86142012202EB4101001BCD
:1037C000F6E7F0BC704781F00041AAE780F00040C6
:1037D000A7E780EA010210B502F00043400022D0C2
:1037E0004A001FD0010E01EB1261C0F35600C2F374
:1037F000560240F4000042F40002A0FB0220000444
:103800007F39140400D0401C50EA124001D440001B
:10381000491EC2B20C0604EBD010401C4008802A9E
:1038200002D003E0002010BD20F00100002900DAE2
:103830000020184310BD30B480EA010202F00045B8
:1038400030F0004221F0004013D090B1C30DD40DF0
:10385000C2F31601C0F31600E41A41F4000140F46B
:1038600000027D34914201D3641C00E04900002C29
:1038700002DA30BC002070474FF400000023914270
:1038800001D3891A034340084FEA4101F7D151B1EE
:10389000914202D14FF0004105E002D24FF0010108
:1038A00001E06FF0010103EBC450284430BC00F08C
:1038B0005AB896230022114600F05EB820F000406E
:1038C000C10DC0F3160040F400007F2901DA00208A
:1038D0007047962903DCC1F19601C84070479639BC
:1038E000884070472DE9F05F0546002092469B46D0
:1038F00088460646814640241BE028464146474606
:10390000224600F020F853465A46C01A914110D37F
:1039100011461846224600F06FF82D1A67EB010891
:103920004F4622460120002100F066F817EB0009FF
:103930004E41201EA4F10104DFDC484631462A46F0
:103940004346BDE8F09F202A04DB203A21FA02F02A
:103950000021704721FA02F3D040C2F120029140C9
:103960000843194670470029A8BF7047401C49000A
:1039700008BF20F00100704710B4B0FA80FC00FAD4
:103980000CF050EA010404BF10BC704749B1CCF1FF
:10399000200421FA04F411FA0CF118BF012121438B
:1039A0000843A3EB0C01CB1D4FEA00614FEA102046
:1039B00042BF002010BC704700EBC35010440029E8
:1039C000A4BF10BC7047401C490008BF20F0010094
:1039D00010BC7047064C074D06E0E06840F001035C
:1039E00094E8070098471034AC42F6D3FCF7A4FBE8
:1039F000EC3E00080C3F0008202A04DB203A00FAC5
:103A000002F1002070479140C2F1200320FA03F335
:103A100019439040704700000FB4054B10B503A93F
:103A2000044A029800F018F810BC5DF814FB00007E
:103A3000610300081400002002E008C8121F08C13A
:103A4000002AFAD170477047002001E001C1121F1F
:103A5000002AFBD1704700002DE9FF4F8DB00F46C3
:103A60000546002606E025280BD0DDE90F12904719
:103A70006D1C761C28780028F5D111B03046BDE8C1
:103A8000F08F0024A246A1460122EC4900E0044345
:103A900015F8013F203B02FA03F00842F7D12878DD
:103AA0002A2810D06FF02F022878A0F130010929C0
:103AB00014D80AEB8A0102EB410144F0020400EB46
:103AC000010A6D1CF0E701CF5FEA000A03D544F458
:103AD0000054CAF1000A44F002046D1C28782E2814
:103AE00017D115F8010F44F004042A280ED06FF006
:103AF0002F022878A0F1300109290AD809EB8901A1
:103B000002EB410100EB01096D1CF2E757F8049B41
:103B10006D1C28786C280FD006DC4C2817D068283C
:103B20000DD06A2814D104E0742810D07A280FD15F
:103B30000DE044F400140AE044F4801401E044F47D
:103B400040146978814202D104F580146D1C6D1C0B
:103B50002A786E2A1FD00CDC632A31D004DC002ABC
:103B60008BD0582A11D1A3E0642A68D0692A0CD1DD
:103B700065E0732A2ED004DC6F2A73D0702A04D13A
:103B80009BE0752A6FD0782A6ED01046DDE90F12BF
:103B90009047761C50E1C4F30250022806D0032857
:103BA00009D0042801CF09D0066045E101CFF11703
:103BB000C0E9006140E101CF06803DE106703BE1D4
:103BC00017F8040B8DF8000000208DF80100EB467B
:103BD000012003E057F804BB4FF0FF3061074FF0BE
:103BE000000102D40DE008F10101884649450FDAD1
:103BF0008045F8DB1BF808100029F4D108E008F133
:103C0000010188468142FADB1BF808100029F6D131
:103C1000DDE90F23AAEB08008146214600F036F9C2
:103C2000304400EB080604E0DDE90F121BF8010B3D
:103C30009047B8F10108F7D221464846F7E00A213B
:103C4000C4F302534FF0000B0891022B04D001CFB4
:103C5000C117032B09D00AE0FF1D27F00707F7E87B
:103C6000020108E032E01FE020E000B2C117042B9F
:103C700001D140B2C117031E71F1000307DA4FF002
:103C8000000CD0EB0C006CEB01012D2302E02305AE
:103C900004D52B238DF82430012303E0E30701D062
:103CA0002023F7E7984658E00A2110E010210EE0A3
:103CB00010204FF0000B08900CE010214FF0000B8B
:103CC00044F004044FF00809089103E008214FF084
:103CD000000B0891C4F30253022B04D001CF002142
:103CE000032B06D006E0FF1D27F00707F7E80201C7
:103CF00003E080B2042B00D1C0B24FF000082307CC
:103D00002BD5702A07D0DDF820C08CF0100C5CEAAF
:103D10000B0C05D00EE040238DF82430012308E081
:103D200050EA010306D030238DF824308DF8252089
:103D300002239846DDF820C08CF0080C5CEA0B0CDE
:103D40000BD150EA010301D1630706D530238DF86A
:103D500024304FF00108A9F10109582A04D038A2F3
:103D60000B9208AA0A920BE03AA2F9E75B46089A7E
:103D7000FFF7B8FD0B9B9B5C0A9A521E0A921370C8
:103D800050EA0102F2D10A98ADEB000000F1200BDD
:103D9000600702D524F4803401E04FF00109D945D1
:103DA00002DDA9EB0B0000E0002000EB0B01414419
:103DB0000890AAEB010AE00306D4DDE90F232146AF
:103DC000504600F063F806444FF0000908E009A9E6
:103DD00011F80900DDE90F12904709F10109761C7D
:103DE000C145F4DBE0030CD5DDE90F232146504645
:103DF00000F04CF8064404E0DDE90F123020904753
:103E0000761C0899481E08900029F5DC08E00A98FD
:103E10000A990078491C0A91DDE90F129047761C37
:103E2000BBF10001ABF1010BF1DC21465046DDE9AD
:103E30000F2300F019F806446D1C1BE60928010049
:103E40003031323334353637383961626364656610
:103E500000000000303132333435363738394142D2
:103E600043444546000000002DE9F041044600258A
:103E70001E461746880404D405E039462020B04782
:103E80006D1C641EF9D52846BDE8F0812DE9F0418E
:103E9000044600251E469046C80301D5302700E0A1
:103EA0002027880404D505E041463846B0476D1CFC
:103EB000641EF9D52846BDE8F08100001F0000000F
:103EC0001C0000001F0000001E0000001F0000007A
:103ED0001E0000001F0000001F0000001E00000068
:103EE0001F0000001E0000001F0000000C3F000823
:103EF0000000002044000000383A0008503F00084D
:103F000044000020EC060000483A000800A24A04E1
:103F10000000000000000000010203040607080979
:103F20000000000000000000000001020304010284
:103F30000304060708090204060800000000000048
:103F40000000000000000000000000000000000071
:0400000508000131BD
:00000001FF
