:020000040800F2
:1000000058080020B91900081D1D00081F1D000810
:10001000231D0008271D00082B1D000800000000FC
:100020000000000000000000000000002F1D00087C
:10003000311D000800000000331D0008351D0008B8
:10004000D3190008D3190008D3190008D3190008E0
:10005000D3190008D3190008D3190008D3190008D0
:10006000D3190008D3190008D3190008D3190008C0
:10007000D3190008D3190008D3190008D3190008B0
:10008000D3190008D3190008D3190008D3190008A0
:10009000D3190008D3190008D3190008D319000890
:1000A000D3190008D3190008D3190008D319000880
:1000B000D3190008D3190008D3190008D319000870
:1000C000D3190008D3190008D3190008D319000860
:1000D000D31900080F220008D3190008892300084B
:1000E000D3190008D3190008D319000800F002F84A
:1000F00000F090F80AA090E8000C82448344AAF132
:100100000107DA4501D100F085F8AFF2090EBAE82F
:100110000F0013F0010F18BFFB1A43F0010318473B
:10012000D84C0000F84C0000103A24BF78C878C1C1
:10013000FAD8520724BF30C830C144BF04680C60ED
:10014000704700000023002400250026103A28BF35
:1001500078C1FBD8520728BF30C148BF0B60704739
:100160006E2902F0CA85702902F03D87662904F0E5
:100170007F80652904F07C80672904F079806129FB
:1001800004F0788003681B0A28BF41F080016929C8
:1001900002F0CC83642902F0C983752902F0C6837A
:1001A0006F2902F0CA86782902F00987E92902F04E
:1001B0006586E42902F06286F52902F05F86EF2960
:1001C00002F0C786F82902F008870368DB0928BF18
:1001D00041F08001632902F0D485732902F0D985AA
:1001E000E32903F0E582F32903F0EA820020704757
:1001F0001FB503F03BFB04000020002104F022F8AF
:10020000401C60600020002104F006F8E0601FBD83
:1002100010B510BD03F0FCFA1146FFF7E9FF01F03D
:1002200014FC03F0D5FB03B4FFF7F2FF03BC01F0AD
:100230006BFF00000CB50020019000906C48006836
:1002400040F480306A49086000BF6948006800F4E3
:10025000003000900198401C0190009818B9019856
:10026000B0F5A06FF1D16248006800F4003010B121
:100270000120009001E0002000900098012843D167
:100280005C48006840F010005A4908600846006861
:1002900020F0030008600846006840F00200086093
:1002A00053484068524948600846406848600846DC
:1002B000406840F4806048600846406820F47C1044
:1002C00048600846406840F4E81048600846006806
:1002D00040F08070086000BF4548006800F0007082
:1002E0000028F9D04248406820F0030040494860A7
:1002F0000846406840F00200486000BF3C48406843
:1003000000F00C000828F9D10CBD10B5FFF792FFE2
:1003100010BD10B53648006840F00100344908604F
:10032000084640683449084031494860084600683A
:10033000324908402E4908600846006820F48020B1
:1003400008600846406820F4FE0048604FF41F0033
:100350008860FFF7DAFF4FF000602949086010BDA0
:1003600010B5002100200022214B5B6803F00C0136
:1003700021B1042906D0082928D107E0214B224CBD
:10038000236027E01F4B204C236023E0184B5B6861
:1003900003F47010164B5B6803F48032022303EB06
:1003A000904022B9194B4343174C23600DE0104B8A
:1003B0005B6803F4003323B1144B4343124C2360B6
:1003C00003E0104B4343104C236003E00D4B0E4CF5
:1003D000236000BF00BF064B5B68C3F303130C4CE4
:1003E000E15C094B1B68CB40074C236010BD00004B
:1003F00000100240002002400000FFF8FFFFF6FE60
:1004000008ED00E000127A000000002000093D0025
:100410000400002031490143314A1160704770B532
:10042000002100230F22C47804B32D4C246804F467
:10043000E064C4F5E064210AC1F10403CA404478D1
:1004400004FA03F18478144021430901254C06780D
:10045000A155047804F01F050124AC4005786D1106
:10046000AD0005F1E025C5F8004109E0047804F08D
:100470001F050124AC401C4D0678761145F8264036
:1004800070BD1A4A0A400243154B1B1F1A60704781
:1004900039B1134A121D12680243114B1B1D1A6019
:1004A00006E00F4A121D126882430D4B1B1D1A6095
:1004B0007047042808D14FF0E021096941F0040198
:1004C0004FF0E022116107E04FF0E021096921F0CF
:1004D00004014FF0E0221161704700000000FA05AE
:1004E0000CED00E000E400E080E100E080FFFF1F91
:1004F00010B50446CC48844208D10121042000F004
:100500002DFB0021042000F029FB46E0C74884426F
:1005100008D10121082000F021FB0021082000F073
:100520001DFB3AE0C248844208D10121102000F0AE
:1005300015FB0021102000F011FB2EE0BD48844285
:1005400008D10121202000F009FB0021202000F02B
:1005500005FB22E0B848844208D10121402000F088
:10056000FDFA0021402000F0F9FA16E0B348844279
:1005700008D10121802000F0F1FA0021802000F054
:10058000EDFA0AE0AE48844207D10121801500F05F
:10059000E5FA0021A01500F0E1FA10BD10B5012127
:1005A000084600F0DBFA0021012000F0D7FA10BD68
:1005B0002DE9F041024600250026002000230024FA
:1005C000002791F803C00CF00F0591F803C00CF060
:1005D000100CBCF1000F03D091F802C04CEA0505E5
:1005E00091F800C0BCF1000F31D0146800202BE05E
:1005F0004FF0010C0CFA00F3B1F800C00CEA03064E
:100600009E4220D183004FF00F0C0CFA03F7BC433D
:1006100005FA03FC4CEA040491F803C0BCF1280F6E
:1006200006D14FF0010C0CFA00FCC2F814C00AE02D
:1006300091F803C0BCF1480F05D14FF0010C0CFA42
:1006400000FCC2F810C0401C0828D1D31460B1F8D7
:1006500000C0BCF1FF0F34DD546800202EE000F133
:10066000080C4FF0010808FA0CF3B1F800C00CEACE
:1006700003069E4221D183004FF00F0C0CFA03F7C2
:10068000BC4305FA03FC4CEA040491F803C0BCF136
:10069000280F05D100F1080C08FA0CF8C2F81480F4
:1006A00091F803C0BCF1480F07D100F1080C4FF0DE
:1006B000010808FA0CF8C2F81080401C0828CED3B4
:1006C0005460BDE8F0814FF6FF7101800221817016
:1006D0000421C17070470246002093680B400BB1A3
:1006E000012000E0002070470146886880B2704712
:1006F00002460020D3680B400BB1012000E000202F
:1007000070470146C86880B2704701617047416117
:1007100070470AB1016100E041617047C1607047F4
:100720004FF480320A438261816182618269826909
:10073000704702460020434B18684FF680731840FC
:1007400040EA021008433F4B186070473E49C861B9
:100750007047F0B50A46002300240021002500F070
:100760000046B6F1004F02D1364EF16901E0354E38
:100770007168C0F3034583B200F44016B6F5401F1C
:1007800008D121F070612F4E766826F070662D4FEB
:100790007E6012E000F48016B6F5801F06D10326B5
:1007A00006FA05F4A14341F0706106E0460D3601FA
:1007B00003FA06F6B14341F0706122B1460D3601ED
:1007C00003FA06F6314300F00046B6F1004F02D1BD
:1007D0001C4EF16101E01B4E7160F0BD30B500228E
:1007E0008B071C0F0F2303FA04F2164B08338C10EF
:1007F00053F824309343134C08348D1044F82530BB
:1008000023468C1053F824308C07240F00FA04F48C
:1008100023430C4C08348D1044F8253030BD0A4970
:10082000DC3108607047000000080140000C014006
:10083000001001400014014000180140001C01405C
:10084000002001400000014000002042DF48006815
:1008500040F00100DD49086008464068DC49084076
:10086000DA49486008460068DA490840D749086014
:100870000846006820F4802008600846406820F49C
:10088000FE0048604FF41F0088607047CF49096838
:1008900021F48031CD4A11601146096821F480218C
:1008A0001160B0F5803F03D0B0F5802F0ED106E087
:1008B000C649096841F48031C44A116007E0C34960
:1008C000096841F4A021C14A116000E000BF00BFE7
:1008D000704710B501460022002300204A11012A6A
:1008E00002D1BA4C236806E0022A02D1B74C236A2F
:1008F00001E0B64C636A01F01F02012494401C40E1
:100900000CB1012000E0002010BD38B5002000909F
:100910000024002500BF3120FFF7DBFF05460098CB
:10092000401C00900098B0F5A06F01D0002DF2D0CF
:100930003120FFF7CEFF08B1012400E0002420465B
:1009400038BD01460020A14A106820F0F80040EAB6
:10095000C10010607047A04908607047024600203F
:100960009A4B586820F47C1042EA01031843974BD5
:100970005860704798490866704701460020934ABE
:10098000506820F003000843506070478F4840686B
:1009900000F00C007047014600208C4A506820F09F
:1009A000F00008435060704701460020874A5068B5
:1009B00020F4E06008435060704701460020834AFD
:1009C000506820F4605040EAC1005060704729B17F
:1009D0007E4A527A02437D4B5A7204E07B4A527A35
:1009E00082437A4B5A7270477B49D831086070470E
:1009F00001460020754A506820F44040084350608A
:100A000070470021714A20321170704A82F820101C
:100A1000012802D004280AD104E001216B4A2032C7
:100A2000117005E00521694A2032117000E000BF15
:100A300000BF70476949086070476449096A01430B
:100A4000624A11627047654944390860704730B5A1
:100A500000210022002400235C4D6D6805F00C018C
:100A600021B1042905D0082923D105E05C4D05609A
:100A700022E05B4D05601FE0544D6D6805F4701277
:100A8000524D6D6805F48034022505EB92421CB985
:100A9000544D554305600BE04C4D6D6805F4003531
:100AA0001DB1504D5543056002E04D4D5543056065
:100AB00002E04B4D056000BF00BF444D6D6805F07E
:100AC000F0010909484D6B5C0568DD4045603F4D0C
:100AD0006D6805F4E061090A434D6B5C4568DD40D3
:100AE00085603A4D6D6805F46051C90A3E4D6B5CF6
:100AF0004568DD40C560354D6D6805F44041890BA2
:100B00003A4D6B5CC568B5FBF3F5056130BD29B1A5
:100B10002E4A526902432D4B5A6104E02B4A526916
:100B200082432A4B5A61704729B1284A926902438D
:100B3000264B9A6104E0254A92698243234B9A61CD
:100B4000704729B1214AD2690243204BDA6104E09F
:100B50001E4AD26982431D4BDA61704729B11B4A94
:100B6000D2680243194BDA6004E0184AD268824323
:100B7000164BDA60704729B1144A12690243134BCD
:100B80001A6104E0114A12698243104B1A617047DE
:100B900012494039086070470F49C86470470B49D3
:100BA000C87170470948406A40F080700749486240
:100BB000704701460020054A92680A400AB10120A8
:100BC00000E0002070470149887270470010024021
:100BD0000000FFF8FFFFF6FE0000424280044242A0
:100BE00000127A0000093D001400002024000020BB
:100BF00010B50446FB48844209D101218803FFF760
:100C0000ADFF00214FF48040FFF7A8FF32E0F64827
:100C1000844209D101214804FFF7ADFF00214FF4C0
:100C20000030FFF7A8FF25E0F048844209D10121F8
:100C30008804FFF7A0FF00214FF48020FFF79BFFFF
:100C400018E0EB48844209D10121C804FFF793FF63
:100C500000214FF40020FFF78EFF0BE0E5488442AF
:100C600008D101210805FFF786FF00214FF480100D
:100C7000FFF781FF10BD2DE9F04786B005460E460F
:100C80000024A24600BFA1460027B08900B100BFE2
:100C90002F462C8A4CF6FF700440F08804432C82C7
:100CA000AC894EF6F3100440B0883189084371894D
:100CB00008430443AC81AC8A4FF6FF400440B0893E
:100CC0000443AC8201A8FFF7C2FEC648874202D1A6
:100CD000DDF810A001E0DDF80CA0A88900F40040C8
:100CE00040B10AEBCA0000EB0A1031684900B0FBC2
:100CF000F1F807E00AEBCA0000EB0A10316889003E
:100D0000B0FBF1F86420B8FBF0F004012009642185
:100D100001FB1089A88900F4004040B1322000EBAB
:100D2000C900B0FBF1F000F00700044308E03220F6
:100D300000EB09106421B0FBF1F000F00F00044358
:100D40002C8106B0BDE8F0874FF4165101600021F8
:100D50008180C18001810C21418100218181704706
:100D600010B502460020108A4FF2FF0318400B888E
:100D70004C8823438C882343CC8823431843108218
:100D800010BD0021018041808180C180704721B168
:100D9000828942F40052828104E082894DF6FF7319
:100DA0001A4082817047F0B50346002400260025D2
:100DB000002040F66A17B94200D100BF1846C1F3BF
:100DC000421401F01F06012707FA06F5012C01D194
:100DD0000C3004E0022C01D1103000E014301AB1C4
:100DE00007682F43076002E00768AF430760F0BD64
:100DF0001AB1838A0B43838202E0838A8B43838206
:100E00007047028A4FF6F0731A400282028A0A4340
:100E10000282704782894FF2FF731A408281828971
:100E20000A438281704721B1828942F002028281A5
:100E300004E082894FF6FD731A4082817047028A6E
:100E40004FF6DF731A400282028A0A430282704719
:100E500021B1028A42F48042028204E0028A4BF607
:100E6000FF731A4002827047C1F308028280704704
:100E700001468888C0F308007047818941F001016C
:100E800081817047028BD2B20283028B42EA012237
:100E900002837047028B02F47F420283028B0A4373
:100EA0000283704721B1828A42F02002828204E0EC
:100EB000828A4FF6DF731A408282704721B1828A9C
:100EC00042F01002828204E0828A4FF6EF731A40E9
:100ED0008282704721B1828A42F00802828204E055
:100EE000828A4FF6F7731A408282704721B1828955
:100EF00042F40042828103E08289C2F30E028281C1
:100F0000704721B1828A42F40062828204E0828AC0
:100F10004FF2FF731A4082827047828A4FF6FB734A
:100F20001A408282828A0A438282704721B1828A71
:100F300042F00202828204E0828A4FF6FD731A4078
:100F40008282704702460020B1F5007F00D100BFC9
:100F500013880B400BB1012000E00020704701F422
:100F60000072B2F5007F00D100BFCA430280704713
:100F700070B50246002400230025002040F66A16C2
:100F8000B14200D100BFC1F3421501F01F03012699
:100F900006FA03F3012D02D19689334006E0022DB3
:100FA00002D1168A334001E0968A33400C120126A2
:100FB00006FA04F41688344013B10CB1012000E0A5
:100FC000002070BD10B50022002340F66A14A14233
:100FD00000D100BF0A1201249440A3B2DC43048074
:100FE00010BD0000003801400044004000480040AF
:100FF000004C00400050004010B50446F7488442C1
:1010000009D101214805FFF7B6FD00214FF400107A
:10101000FFF7B1FD08E001218805FFF7ACFD0021D5
:101020004FF48000FFF7A7FD10BD2DE9F04385B018
:1010300004460D460026B1460427DFF8A483A6889F
:101040004FF6C07006406846FFF701FDDDF80880E6
:10105000E448B8FBF0F01FFA80F946EA0906A680DA
:1010600020884FF6FE71084020800026DE4928685F
:1010700088420CD828684000B8FBF0F087B2042FF3
:1010800000DA04273E4309F10100208427E0E888C4
:101090004BF6FF71884206D1286800EB4000B8FB90
:1010A000F0F087B209E0286800EBC00101EB001006
:1010B000B8FBF0F087B247F48047C7F30B0008B9DC
:1010C00047F0010747F4004006434FF4967009FBD0
:1010D00000F04FF47A7190FBF1F0401C2084A6835D
:1010E000208840F00100208026884FF6F530064029
:1010F000A8886989084306432680A8892989084366
:10110000208105B0BDE8F08341F288310160002103
:1011100081804BF6FF71C1800021018141814FF434
:1011200080418181704721B1028842F00102028032
:1011300004E002884FF6FE731A400280704721B126
:10114000828842F40062828004E082884FF2FF735A
:101150001A408280704721B1828842F48052828096
:1011600004E082884EF6FF731A408280704721B1F6
:10117000028842F48072028004E002884FF6FF6326
:101180001A400280704721B1028842F40072028046
:1011900004E002884FF6FF531A400280704721B1E5
:1011A000028842F48062028004E002884FF6FF3336
:1011B0001A40028070470A46002181894FF6017368
:1011C000194002F0FE0319438181704721B18289E1
:1011D00042F00102828104E082894FF6FE731A40D8
:1011E0008281704721B1028842F04002028004E00F
:1011F00002884FF6BF731A40028070471AB1838885
:101200000B43838002E083888B4383807047018295
:1012100070470146088AC0B2704712B141F001011F
:1012200002E04FF6FE7319400182704708B502468E
:1012300000200090009200980844009000980088D8
:1012400008BD21B1028842F40042028003E0028816
:10125000C2F30E0202807047B1F5006F04D102881C
:1012600042F40062028004E002884FF2FF731A40E9
:1012700002807047B1F5005F04D1028842F4005249
:10128000028004E002884DF6FF731A400280704726
:1012900021B1028842F48052028004E002884EF6B6
:1012A000FF731A4002807047B1F5006F04D10288C5
:1012B00042F40062028004E002884FF2FF731A4099
:1012C0000280704721B1028842F02002028004E0CF
:1012D00002884FF6DF731A40028070470146088B80
:1012E0000012704721B1028842F01002028004E02F
:1012F00002884FF6EF731A400280704721B90288C6
:1013000042F08002028004E002884FF67F731A40A8
:1013100002807047B1F5804F05D0828B4BF6FF738A
:101320001A40828303E0828B42F4804282837047BA
:1013300070B502460024002500230020958A138BF7
:101340001B0445EA030626F07F4404EA01068E42A8
:1013500001D1012000E0002070BD10B50146002041
:10136000002300228B8A0A8B120443EA020424F031
:101370007F4010BD0CB5024600200023019300936E
:1013800000920B0F019321F07F41019B1BB1009B49
:101390001433009303E0090C009B18330093009B67
:1013A0001B680B400BB1012000E000200CBD0022A7
:1013B00021F07F42D3438382704730B5024600203C
:1013C0000023948801F0E06504EA154321F07F4191
:1013D000948A0C4054B14BB1012008E00054004005
:1013E00000127A0040420F00A0860100002030BDAC
:1013F000002221F07F42D3438382704701460020C0
:10140000FE4A106800F03800084310607047FB493E
:10141000096821F00801F94A116011460968014381
:1014200011607047F549096821F01001F34A116015
:1014300011460968014311607047F148EF4948605F
:10144000F04848607047EE48EC494860ED48486015
:101450007047EA48006940F08000E8490861704739
:10146000E648006940F08000E449086170470420C4
:10147000E249C96801F0010109B101200EE0DF492C
:10148000C96801F0040109B1022007E0DB49C9681D
:1014900001F0100109B1032000E00420704700B5FD
:1014A00002460423FFF7E3FF034603E0FFF7DFFFF5
:1014B0000346521E012B01D1002AF7D102B90523A0
:1014C000184600BD30B5044604254FF43020FFF720
:1014D000E6FF0546042D17D1C848006940F0020018
:1014E000C649086108464461006940F0400008614F
:1014F0004FF43020FFF7D3FF0546C048006941F69E
:10150000FD710840BD490861284630BD10B504246E
:101510004FF43020FFF7C3FF0446042C16D1B74820
:10152000006940F00400B54908610846006940F0D0
:10153000400008614FF43020FFF7B1FF0446AF4888
:10154000006941F6FB710840AC490861204610BDB6
:1015500000B502460423FFF78AFF034603E0FFF7C6
:1015600086FF0346521E012B01D1002AF7D102B992
:101570000523184600BD10B504244FF43020FFF7B2
:10158000E7FF0446042C16D19C48006940F0040093
:101590009A4908610846006940F0400008614FF42C
:1015A0003020FFF7D5FF04469448006941F6FB71EF
:1015B000084092490861204610BD00208F49C96942
:1015C00001F0020109B1012000E00020704730B5B0
:1015D000A5250424FFF7F1FF00B100254FF43020CA
:1015E000FFF75DFF0446042C3AD1854883498860A3
:1015F000844888600846006940F020000861084679
:10160000006940F0400008614FF43020FFF747FFC9
:101610000446042C1BD17948006941F6DF7108406B
:10162000764908610846006940F010000861764874
:101630000580E002FFF733FF0446052C10D06F4809
:10164000006941F6EF7108406C49086108E0052C1B
:1016500006D06A48006941F6EF71084067490861A1
:10166000204630BD78B506460C4604250020009083
:10167000E802FFF714FF0546042D24D15F480069F6
:1016800040F001005D4908613480E802FFF707FF80
:101690000546042D10D1B01C0090200C0099088044
:1016A000E802FFF7FCFE05465448006941F6FE716A
:1016B00008405249086106E05048006941F6FE7151
:1016C00008404E490861284678BD70B504460D466D
:1016D0000426F002FFF7E3FE0646042E11D1474828
:1016E000006940F00100454908612580F002FFF7DC
:1016F000D6FE06464148006941F6FE7108403F4962
:101700000861304670BD70B505460E460424E002FF
:10171000FFF7C5FE0446042C17D1394837498860C5
:10172000384888600846006940F0100008612E8043
:10173000E002FFF7B4FE0446052C06D02F480069EE
:1017400041F6EF7108402D490861204670BD2DE932
:10175000F04304464FF6FF763746B046B1460425BF
:10176000E443E6B2C4F30727C4F307484FEA146919
:10177000E802FFF794FE0546042D49D120481F4991
:101780008860204888600846006940F010000861C1
:10179000FF2E06D01C4808300680E802FFF77FFEC7
:1017A0000546042D08D1FF2F06D017480A300780C0
:1017B000E802FFF774FE0546042D0AD1B8F1FF0FC9
:1017C00007D011480C30A0F80080E802FFF767FE50
:1017D0000546042D0AD1B9F1FF0F07D00A480E3093
:1017E000A0F80090E802FFF75AFE0546052D0FD03D
:1017F0000248006941F6EF71084007E0002002400E
:1018000023016745AB89EFCD00F8FF1F66490861EA
:101810002846BDE8F08330B5054604244FF4302057
:10182000FFF73DFE0446042C41D160485E498860C4
:101830005F4888600846006940F02000086108465B
:10184000006940F0400008614FF43020FFF727FEA8
:101850000446042C22D15448006941F6DF71084047
:10186000514908610846006940F0100008611DB147
:1018700000205049088002E0A5204E4908804FF41E
:101880003020FFF70CFE0446052C10D046480069B6
:1018900041F6EF7108404449086108E0052C06D084
:1018A0004148006941F6DF7108403F490861204620
:1018B00030BDF0B505460E46174604243B483A496C
:1018C00088603B488860E002FFF7E9FD0446042C8D
:1018D00019D13548006940F010003349086147F0DC
:1018E000F800304328433349891C0880E002FFF7A1
:1018F000D6FD0446052C06D02B48006941F6EF7151
:101900000840294908612046F0BD2748C069800881
:1019100070472548006A704700202349096801F094
:10192000200109B1012000E00020704729B11E4AC2
:10193000126902431C4B1A6104E01B4A126982437C
:10194000194B1A61704701460020012908D1164A37
:10195000D26902F001020AB1012008E0002006E08D
:10196000114AD2680A400AB1012000E00020704705
:101970000D49C860704704200B49C96801F0010196
:1019800009B101200EE00849C96801F0040109B15C
:10199000022007E00449C96801F0100109B10320E1
:1019A00000E004207047000000200240230167454A
:1019B000AB89EFCD00F8FF1F094880470948004771
:1019C000FEE7FEE7FEE7FEE7FEE7FEE7FEE7FEE7EF
:1019D000FEE7FEE704480549054A064B704700004C
:1019E00013030008ED0000085802002058080020EA
:1019F00058040020580400202DE9F043BDB00446EF
:101A00000D4616461F46DDF81491DDF8108164A0DE
:101A100065A1CDE9081907960A9067A06AA1CDE9EA
:101A20000415039406906BA06EA13B4670A2CDE90D
:101A30000018029075A10BA800F038FF0BA979A03F
:101A400000F028FF3DB0BDE8F0830EB54FF47A708A
:101A500000F088F900F0A6F900F0BEFC4FF4165033
:101A600000F089FB00F0E7F900F02AFD6EA10020EC
:101A700000F086FD70A1022000F082FD00F0C7FE9C
:101A800040B972A1042000F07BFD75A1062000F092
:101A900077FD03E076A1042000F072FD4FF47A7028
:101AA00000F060F97AE0774800680A2190FBF1F2D3
:101AB00001FB1200D0BB7449744800F07CFE7248F0
:101AC00000680A2190FBF1F0303084B222464821B0
:101AD000042000F00AFD6C4800680A2190FBF1F236
:101AE00001FB1200303084B222465021042000F065
:101AF000FCFC664800680A2190FBF1F0303084B2AB
:101B000022465821062000F0F0FC604800680A21B7
:101B100090FBF1F201FB1200303084B222466021CA
:101B2000062000F0E2FC0A2000F01CF9554800688D
:101B3000401C54490860554800685549086052489F
:101B4000006854490860084653A10268534800F0F1
:101B5000ADFE4F4850A10268514800F0A7FE51A0C9
:101B60004E4951A24E4BCDE90021029052A22BA129
:101B7000554800F09BFE434800684FF4FA7190FB13
:101B8000F1F201FB120048B94F4850A151A354A2F1
:101B9000CDE900105AA15CA0FFF72EFF83E70000FB
:101BA000227D0D0A00000000222C22746F706963F0
:101BB000266D7367223A2200222C2270617373779C
:101BC0006F7264223A220000222C22757365722201
:101BD0003A220000222C22736572766572223A2224
:101BE00000000000222C22706F7274223A22000042
:101BF0007B22777A223A227A686F75646F6E676803
:101C00007569222C226964223A220000257325730B
:101C10002573257325732573257325732573257304
:101C2000257325732573000020202020206F6E650A
:101C30006E6574202020200020202044485431313B
:101C400020544553542020200000000048756D6941
:101C5000646974793A2020202520202000000000AB
:101C600054656D706572617475723A20202043006E
:101C70004448543131494E4954204552524F522123
:101C80000000000038000020340000202C0000205C
:101C90002800002030000020256400003C000020C7
:101CA000440000205C227D005C222C5C2273686969
:101CB00064755C223A5C22007B5C2277656E6475F9
:101CC0005C223A5C220000005400002036303032A2
:101CD0000000000035333934313238383300000029
:101CE000796E4333704C4B72696A586757454A5A4C
:101CF000394F5041664B68793861673D00000000FC
:101D000032363637353700006D7174742E6865636E
:101D10006C6F7564732E636F6D000000704700BFB9
:101D2000FEE700BFFEE700BFFEE700BFFEE770472B
:101D300070477047704700EBC001C9004FF0E022C8
:101D40005161002191610521116100BF4FF0E02137
:101D5000096901F480310029F8D004214FF0E02214
:101D60001161704700B5034603E04FF47A70FFF746
:101D7000E2FF181EA3F101018BB2F6D100BD10B530
:101D8000044603E04FF47A70FFF7ECFF201EA4F145
:101D900001018CB2F6D110BD10B54FF4A060FEF772
:101DA00039FB10BD10B5FEF751FD4FF48030FEF742
:101DB0006DFDFEF7AAFD0446012C24D14FF4E0117D
:101DC0000004FEF7CBFD0020FEF7E5FDA002FEF7C4
:101DD000EBFD0020FEF7F1FD0220FFF70FFB1020C6
:101DE000FFF720FB0120FEF7C5FD00BF3920FEF7FD
:101DF00070FD0028FAD00220FEF7BFFD00BFFEF7FD
:101E0000C5FD0828FBD110BD08B501211C20FEF737
:101E10008BFE01214805FEF794FEC020ADF80000BE
:101E20001C208DF8030003208DF802006946B1489C
:101E3000FEF7BEFB08BD1FB5FFF7E6FF0020ADF8BB
:101E400004004BF6FF70ADF80600C020ADF80800A6
:101E50004FF48060ADF80A000001ADF80C00A64810
:101E600000906946A548FFF7E0F80121A348FFF775
:101E70005AF91FBD2DE9F04105460F4614461E468E
:101E800001219E48FFF773F900BF9D499B48FFF76A
:101E90004FFA0028F9D0002229469848FFF7BDF9EB
:101EA00000BF98499548FFF743FA0028F9D0394612
:101EB0009248FFF7ACF900BF9249891C8F48FFF7A1
:101EC00037FA0028F8D00CE021788C48FFF79FF90A
:101ED000641C00BF8B49891C8848FFF729FA002839
:101EE000F8D0301EA6F101018EB2EDD10121834858
:101EF000FFF749F9BDE8F08170B504460E46154676
:101F000001217E48FFF733F900BF7D497B48FFF789
:101F10000FFA0028F9D0002221467848FFF77DF912
:101F200000BF78497548FFF703FA0028F9D0314619
:101F30007248FFF76CF900BF7249891C6F48FFF7C0
:101F4000F7F90028F8D029466C48FFF760F900BF80
:101F50006C49891C6948FFF7EBF90028F8D001218A
:101F60006648FFF710F970BD2DE9F04106460F46AF
:101F700015461C4600BF4FF400316048FFF7FAF9E0
:101F80000028F8D101215D48FFF7F1F800BF5C4956
:101F90005A48FFF7CDF90028F9D0002231465748BA
:101FA000FFF73BF900BF57495448FFF7C1F9002834
:101FB000F9D001215148FFF7B6F839464F48FFF7ED
:101FC00026F900BF4F49891C4C48FFF7B1F900289A
:101FD000F8D001214948FFF7CAF800BF48494748EF
:101FE000FFF7A6F90028F9D0012231464348FFF750
:101FF00014F900BF4249491C4048FFF799F90028ED
:10200000F8D016E0012C07D100213C48FFF7C7F8B3
:1020100001213A48FFF7B7F839493F313748FFF710
:1020200087F930B13548FFF7F4F828706D1C601E51
:1020300084B2002CE6D101213048FFF7B0F8BDE8AA
:10204000F08170B504460D4600BF4FF400312B48B7
:10205000FFF790F90028F8D101212848FFF787F809
:1020600000BF27492548FFF763F90028F9D000226F
:1020700021462248FFF7D1F800BF22491F48FFF749
:1020800057F90028F9D001211C48FFF74CF82946E0
:102090001A48FFF7BCF800BF1A49891C1748FFF718
:1020A00047F90028F8D001211448FFF760F800BF75
:1020B00013491248FFF73CF90028F9D001222146C4
:1020C0000E48FFF7AAF800BF0D49491C0B48FFF75F
:1020D0002FF90028F8D000210848FFF760F8012107
:1020E0000648FFF750F80548FFF793F806463046D4
:1020F00070BD0000000C0140400D03000054004082
:10210000010003008200070000BF704700BFAA4A19
:10211000128802F04002002AF9D0C2B2A64B1B1D61
:102120001A8070470FB410B5B4B0002437A80090DF
:10213000C92101A8009B369A00F092FB0EE02046D0
:10214000621CD4B201AA115C9B48FEF78DFE00BF51
:1021500040219948FEF7F6FE0028F9D0C82C04DA91
:1021600001A800F0E3FCA042E9D80020009034B0C0
:1021700010BC5DF814FB10B586B00446012144F292
:102180000400FEF7D1FC4FF40070ADF814000320FA
:102190008DF8160018208DF8170005A98748FEF75E
:1021A00007FA4FF48060ADF8140004208DF8170092
:1021B00005A98248FEF7FCF925208DF800000320D0
:1021C0008DF801008DF8020001208DF803006846AB
:1021D000FEF725F901940020ADF80800ADF80A00DB
:1021E000ADF80C00ADF810000C20ADF80E0001A900
:1021F0007148FEF740FD002240F225516E48FEF77F
:10220000D2FD01216C48FEF7C2FD06B010BD10B52D
:1022100040F225516848FEF7ABFE002838D06648EA
:10222000FEF726FEC4B2214665A000F033FB6548E8
:10223000008800F4004058BB6248008800F48040E9
:1022400060B10A2C03D000205E49088020E05D4880
:10225000008840F400405B49088019E00D2C06D14D
:102260005848008840F480405649088010E055489E
:102270000088C0F30D0054490C5452480088401C9B
:102280005049088008460088C72801DD00200880E2
:1022900010BD0FB410B5B4B0002437A80090C92108
:1022A00001A8009B369A00F0DBFA0EE02046621C83
:1022B000D4B201AA115C4548FEF7D6FD00BF40210B
:1022C0004248FEF73FFE0028F9D0C82C04DA01A8E6
:1022D00000F02CFCA042E9D80020009034B010BCE3
:1022E0005DF814FB10B586B0044601210820FEF706
:1022F0001BFC01218804FEF724FC4FF40060ADF8BC
:10230000140004208DF8170005A93148FEF750F994
:102310004FF48060ADF8140003208DF816001820EB
:102320008DF8170005A92A48FEF742F94FF4E0603E
:10233000FEF770F827208DF8000001208DF80100CD
:102340008DF802008DF803006846FEF768F80194E6
:102350000020ADF80800ADF80A00ADF80C00ADF8AB
:1023600010000C20ADF80E0001A91848FEF783FC00
:10237000012240F225511548FEF715FD01211348B1
:10238000FEF705FD06B010BD10B540F225510F480F
:10239000FEF7EEFD70B10D48FEF76AFDC4B2532C96
:1023A00003D101200B49088004E04B2C02D102200C
:1023B0000849088010BD00000038014000080140B5
:1023C0002563000050000020680000200048004005
:1023D000000C01405200002008B501217C20FEF7CE
:1023E000A3FB01210846FEF79FFB4FF4C040ADF868
:1023F000000010208DF8030003208DF802006946CC
:102400000F48FEF7D5F801210E48FEF7A2F94FF468
:10241000C0410B48FEF77BF908BD10B504462246C3
:102420004FF480410648FEF774F910BD10B504461C
:1024300022464FF400510248FEF76BF910BD000030
:10244000000801400004300000B587B01C228FA1B5
:10245000684600F08AFB1C236A4600217820FFF7BB
:1024600009FD07B000BD70B5B0241BE02246002175
:102470007820FFF741FD102200217820FFF73CFD76
:10248000002211467820FFF737FD002506E00022E4
:1024900040217820FFF730FD681CC5B2842DF6DBA3
:1024A000601CC4B2B82CE1DB70BD08B57EA000682A
:1024B000009003236A4600217820FFF7DBFC08BD6B
:1024C00010B5FFF7F2FFFFF7CEFFFFF7BDFF10BD1E
:1024D00010B50446812200217820FFF70DFD224629
:1024E00000217820FFF708FD10BD2DE9F0470546D3
:1024F0000C4616464FF0000AA01CC4B2D1463AE082
:1025000005F1B000C2B200217820FFF7F5FC2746A4
:10251000E01704EB107000111030C2B200217820D7
:10252000FFF7EAFCE01704EB10700011A4EB0010B9
:10253000C2B200217820FFF7DFFC4FF0000811E065
:102540000AEB0610A0F5007058490A5C402178207B
:10255000FFF7D2FC0AF1010000F0FF0A08F10100C8
:1025600000F0FF08B8F1080FEADB681CC5B209F1FA
:10257000010000F0FF09B9F1020FC1DBBDE8F087EF
:1025800070B506460C46002508E014F8012BE80655
:10259000010E3046FFF7A9FF681CC5B2207800285D
:1025A000F3D170BD2DE9F04705460C4616464FF0B5
:1025B000000AD14638E005F1B000C2B2002178200F
:1025C000FFF79AFC2746E01704EB1070001110305B
:1025D000C2B200217820FFF78FFCE01704EB1070E7
:1025E0000011A4EB0010C2B200217820FFF784FC98
:1025F0004FF000080FE00AEB46102D490A5C40211D
:102600007820FFF779FC0AF1010000F0FF0A08F1D9
:10261000010000F0FF08B8F1100FECDB681CC5B238
:1026200009F1010000F0FF09B9F1020FC3DBAF228D
:1026300000217820FFF760FCBDE8F08770B500242A
:1026400020E004F1B000C2B200217820FFF754FC72
:10265000102200217820FFF74FFC02220021782071
:10266000FFF74AFC002509E005EBC41011490A5C9C
:1026700040217820FFF740FC681CC5B2802DF3DBB9
:10268000601CC4B2082CDCDB70BD0000AE0010D5AD
:1026900080A83FD300B0408D14A1C8DA1281FFD9C1
:1026A000F1DB302000A4A6AFAE8D10007842000808
:1026B00078480008F848000810B56448006820F41D
:1026C0007040624908600846006840F44050086065
:1026D00000205F4908601420FFF744FB01205D499A
:1026E000C1F8AC011E20FFF726FB10BD10B5002479
:1026F0005648006820F47040544908600846006855
:1027000040F40040086004E0601CC4B20120FFF700
:1027100012FB4F488038006808B1642CF4DB642C4D
:1027200001DB012010BD002404E0601CC4B20120C4
:10273000FFF701FB46488038006808B9642CF4DBD9
:10274000642C01DB0120EDE70020EBE710B500244D
:1027500004E0601CC4B20120FFF7EDFA3C48803869
:10276000006808B1642CF4DB002404E0601CC4B2EF
:102770000120FFF7E0FA36488038006808B9642C79
:10278000F4DB2820FFF7D7FA31488038006808B119
:10279000012010BD0020FCE770B50024002506E0F4
:1027A0006006040EFFF7D2FF0443681CC5B2082D73
:1027B000F6DB204670BD7CB505460E46FFF77CFF74
:1027C000FFF794FFF8B9002405E0FFF7E5FF0DF8E7
:1027D0000400601CC4B2052CF7DB9DF800009DF8D6
:1027E000011008449DF8021008449DF803100844A5
:1027F0009DF80410884208D19DF8000030609DF8D3
:102800000200286001E001207CBD0020FCE708B543
:1028100001210420FEF788F94FF40060ADF80000B4
:1028200010208DF8030003208DF8020069460A4845
:10283000FDF7BEFE4FF400610448001FFDF765FF81
:10284000FFF73AFFFFF752FF08BD00000408014000
:10285000AC012142000021420020014070470000ED
:102860007CB51D4616460C00009001D02044401E49
:10287000074B7B442A4669460190304600F057FAE0
:1028800005461CB10020694600F064FA28467CBD6C
:10289000E90400000FB4044910B503AA029800F03F
:1028A0007DFA10BC5DF814FB4C0000200FB41CB581
:1028B000084B06AA7B4469460090059800F037FA59
:1028C00004460020694600F045FA20461CBC5DF82D
:1028D00014FB00009D04000070B50C460546012A5B
:1028E00005D02878800600D5EA69002302E001239C
:1028F00005E05B1C934202D2E05C0028F9D1A86994
:10290000E618C01AA861286A18442862284600F010
:1029100062F904E0D5E9012114F8010B9047B442B3
:10292000F8D3284600F06DF970BD00002DE9F041A4
:102930000646002410687529314616A510D000F00F
:1029400071F9002802DA404213A507E031688A07CE
:1029500001D512A502E0490704D511A5012401E023
:1029600000F069F900210A2206F1240709E0B0FB12
:10297000F2FCB0FBF2F302FB1C0030307854184636
:10298000491C0028F3D123462A463046BDE8F041D1
:1029900000F05AB9000000002D0000002B000000DC
:1029A000200000002DE9F05F894604464FF0000A40
:1029B000DFF874B1FB44C0F820A02046E1688847E6
:1029C000002874D0252806D0D4E901219047206A38
:1029D000401C2062F1E700265F462046E1688847F8
:1029E0002028054607DB312D05D2781910F8200C78
:1029F00008B10643F1E7B00701D526F00406C4F894
:102A00001CA00027C4F818A02A2D09D0284601F0E0
:102A1000FCFB38B304EB8708303DC8F8185019E0C8
:102A200059F8041B204604EB87029161E16888474E
:102A3000012F054618D1E069002820DA26F020068B
:102A40001DE0D8F8180000EB800005EB400030389E
:102A5000C8F818002046E1688847054601F0D5FB14
:102A60000028EED1012F0AD02E2D08D12046E16892
:102A700088477F1C0546022F46F02006C4DBA0696C
:102A8000002803DA404246F00106A061F00701D0B9
:102A900026F010066C2D0BD0682D09D04C2D39D0A6
:102AA0006A2D35D0742D35D07A2D33D016E038E02C
:102AB000E1682F4620468847B842054609D16C2F69
:102AC00026D04FF48060E1680643204688470546DB
:102AD00004E06C2F1AD04FF4807006430DB3A5F1BB
:102AE0004100192802D8203546F400664A46294696
:102AF000204626604E46FDF733FB80B101280BD0FF
:102B0000F61D26F0070000F1080956E74020E4E72B
:102B10008020D8E70020D6E706F104094DE72846D3
:102B200052E7206ABDE8F09F4023000010B5431C27
:102B300002E010F8011B71B18107FAD14FF00132A8
:102B400002C88C1A8C4314EAC211F9D0C01A0A06C2
:102B500003D0C01E10BDC01A10BD0A0401D0801ED3
:102B600010BD0902FCD0401E10BD10B5203AC0F0C7
:102B70000B80B1E81850203AA0E81850B1E818507E
:102B8000A0E81850BFF4F5AF5FEA027C24BFB1E8BB
:102B90001850A0E8185044BF18C918C0BDE810402C
:102BA0005FEA827C24BF51F8043B40F8043B08BF35
:102BB0007047D20728BF31F8023B48BF11F8012BFC
:102BC00028BF20F8023B48BF00F8012B7047704730
:102BD00070477047704770B5044685690068C10644
:102BE00001D5302600E02026C00707D070BDD4E90B
:102BF000012130469047206A401C20626D1EF6D5A8
:102C000070BD70B5044685690078C00707D170BDF6
:102C1000D4E9012120209047206A401C20626D1ECB
:102C2000F6D570BD09684A0501D540B27047C9059F
:102C3000FCD500B2704709684A0501D5C0B270479B
:102C4000C905FCD580B270472DE9F0470D4699467D
:102C50009246044600F124080168880604D5E0691C
:102C600021F01001216000E00120A84201DD471B96
:102C700000E00027A1697A1902EB0900081AA06197
:102C80002078C00602D42046FFF7A5FF002608E002
:102C9000D4E901211AF806009047206A401C761CEE
:102CA00020624E45F4DB2078C0060AD52046FFF7A7
:102CB00092FF06E0D4E9012130209047206A401CB1
:102CC0002062381EA7F10107F4DC07E0D4E90121F6
:102CD00018F805009047206A401C2062281EA5F1C4
:102CE0000105F3DC2046FFF78CFF2078000602D5B3
:102CF0000220BDE8F0870120FBE711680268006A46
:102D0000530501D508700AE0D30501D5088006E017
:102D1000130603D5C217C1E9000200E008600120D4
:102D20007047000001694A1C02610878704700B5CD
:102D30008FB0CDE901310021059105497944CDE9F4
:102D4000031011466846FFF72DFE0FB000BD0000CE
:102D5000E5FFFFFF0A6802F8010B0A607047D1E93E
:102D600000239A4202D2531C0B601070704710B5BA
:102D7000436913B1AFF3008001E0FFF7ADFD01201F
:102D800010BD127800F124010A7000224A7001225D
:102D9000EDE711684FF0FF32E9E70000074B70B52F
:102DA0000D467B44FFF7C3FF0446284600F00CFDA8
:102DB00010B14FF0FF3070BD204670BD67F3FFFFCC
:102DC0002DE9FF5F15468A460446DFF8AC80F844DB
:102DD0000027D8E900103E46CDE9001010E03AF88F
:102DE00016106A4602A800F0F3FC411C07D02178B7
:102DF000890603D5E269391891420DD80744761C3B
:102E00002078800602D5E069B84205DDAE42E6DBF7
:102E10003AF816000028E2D1A069C01BA061204644
:102E2000FFF7D9FED8E90010CDE90010002017E027
:102E30003AF818106A4602A800F0CAFCB0F1FF3F49
:102E400081460BD000250DF1080B05E0D4E90121E6
:102E50001BF8050090476D1C4D45F7D308F10100A4
:102E6000B0428046E4DB206A384420622046FFF707
:102E7000C8FEBDE8FF9F00003A1F00002DE9F041A9
:102E80008046D21D22F007020025D2E90002F52972
:102E900015A614D0011E72F1000106DA0023D0EB52
:102EA000030063EB020211A608E0D8F800108B07BC
:102EB00001D50FA602E0490701D50EA6012511464E
:102EC000002408F1240704E000F098F830323A5565
:102ED000641C50EA0102F7D12B4632462146404697
:102EE000BDE8F041FFF7B0BE000000002D0000007B
:102EF0002B0000002000000030B4002100F1240469
:102F000008E002F00705D208303542EA4372DB08D8
:102F10006554491C52EA0305F3D10468002310A24A
:102F2000250707D5A40600D421B1C46901230DA249
:102F3000641EC46130BCFFF787BE10B5044621464D
:102F40001068FFF778FE02462046BDE810400023D7
:102F5000D2E7D21D22F00701D1E90023CCE700001F
:102F60000000000030000000F0B40D4601880905A3
:102F700002D5214C7C4402E01F4C7C440E340021DD
:102F800000F1240608E002F00F071209E75D42EAAB
:102F900003721B097754491C52EA0307F3D10278E4
:102FA0000023120704D5702D06D009B10223113475
:102FB0002246F0BCFFF748BE01231034F8E770B595
:102FC00004460D4621461068FFF735FE02462946A5
:102FD0002046BDE870400023C6E7D21D22F007035B
:102FE000D3E90023C0E70368126843F020030360BD
:102FF0000823C3610023B7E79C1D000030B5B0F182
:103000000A024FEA900E71F100034EEA817EB0EBA6
:103010000E0061EB91014FEA101E4EEA017E10EBAB
:103020000E0041EB11114FEA102E4EEA016E10EB2B
:103030000E0041EB11214FEA104E4EEA014E10EB0B
:103040000E0041EB1141401841F100014FEAD00060
:1030500040EA41704FEAD10110EB80054FEA81044C
:1030600044EA907444EB01046D1944EB0404521BD0
:10307000A3414FF0000348BF0A3200D530BD401CC9
:1030800041F1000130BD70472DE9FF4F0C461E464F
:103090004FF0FF378BB0D2E90001DDF860800A9075
:1030A0008A46C1F30A5505B93D46002108464FF04E
:1030B0000000BAF1000F00F4400005DA00EB8000D8
:1030C0004FF4400101EA50004FEA9059B9F1010F65
:1030D00000DDB9460A9850EA4A000ED044F6105076
:1030E000A5F2FF3545432F14B8F1000F1ED07542ED
:1030F000291E1EDDC9F100021CE0B8F1010F4FF0DE
:10310000000001D0302103E0F24305E02154401CCF
:10311000B042FBDB30460022002121540B99C1F85C
:103120000880C1E900200FB0BDE8F08FBD1B6D1C09
:10313000DEE74A4600DA694206A800F0DBFB06AB90
:1031400093E8070003AB83E8070050460A9900F0B4
:103150008DFC8DE80700A0F500501F380090039803
:10316000002D09DD42F21F014A46084403A90390DD
:10317000684600F0ECFE08E0A0F500504A461F3813
:1031800003A90390684600F0F6FE8DE807000004EE
:10319000000C03D04FF0FF30410800E01046B8F1BA
:1031A000000F03D00022009215461EE0751E05D4C4
:1031B000FFF724FF303262556D1EF9D5B346012268
:1031C000084302D000227F1C04E02078302801D17F
:1031D00000227F1E002A099786D01DE0112D07DAF4
:1031E000FFF70CFF303262556D1C50EA0102F5D139
:1031F000084302D00098C8B10EE00021681E05E027
:10320000235C625C63542254401E491C8142F7DBFC
:10321000AB46A81B401E0990002004F80B000B9839
:10322000099AC0F80880C0E9002B7CE711264FF00E
:10323000000859E72DE9F04F88460446D21D22F0D8
:10324000070191B0D1E90001CDE90A0100F0C9FF01
:1032500002460B98C00F01D02D2007E0206881079F
:1032600001D52B2002E0202101EAC000032A0990A9
:1032700001D0072A05DB03464146204600F0FAFA52
:103280000BE12078800601D5E06900E00620B8F166
:10329000650F814606D0B8F1660F18D0B8F1670FF8
:1032A00070D131E00020B9F1110F009001DB112342
:1032B00001E009F101030AAA01A90CA8FFF7E4FE45
:1032C000DDE90C70002609F10105834647E0012085
:1032D0004B4600904FF000470AAA01A90CA8FFF73F
:1032E000D3FEDDE90DB00C995D46002610B909F159
:1032F00001000D18B9EB050003D4C0F1FF3609F148
:103300000105A5EB09002BE0B9F1010F01DA4FF03F
:1033100001090020B9F1110F0090484601DD112389
:1033200000E003460AAA01A90CA8FFF7ADFEDDE9FB
:103330000C704D4600268346207800070AD4AB4522
:1033400000DA5D4601A8012D04DD411911F8011CC8
:10335000302907D04F4502DA17F1040F04DA0120B3
:1033600082460FE06D1EEEE7002F02DCED1B3E44AF
:1033700003E0781CA84200DD7D1CB81B00F1010AA7
:103380004FF000472078000703D4AA4501DB4FF037
:10339000FF3A0021B7F1004F0DF143088DF84310BB
:1033A00024D002202B23002F01DA7F422D230A2173
:1033B000021EA0F1010000DC5FB197FBF1FC97FB5E
:1033C000F1F201FB1C7C17460CF1300C08F801CD22
:1033D000EEE7A8F1010003702188090501D5452118
:1033E00000E06521A0F1010800F8011C09980FA96F
:1033F000A1EB0807FF1D00B10120411901EBEA70A4
:10340000A1693844081A401EA0612078C00602D481
:103410002046FFF7E0FB099828B1D4E90121904745
:10342000206A401C20622078C00622D52046FFF783
:10343000D2FB1EE0002E04DBB34502DD01A8805D57
:1034400000E03020D4E901219047206A401C20622E
:10345000761CAAF101005FEA000A0AD100F006FA20
:10346000C0680168405CD4E901219047206A401C93
:103470002062281EA5F10105DCDC07E0D4E901216A
:1034800018F8010B9047206A401C2062381EA7F1F3
:103490000107F3DC2046FFF7B4FB032011B043E63D
:1034A0002DE9F04F04460D46D21D22F0070089B0E9
:1034B000D0E900974846394600F093FE0246F80FDF
:1034C00001D02D2307E02068810701D52B2302E0DE
:1034D000202101EAC0038DF820300BB1012000E06B
:1034E0000020032A824601D0072A04DB2946204611
:1034F00000F0C0F93FE12078800601D40D2500E0FE
:10350000E569C7F30A560D2D49DA00214FEA175B2A
:1035100008464FF00000002F00F4400007DA00EBEF
:1035200080004FF4400100EBD07001EA600081158B
:10353000012901DD4FF0FF3100224FEA850CBCF17B
:10354000180F06D31346ACF118004FF08052C2405A
:1035500003E04FF4801323FA0CF30CF10C0CBCF1D4
:10356000200F04D3ACF1200C09FA0CF001E007FAAB
:103570000CF000294FF0004801DD18B90FE00ED122
:1035800040450CD319EB02095F4121B9404502D1F6
:103590009F4329EA0209BBEB175F00D0761C208805
:1035A000000502D57B48784402E07A48784419380F
:1035B00008AA302302F80A30037C0AF10101002E28
:1035C0000AF1020A53546A4602DC4FF0300101E06E
:1035D0004FF031014FF001088DF8001002D0A6F233
:1035E000FF3603E059EA470100D06B4E002D02DCA4
:1035F0002178090704D54FF002082E218DF801101B
:10360000C44600210BE0C7F303433F01C35C491CE0
:103610006D1E02F80830052908F1010801DA002DB5
:10362000F1DC00210CE000EB1973491C1B786D1EC6
:10363000082902F808304FEA091908F1010801DAEF
:10364000002DF0DC21688B0602D516E0A8F10108F8
:10365000E04505DD02EB080313F8013C302BF5D003
:10366000B8F1000F09DD02EB080313F8013C2E2B23
:1036700003D1090701D4A8F10108002D05DD3E2181
:1036800002F808106D1E08F10108407C002E02F8B7
:10369000080008F1010804DA2D20764202F808003B
:1036A00002E02B2002F808000A214FF47A708642CB
:1036B00008F101080BDB96FBF0F3303302F8083019
:1036C00096FBF0F308F1010800FB136601E0642E9D
:1036D0000CDB642096FBF0F3303302F8083096FBE5
:1036E000F0F308F1010800FB136601E00A2E06DB87
:1036F00096FBF1F0303002F8080008F1010896FB63
:10370000F1F001FB1060303002F80800A16908F107
:10371000010808EB050202EB0A00081AA0612078F4
:10372000C00602D42046FFF756FA216A08AE01EB24
:103730000A00206204E0D4E9012116F8010B904749
:10374000BAF1010AF7D22078C00602D52046FFF769
:1037500042FA6E4609E016F8010B3E280FD0D4E974
:1037600001219047206A401C2062B8F10108F2D282
:103770002046FFF746FA09B00320BDE8F08F206A23
:103780002844206203E0D4E90121302090476D1ED7
:10379000EBD3F8E7A517000002FCFFFF10B5436963
:1037A00013B1AFF3008001E0FFF70AFB012010BD69
:1037B000128800F1240182840022C2840122EDE7F4
:1037C00011684FF0FF32E9E7007B00F0800070479E
:1037D00070B516460C46054600F040F8036893F8AD
:1037E0000101012806D0FF2C0FD8185D68B1012017
:1037F0002C7070BDD3F807013246214603F207133F
:1038000003442846BDE8704018474FF0FF3070BDB4
:10381000754600F0E7F8AE4605006946534620F0CD
:103820000700854618B020B5FEF7D4F8BDE8204063
:103830004FF000064FF000074FF000084FF0000B6C
:1038400021F00701AC46ACE8C009ACE8C009ACE81F
:10385000C009ACE8C0098D467047000010B500F003
:1038600005F8001D10BD00BFDD09000000487047CD
:10387000180200202DE9F0411F4604460326016886
:10388000072A01F4006004DB08B116A505E016A5BF
:1038900003E008B115A500E015A521F01000206097
:1038A000A069C01EA0610FB1401EA0612046FFF7B5
:1038B00092F94FB1D4E9012138469047206A401C63
:1038C0002062C01C206206E0206AFAE7D4E90121E8
:1038D00015F8010B9047761EF8D22046FFF791F9B4
:1038E000BDE8F0814E414E006E616E00494E4600CB
:1038F000696E66002DE9F047814616468AB0334866
:1039000078440DC88DE80D0030487844801C03AC25
:103910000DC884E80D0041F69B300844372190FB28
:10392000F1F290FBF1F5A5F1800501FB12041B3CBF
:1039300002D56442012000E00020DFF890A080461C
:103940000027FA44AAF1BE0A0DE0E00709D032468A
:10395000684607EB47010AEB810100F00CFB8DE89C
:10396000070064107F1C002CEFD1184F7F44AC3F40
:1039700018E0E80714D007EB04100DF1180A90E8DE
:103980000E008AE80E00C068F04201D19819089034
:10399000324606A903A800F0EEFA03AB83E807005D
:1039A0006D10641C002DE4D132466946B8F1000F59
:1039B00003A802D000F0CBFA01E000F0DCFAC9E97C
:1039C0000001C9F808200AB0BDE8F087DC14000047
:1039D00010B50446AFF300802046BDE81040FCF768
:1039E00022BC000000487047F80100204FF0013C65
:1039F00050F8042B51F8043B9A4221D1A2EB0C035E
:103A0000934313EACC1317D150F8042B51F8043B1D
:103A10009A4215D1A2EB0C03934313EACC130BD1BA
:103A200050F8042B51F8043B9A4209D1A2EB0C0345
:103A3000934313EACC13DBD04FF00000704700BF74
:103A4000D01A01BAB1FA81F101F0180122FA01F09D
:103A5000CB40C1F12001DBB2C0B2C01A2CFA01F395
:103A6000D11A914311EAC311E6D170475FEA400CC5
:103A700008BF91F0000F4FEA8C234FEAC12243EABE
:103A800051514FEA1C5018BF00F5F0404FEA30008A
:103A900018BF41F000415FEA6C5C00F02980BCF186
:103AA000FF3F08BF40F080407047130C06BF120470
:103AB0004FF0100C4FF0000C130E04BF12020CF16B
:103AC000080C130F04BF12010CF1040C930F04BF78
:103AD00092000CF1020CD30F04BF52000CF1010C48
:103AE00011464FF00002A0F11F00A0EB0C00704740
:103AF00011F0004F08BF704731F000413FF4D5AFDF
:103B00000B0C06BF09044FF0100C4FF0000C0B0E0D
:103B100004BF09020CF1080C0B0F04BF09010CF1E2
:103B2000040C8B0F04BF89000CF1020CCB0F04BFF7
:103B300049000CF1010CCCF12003A0EB0C0022FA9F
:103B400003F302FA0CF241EA030100F101007047AD
:103B500020F07F4C80EA030023F07F47ACEB0703A3
:103B600003F57C5300F0004003F1FF032DE9804989
:103B70004FEA154B09B44FEA144325EA0B4E24EAE9
:103B800003480FF2042606EB132749083E785FEA44
:103B9000320203FB0667C7F5000707FB06F64FEA8C
:103BA00054374FEAD64606F1020607FB066CCCF105
:103BB000005C4FEA1C472CEA074C07FB06F40CFBA1
:103BC00006F504EB15464FEA961634BF00204FF079
:103BD00000404FEAD13706FB07FC4FEA1C4C0CFBB8
:103BE0000BF7D21B03FB0CF761EB07010CFB0EF785
:103BF000B0EB074072EB17420CFB08F734BFA2EBA7
:103C00000742B2EB074261EB17414FEA0C444FEA1F
:103C1000910706FB07FC4FEA1C4C0CFB0BF7B0EBC3
:103C2000C74072EB573203FB0CF734BFA2EBC7421D
:103C3000B2EBC74261EB57310CFB0EF7B0EBC7009C
:103C400072EB57720CFB08F734BFA2EBC702B2EB62
:103C5000C70261EB5771039F4FEA816141EA9211FC
:103C600004EBCC044FEAD1374FEA826206FB07FC33
:103C700042EA90124FEA80604FEA1C4C0CFB0BF7B3
:103C8000D21B03FB0CF761EB07010CFB0EF7B0EB4B
:103C9000074072EB17420CFB08F734BFA2EB074258
:103CA000B2EB074261EB17414FEA8C554FEA91079F
:103CB00004EB9C2406FB07FC4FEA1C4C0CFB0BF7A7
:103CC000B0EBC74072EB573203FB0CF734BFA2EBEB
:103CD000C742B2EBC74261EB57310CFB0EF7B0EBBA
:103CE000C70072EB57720CFB08F734BFA2EBC70298
:103CF000B2EBC70261EB577115EB4C254FEA8161BE
:103D000041EA92114FEA82624FEAD13742EA9012B9
:103D100006FB07FC44F100044FEA80604FEA1C4CAC
:103D20000CFB0BF7D21B03FB0CF761EB07010CFB41
:103D30000EF7B0EB074072EB17420CFB08F734BFED
:103D4000A2EB0742B2EB074261EB174115EB1C15E2
:103D50004FEA813141EA92414FEA823242EA90428F
:103D60004FEA80304FEA0C7644F1000448EA0343FE
:103D70004EEA0B484FF0000EB2EB080C71EB030754
:103D800024BF624639464EEB0E0E4FF0000B001872
:103D9000524149414BEB0B0BB2EB080C71EB0307A3
:103DA0007BF1000B24BF624639464EEB0E0E4FF0FE
:103DB000000B0018524149414BEB0B0BB2EB080CC6
:103DC00071EB03077BF1000B24BF624639464EEBD3
:103DD0000E0E51EA020718BF46F0010616EB0E76EA
:103DE00055F1000254F1000103D5BDE88901BDE899
:103DF0000088BDE88901BDE80048B619524141EB91
:103E00000101A3F10103704780807F7E7D7C7B7A76
:103E10007978777676757473727171706F6E6E6D76
:103E20006C6C6B6A6A69686867666665646463631C
:103E300062616160605F5F5E5E5D5D5C5C5B5B5AA2
:103E40005A5959585857575656555555545453530F
:103E500052525251515050504F4F4F4E4E4D4D4D6A
:103E60004C4C4C4B4B4B4A4A4A49494948484847B5
:103E700047474746464645454544444444434343F3
:103E80004342424242414141002B26D4770021D097
:103E90001CB54FEA370703B44FF010004FF0100184
:103EA0004FF000000FBCBDE810400BF1010BBBF15F
:103EB000010F08BF5FEA170722BF12F1010211F1DB
:103EC00001014FF0004143F1000300F0004043EADC
:103ED00000007047F9D35708DAE746EA064613F1BF
:103EE000400F4FEA16461FDD13F1200FDFBF1643C8
:103EF0000A46002120335B42C8D0C3F1200746EABE
:103F0000064602FA07F74FEA164646EA0706C3F1E5
:103F1000200722FA03F201FA07F721FA03F14FF022
:103F2000000342EA0702B1E746EA020646EA06460D
:103F30004FEA164646EA0106BCBF46EA0646360C7C
:103F40004FF000034FF000024FF000019EE72DE913
:103F5000C048934630B491E8380007C831EA400CB5
:103F600048BF34EA430C03D5FFF7F2FDFFF78CFF9F
:103F7000F0BCBDE800882DE9C048934630B491E814
:103F8000380007C810F0804F08BF13F0804F03D1EE
:103F900000F005F8FFF778FFF0BCBDE8008820F0DE
:103FA0007F4780EA030023F07F4C07EB0C03A3F567
:103FB0007C5300F00040A3F1FE0392F0000F00F0EC
:103FC000B38095F0000F00F077802DE901494FEAAA
:103FD00011404FEA144621EA004800FB06FC24EA9F
:103FE000064708FB06F607FB08F800FB07F718EB87
:103FF00006484CEB164C4FEA124B18EB07484FEAB9
:1040000015464CEB174022EA0B4E0BFB06FC25EA4B
:1040100006470EFB06F607FB0EFE0BFB07F71EEB33
:10402000064E4CEB164C4FF000061EEB074E4CEBC9
:10403000174B18EB0B0840F1000018EB0E0B58EB78
:10404000000840F100008F1A4FF000013CBFC94347
:10405000661B14BFB5EB040C00213CBFC943F61B23
:104060004FEA17444EEA8E0E27EA04454FEA1C47F2
:1040700004FB07622CEA074C05FB07F70CFB05F66F
:1040800004FB0CFC16EB074642EB174216EB0C4602
:1040900042EB1C421BEB060658EB0202414146EA8A
:1040A0009E0601D5BDE80189B619524141EB0101D7
:1040B000A3F10103BDE801894FEA14454FEA114716
:1040C00024EA054621EA074C05FB07F406FB07F73F
:1040D0000CFB06F105FB0CFC11EB074144EB17440C
:1040E0004FEA124711EB0C4144EB1C4422EA074C07
:1040F00005FB07F206FB07F70CFB06F605FB0CFCBD
:1041000016EB074642EB174216EB0C4642EB1C45FA
:104110006A1854F1000148BF7047B619524141EB8B
:104120000101A3F10103704795F0000F37D04FEA6A
:1041300011424FEA144721EA024624EA074C02FBE7
:1041400007F106FB07F70CFB06F402FB0CFC14EB73
:10415000074441EB17414FEA154714EB0C4441EB80
:104160001C4125EA074C02FB07F506FB07F70CFB91
:1041700006F602FB0CFC16EB074645EB174516EB63
:104180000C4645EB1C42121951F1000148BF704723
:10419000B619524141EB0101A3F1010370474FEA07
:1041A00014454FEA114724EA054621EA074C05FB6E
:1041B00007F106FB07F70CFB06F24FF0000605FBC4
:1041C0000CFC12EB074241EB174112EB0C4251EB96
:1041D0001C4148BF7047921841EB0101A3F1010354
:1041E0007047490050EAC12018BF04204A0D18BF8B
:1041F00040F0010040F2FF72B2EB515F08BF40F0A7
:104200000200012808BF0520704730380A2801D273
:10421000012070470020704710B500290AD00878A7
:10422000002807D005487844FFF7E0FB002801D0BC
:10423000002010BD0248784410BD0000F20B0000C1
:10424000EA0B000010B500290AD00878002807D032
:1042500005487844FFF7CAFB002801D0002010BDB4
:104260000248784410BD0000E20B0000DA0B0000A9
:10427000FEF7E0BFFFF714B90000000000000000E7
:104280000000000000000000000038FCFC380000C6
:104290000000000D0D000000000E1E00001E0E00AC
:1042A000000000000000000020F8F820F8F82000CE
:1042B000020F0F020F0F0200387C444747CC9800D2
:1042C0000306041C1C07030030300080C06030006F
:1042D0000C060301000C0C0080D87CE4BCD8400024
:1042E000070F0808070F080000101E0E000000004E
:1042F00000000000000000000000F0F80C040000C6
:10430000000003070C0800000000040CF8F0000097
:104310000000080C0703000080A0E0C0C0E0A080FF
:104320000002030101030200008080E0E0808000C1
:104330000000000303000000000000000000000077
:104340000000101E0E0000008080808080808000B1
:10435000000000000000000000000000000000005D
:104360000000000C0C00000000000080C060300065
:104370000C06030100000000F8FC04C424FCF80053
:10438000070F0908080F0700001018FCFC000000C8
:104390000008080F0F080800080C84C4643C1800CB
:1043A0000E0F0908080C0C00080C444444FCB8002B
:1043B000040C0808080F0700C0E0B098FCFC80005F
:1043C000000000080F0F08007C7C4444C4C4840033
:1043D000040C0808080F0700F0F84C4444C08000A3
:1043E000070F0808080F07000C0C0484C47C3C006D
:1043F00000000F0F00000000B8FC444444FCB8006B
:10440000070F0808080F0700387C444444FCF800F4
:10441000000808080C07030000000030300000000E
:104420000000000606000000000000303000000020
:104430000000080E060000000080C0603018080070
:1044400000000103060C080040404040404040008E
:1044500002020202020202000008183060C080005E
:1044600000080C0603010000181C04C4E43C1800FA
:104470000000000D0D000000F0F808C8C8F8F000BA
:10448000070F080B0B0B0100E0F0988C98F0E00090
:104490000F0F0000000F0F0004FCFC4444FCB800A8
:1044A000080F0F08080F0700F0F80C04040C1800A0
:1044B00003070C08080C060004FCFC040CF8F000D0
:1044C000080F0F080C07030004FCFC44E40C1C005C
:1044D000080F0F08080C0E0004FCFC44E40C1C0040
:1044E000080F0F0800000000F0F80C84848C98007E
:1044F00003070C0808070F00FCFC404040FCFC00D0
:104500000F0F0000000F0F00000004FCFC0400006F
:104510000000080F0F08000000000004FCFC04006D
:10452000070F08080F07000004FCFCC0F03C0C005B
:10453000080F0F00010F0E0004FCFC040000000037
:10454000080F0F08080C0E00FCFC387038FCFC004B
:104550000F0F0000000F0F00FCFC3870E0FCFC00A7
:104560000F0F0000000F0F00F0F80C040CF8F00023
:1045700003070C080C07030004FCFC44447C3800CF
:10458000080F0F0800000000F8FC040404FCF80009
:10459000070F080E3C3F270004FCFC44C4FC380015
:1045A000080F0F00000F0F00183C6444C49C180053
:1045B000060E0808080F0700001C0CFCFC0C1C0071
:1045C0000000080F0F080000FCFC000000FCFC00CD
:1045D000070F0808080F0700FCFC000000FCFC00A7
:1045E0000103060C06030100FCFC008000FCFC003B
:1045F000030F0E030E0F03000C3CF0C0F03C0C0048
:104600000C0F0300030F0C00003C7CC0C07C3C007E
:104610000000080F0F0800001C0C84C4643C1C0040
:104620000E0F0908080C0E000000FCFC040400003A
:1046300000000F0F080800003870E0C08000000084
:104640000000000103070E0000000404FCFC000051
:10465000000008080F0F0000080C0603060C0800F5
:10466000000000000000000000000000000000004A
:10467000202020202020202000000307040000002C
:10468000000000000000000000A0A0A0E0C00000AA
:10469000070F0808070F080004FCFC2060C080001A
:1046A000080F0708080F0700C0E020202060400026
:1046B000070F0808080C040080C06024FCFC000000
:1046C000070F0808070F0800C0E0A0A0A0E0C00086
:1046D000070F0808080C040040F8FC440C18000000
:1046E000080F0F0800000000C0E02020C0E02000FC
:1046F000276F48487F3F000004FCFC4020E0C000DA
:10470000080F0F00000F0F00000020ECEC0000006D
:104710000000080F0F0800000000000020ECEC0073
:1047200000307040407F3F0004FCFC80C0602000EF
:10473000080F0F01030E0C00000004FCFC00000039
:104740000000080F0F080000E0E060C060E0C0005B
:104750000F0F000F000F0F0020E0C02020E0C0006E
:10476000000F0F00000F0F00C0E0202020E0C0006D
:10477000070F0808080F070020E0C02020E0C00055
:10478000407F7F48080F0700C0E02020C0E02000E5
:10479000070F08487F7F400020E0C0602060C00015
:1047A000080F0F080000000040E0A020206040003B
:1047B000040C09090B0E04002020F8FC2020000046
:1047C0000000070F080C0400E0E00000E0E000003B
:1047D000070F0808070F080000E0E00000E0E00015
:1047E0000003070C0C070300E0E0000000E0E0001D
:1047F000070F0C070C0F07002060C080C06020006E
:10480000080C0703070C0800E0E0000000E0E000EF
:10481000474F4848683F1F00606020A0E0602000CC
:104820000C0E0B09080C0C00004040F8BC040400FE
:10483000000000070F080800000000BCBC000000DA
:104840000000000F0F000000000404BCF84040000E
:104850000008080F07000000080C040C080C0400F6
:10486000000000000000000080C0603060C08000D8
:1048700007070404040707001022640C8008494A53
:104880004CF84C4A490800000404FE0104040404E6
:1048900004FF0404040604001010D0FF50902040D0
:1048A000FF00FF4020300000040300FF8044221975
:1048B00007003F414640700000F848484848FF481C
:1048C000484848FC080000000007020202023F427C
:1048D000424242474070000080808282828282E2AF
:1048E000A2928A8680C08000000000000040807F85
:1048F00000000000000000000000000000000000B8
:1049000000000000000000000000000000000000A7
:104910000000000000000000000000000000000097
:104920000000000000000000000000000000000087
:104930000000000000000000000000000000000077
:104940000000000000000000000000000000000067
:104950000000000000000000000000000000000057
:104960000000000000000000000000000000000047
:104970000000000000000000000000000000000037
:104980000000000000000000000000000000000027
:1049900000F8FC1C3830381CFCF800F8F800F8F877
:1049A000000000F8FC8C8C8C0080D050F0E000F00F
:1049B000F020300000808000808000808000000CAB
:1049C0001224120C00000000000000008000000013
:1049D000000000001824448844241800000000004F
:1049E00000000000000000000000000000000000C7
:1049F00000000000000000000000000000000000B7
:104A000000000000000000000000000000000000A6
:104A10000003838000808000030300080B0B0F0756
:104A2000804080408303030300000303030300036B
:104A30008380808080C3C3C0C3C3C0C3C3C0C0C0A1
:104A4000C0C0808080C0C040201804030000000067
:104A5000002050A0502000000000000000000000D6
:104A60000000000000000000000000000000000046
:104A70000000000000000000000000000000000036
:104A80000000000000000000000000000000000026
:104A900000030408110804030000000000000000E7
:104AA000010284C2E160301078ECFCF63A1B058507
:104AB00097131213131111111111110181FFF9F93B
:104AC000F2C2822225058D8B93B3E6C68C1C183862
:104AD0007070E0C080000000000000182448241816
:104AE00000000000000000000000000000000000C6
:104AF00000000000000000000000000000000000B6
:104B000000000000000000000000000000000000A5
:104B1000000080E0E0703018181C1C1C0C1C1616DD
:104B2000160627636DAECE0E0E0F0F0F0E0606078C
:104B3000070606060606060606060666776767E7A0
:104B4000070707060606070787C767232312100013
:104B50000808090B0F0E0E0C3C70F0C0800000001E
:104B60000000000000000000000000000000000045
:104B70000000000000000000000000000000000035
:104B80000000000000000000000000000000F0F83D
:104B9000DEFFF63611E0F0F8FCFEDE1E3F3F1EFEA3
:104BA000FEFCF8F2E4080107FC0000000000000031
:104BB000000000000000000000000000000000FFF6
:104BC00000000000003CFFE7311CE6FFFFFFFEFE97
:104BD0001F3F3F1FFFFEFEFCF8F8F031FBFFFEFC1D
:104BE000380000000000000000000000000000008D
:104BF00000000000000000000000000000000000B5
:104C000000000000000000000000000000000003A1
:104C1000074F4C60607F7F7F7F7D4D44727240798B
:104C20007D7F7F7F7F7C7070737370707474747419
:104C30007474747474747474767676767676767327
:104C40007070727272737070707C7F7F7F7F7D7DF9
:104C500062727260687D7F7F7F7F777467676300B1
:104C60000000000000000000000000000000000044
:104C70000000000000000000000000000000000034
:104C80000000000000000000000000000000000024
:104C90000000000000000000000000000000000014
:104CA0000000000000000000000000000000000004
:104CB00000000000000000000000000000000000F4
:104CC00000000000000000000000000000000000E4
:104CD00000000000000000000000000000000000D4
:104CE00000000000000000000000000000000000C4
:104CF00000000000000000000400000800000000A8
:104D00000000000200010000100000000000000090
:104D10000000000030313233343536373839414203
:104D2000434445464030580030313233343536370D
:104D300038396162636465664030780030313233FF
:104D400034353637383961626364656678700030AF
:104D50003132333435363738394142434445465889
:104D60005000000002400000000000A00000000011
:104D700005400000000000C8000000000C400000DA
:104D80000000409C00000000194000000020BCBE54
:104D90000000000034400000BFC91B8E000000046A
:104DA000B5400000504BCFD06607E2CF01000000B5
:104DB0006C4100003E8251AADFEEA73401000000E2
:104DC000D9420000DCB5A0E23A301F97FFFFFFFF99
:104DD000B4450000FD25A0C8E9A3C14FFFFFFFFFB8
:104DE000FF3F00000000008000000000FF3F0000C7
:104DF0000000008000000000444F00080000002078
:104E00005400000028010008984F000854000020BA
:104E100004080000440100081C00000043000000DA
:104E2000F8FFFFFF0C0000000E0000000F00000064
:104E30002E0000001001000043000000F8FFFFFFFB
:104E4000004040404040404040404141414141409D
:104E50004040404040404040404040404040404052
:104E600040050202020202020202020202020202E1
:104E700002202020202020202020200202020202E6
:104E8000020290909090909010101010101010103E
:104E9000101010101010101010101010020202024A
:104EA000020288888888888808080808080808088E
:104EB000080808080808080808080808020202028A
:104EC00040000000000000000000000000000000A2
:104ED00000000000000000000000000000000000D2
:104EE00000000000000000000000000000000000C2
:104EF00000000000000000000000000000000000B2
:104F000000000000000000000000000000000000A1
:104F10000000000000000000000000000000000091
:104F20000000000000000000000000000000000081
:104F30000000000000000000000000000000000071
:104F40000000000000A24A04000000000000000071
:104F5000010203040607080900000000010203041F
:104F60000102030406070809020406080000000005
:104F70000000000000000000000000000000000031
:104F80000000000000000000000000000000000021
:084F9000000000000000000019
:04000005080000ED02
:00000001FF
