:020000040800F2
:10000000780A00209D140008BD050008BF050008FF
:10001000C3050008C7050008CB0500080000000064
:10002000000000000000000000000000CF050008F4
:10003000D105000800000000D3050008D505000820
:10004000B7140008B7140008B7140008B714000864
:10005000B7140008B7140008B7140008B714000854
:10006000B7140008B7140008B7140008B714000844
:10007000B7140008B7140008B7140008B714000834
:10008000B7140008B7140008B7140008B714000824
:10009000B7140008B7140008B7140008B714000814
:1000A000B7140008B7140008B7140008B714000804
:1000B000B71400089F100008B7140008B714000810
:1000C000B7140008B7140008B7140008B7140008E4
:1000D000B714000813140008B7140008BD10000876
:1000E000B7140008B7140008B7140008B7140008C4
:1000F000B7140008B7140008B7140008B7140008B4
:10010000B7140008B7140008B7140008B7140008A3
:10011000B7140008B7140008B7140008B714000893
:10012000B7140008B7140008B7140008B714000883
:10013000DFF80CD006F070FA00480047B101000863
:10014000780A002010B541F61F41092000F07AFF1F
:100150004FF4165000F0C3FFD14800210160416008
:10016000018105F04EFA10BD08B500200090012273
:100170006946CC4800F00CFEBDF800004FF6FF7158
:10018000884200D108BDBDF80000C749088000BF03
:10019000F8E710B5002000F0E9FBC4A200210846F2
:1001A00000F062FCC5A202210A2000F05DFC10BD37
:1001B00088B0002007900690002400BFC34A07CAF9
:1001C00002AB07C3A24601F05FF800F074FA01F039
:1001D0005BF84FF4A06001F0F7FE4FF4165001F009
:1001E000CCF800F0E9FA00F000FB00F017FB00F09B
:1001F00031FB00F0D8FB00F041FD00F000FFFFF7FD
:10020000C8FF4FF47A7001F07CF84FF47A7001F077
:1002100078F8002000F0AAFBFFF7A6FFFFF792FF97
:10022000ABA006F03DFAB8A006F03AFA9E48018865
:10023000BFA006F035FA31E1C448007882450CD001
:10024000C24890F800A0BAF1000F03D0C0A006F099
:1002500027FA02E0C0A006F023FA914800780128AE
:1002600002D1BF49086002E00020BD4908608C4807
:100270004078012803D1BA49091F086003E0002033
:10028000B749091F086006A907A800F08CFE0A21DB
:10029000012000F04CFD0590059805F054FF0190F9
:1002A00005F06AFF07464FF06632AE4B05F0D9FE07
:1002B000054605F074FF83469DF81C007849C1F897
:1002C00002009DF81800C1F80600584605F054FFDA
:1002D00005462A460B46A4A006F0E2F9A549584671
:1002E00005F04FFE8346584605F032FF84B20B22DC
:1002F0000021084600F08BFC0C220021102000F0A9
:1003000086FC4FF47A7094FBF0F0C5B22A460021C7
:10031000302000F0EAFB98A20021382000F0A4FB76
:100320004FF47A7094FBF0F100FB1140642190FBD4
:10033000F1F00A2190FBF1F201FB1200C5B22A464E
:100340000021402000F0D1FB4FF47A7094FBF0F1D3
:1003500000FB1140642190FBF1F201FB12000A2125
:1003600090FBF1F090FBF1F201FB1200C5B22A46BE
:100370000021482000F0B9FB0A2094FBF0F100FBBB
:100380001140C5B22A460021502000F0AEFB0022E9
:100390000221104600F03BFC01220221102000F057
:1003A00036FC9DF81C000A2190FBF1F090FBF1F265
:1003B00001FB1200C5B22A460221402000F095FB45
:1003C0009DF81C000A2190FBF1F201FB1200C5B25E
:1003D0002A460221482000F088FB02220421002046
:1003E00000F015FC03220421102000F010FC9DF801
:1003F00018000A2190FBF1F090FBF1F201FB1200D2
:10040000C5B22A460421402000F06FFB9DF8180079
:100410000A2190FBF1F201FB1200C5B22A46042129
:10042000482000F062FB00204D49083908604FF475
:100430007A7000F066FFC8201B49088008460088D3
:100440004E4908800122174800F0B3FC144805F01B
:100450000FFB002000F0C3FE8146B9F1020F11D15D
:1004600047A006F01DF9022005F0E2F801203C4902
:10047000083908604FF4487000F043FF00204749F6
:10048000C1F8A801B9F1030F08D145A006F008F999
:10049000002005F0CDF800202C490870CCE60000C3
:1004A0005400002000FE00080000002048656C6C2D
:1004B0006F206D792053544D333200003230313982
:1004C00020436F6D65206F6E21000000946F00085F
:1004D0002D2D2D2D2D2D2D2DBBFAD6C7D4C6494F30
:1004E000542D4448543131CEC2CAAAB6C8BCECB26D
:1004F000E2B1A8BEAFCAB5D1E92D2D2D2D2D2D2DE0
:100500002D2D2D0D0A0000004B4559313A416972DD
:100510004C696E6BC1ACBDD3C4A3CABD09204B45A9
:10052000595F55503AB8B4CEBB0D0A0D0A00000011
:100530000D0A666C617368B4E6B4A2B5C4CAFDBEA8
:10054000DDCEAA3A25640D0A000000000400002058
:10055000636F6E6E65637400636C6F73650000009B
:10056000B001214266664A3F0D0A202567200D0A28
:100570000000000000007A442E000000020000206D
:1005800057494649BDF8C8EB4169724C696E6BC169
:10059000ACBDD3C4A3CABD0D0A00000000002142B7
:1005A00057494649B8B4CEBBA3ACC7EBD6D8D0C2E6
:1005B000C5E4D6C3C1ACBDD30D0A0000704700BF6F
:1005C000FEE700BFFEE700BFFEE700BFFEE77047A3
:1005D00070477047704700000CB5002001900090F4
:1005E0006C48006840F480306A49086000BF694880
:1005F000006800F4003000900198401C01900098C1
:1006000018B90198B0F5A06FF1D16248006800F404
:10061000003010B10120009001E00020009000980F
:10062000012843D15C48006840F010005A49086036
:100630000846006820F0030008600846006840F0A3
:1006400002000860534840685249486008464068C4
:1006500048600846406840F480604860084640684A
:1006600020F47C1048600846406840F4E810486078
:100670000846006840F08070086000BF4548006888
:1006800000F000700028F9D04248406820F00300D4
:10069000404948600846406840F00200486000BF9A
:1006A0003C48406800F00C000828F9D10CBD10B59A
:1006B000FFF792FF10BD10B53648006840F001000A
:1006C0003449086008464068344908403149486068
:1006D00008460068324908402E490860084600680C
:1006E00020F4802008600846406820F4FE0048603E
:1006F0004FF41F008860FFF7DAFF4FF000602949D0
:10070000086010BD10B5002100200022214B5B685D
:1007100003F00C0121B1042906D0082928D107E0F3
:10072000214B224C236027E01F4B204C236023E009
:10073000184B5B6803F47010164B5B6803F480324F
:10074000022303EB904022B9194B4343174C23601B
:100750000DE0104B5B6803F4003323B1144B4343AB
:10076000124C236003E0104B4343104C236003E022
:100770000D4B0E4C236000BF00BF064B5B68C3F3FC
:1007800003130C4CE15C094B1B68CB40074C236006
:1007900010BD000000100240002002400000FFF8E1
:1007A000FFFFF6FE08ED00E000127A0008000020CE
:1007B00000093D000C00002008B50121042001F0D3
:1007C0009BF94FF48060ADF8000010208DF8030015
:1007D00003208DF8020069461D4800F0D1FE4FF459
:1007E00080611B4800F079FF08BD08B50121042095
:1007F00001F082F94FF40060ADF8000010208DF890
:10080000030003208DF802006946114800F0B8FE8D
:100810004FF400610E4800F060FF08BD08B50121EB
:10082000042001F069F94FF48050ADF80000102069
:100830008DF8030003208DF802006946044800F09B
:100840009FFE4FF48051024800F047FF08BD0000B2
:100850000008014008B50121082001F04DF9C02031
:10086000ADF8000010208DF8030003208DF8020081
:100870006946FB4800F084FEC021F94800F02DFFD6
:1008800008BD0120F7490860F749C1F89C01002024
:10089000F449091D0860F449C1F898017047002027
:1008A000F0490860F049C1F89C010120ED49086059
:1008B000ED49C1F89C017047002116E000F080026C
:1008C00022B10122E74B1B1D1A6003E00022E54B19
:1008D0001B1D1A600122E34B1A600022E24BC3F891
:1008E00098214206100E4A1CD1B20829E6DB0122EB
:1008F000DC4B1B1D1A60DC4BC3F898210022D94B3E
:100900001A60704710B50446FFF7BBFF7820FFF769
:10091000D3FF4020FFF7D0FF2046FFF7CDFFFFF7C2
:10092000BEFF10BD10B50446FFF7ABFF7820FFF700
:10093000C3FF0020FFF7C0FF2046FFF7BDFFFFF712
:10094000AEFF10BD30B504460D4605F1B001C8B28A
:10095000FFF7E8FF102141EA1410FFF7E3FF04F06E
:100960000F0141F00100FFF7DDFF30BD70B5064615
:10097000002415E004F1B001C8B2FFF7D3FF012055
:10098000FFF7D0FF1020FFF7CDFF002504E0304631
:10099000FFF7B8FF681CC5B2802DF8DB601CC4B23D
:1009A000082CE7DB70BD10B54FF4FA7000F0A9FC1D
:1009B000AE20FFF7B7FF0020FFF7B4FF1020FFF7CE
:1009C000B1FF4020FFF7AEFF8120FFF7ABFFCF2044
:1009D000FFF7A8FFA120FFF7A5FFC820FFF7A2FFA0
:1009E000A620FFF79FFFA820FFF79CFF3F20FFF7FF
:1009F00099FFD320FFF796FF0020FFF793FFD52044
:100A0000FFF790FF8020FFF78DFFD920FFF78AFFC7
:100A1000F120FFF787FFDA20FFF784FF1220FFF7AE
:100A200081FFDB20FFF77EFF4020FFF77BFF2020C8
:100A3000FFF778FF0220FFF775FF8D20FFF772FFA9
:100A40001420FFF76FFFA420FFF76CFFA620FFF72D
:100A500069FFAF20FFF766FF0020FFF787FF002147
:100A60000846FFF76FFF10BD2DE9F04306460F461D
:100A7000904600250024A14631E018F809002038EE
:100A8000C5B2782E02DD0026781CC7B23946304642
:100A9000FFF758FF002407E004EB0511734A505C90
:100AA000FFF730FF601CC4B2082CF5DB781CC1B224
:100AB0003046FFF747FF002408E004EB051108313A
:100AC0006A4A505CFFF71EFF601CC4B2082CF4DBBE
:100AD00006F10800C6B209F1010000F0FF0918F89C
:100AE00009000028C9D1BDE8F0832DE9F041804616
:100AF0000E46174600243D0131464046FFF722FFCF
:100B000000BF06E05A49485DFFF7FCFE6D1C601C03
:100B1000C4B2082CF6DB701CC1B24046FFF712FFCE
:100B2000002406E05249485DFFF7ECFE6D1C601C96
:100B3000C4B2082CF6DBBDE8F0812DE9F041804617
:100B40000E46174600BF07EBC70005013146404679
:100B5000FFF7F8FE002406E04649485DFFF7D2FEA5
:100B60006D1C601CC4B2182CF6DB701CC1B2404670
:100B7000FFF7E8FE002406E03E49485DFFF7C2FEAD
:100B80006D1C601CC4B2182CF6DBB01CC1B2404610
:100B9000FFF7D8FE002406E03649485DFFF7B2FEB5
:100BA0006D1C601CC4B2182CF6DBF01CC1B24046B0
:100BB000FFF7C8FE002406E02E49485DFFF7A2FEBD
:100BC0006D1C601CC4B2182CF6DB301DC1B240464F
:100BD000FFF7B8FE002406E02649485DFFF792FEC5
:100BE0006D1C601CC4B2182CF6DB701DC1B24046EF
:100BF000FFF7A8FE002406E01E49485DFFF782FECD
:100C00006D1C601CC4B2182CF6DBBDE8F0812DE928
:100C1000F04180460E46174600247D01314640468D
:100C2000FFF790FE00BF06E01349485DFFF76AFE3C
:100C30006D1C601CC4B2102CF6DB701CC1B24046A7
:100C4000FFF780FE002406E00B49485DFFF75AFEDF
:100C50006D1C601CC4B2102CF6DBBDE8F0810000F6
:100C6000000C014098812142008021421672000848
:100C700006780008A67800089E6F000800B587B0C7
:100C800001214FF4017000F037FF4FF4004000F0F5
:100C900097FE3320ADF8040000208DF8070001A96D
:100CA0002E4800F06DFC2E4801F0FCF90020029067
:100CB0008DF80C008DF80D004FF46020049000209A
:100CC000059001208DF8180002A9254801F011FABD
:100CD0000121234801F039FA214801F058FA00BFF8
:100CE0001F4801F059FA0028FAD11D4801F05EFAB8
:100CF00000BF1B4801F05FFA0028FAD107B000BD21
:100D000010B50446072301222146154801F089FA4F
:100D10000121134801F059FA00BF0221104801F0E7
:100D2000C5FB0028F9D00E4801F0E2FA10BD2DE90C
:100D3000F04107460C460025002608E03846FFF73C
:100D4000DFFF0544052000F0DCFA701CC6B2A642A5
:100D5000F4DBB5FBF4F080B2BDE8F081000801409F
:100D6000002401400146088870472DE9F0410546FE
:100D70000E461746002407E036F81410284601F006
:100D800020FDAD1C601C84B2BC42F5DBBDE8F081E7
:100D900030B503460C461546002207E01846FFF71B
:100DA000E1FF24F812009B1C501C82B2AA42F5DB22
:100DB00030BD2DE9F05F80468A461746B8F1006FD6
:100DC00002D33748804501D3BDE8F09F01F0B1FB65
:100DD000A8F1006B4FEA9B25CBF34809C9F50074D5
:100DE000A74200DC3C464DE04FF0006101EB85205E
:100DF0008A142C49FFF7CCFF00260BE009EB060014
:100E0000284931F810004FF6FF71884200D003E006
:100E1000701C86B2A642F1DB00BFA6421BDA4FF07F
:100E2000006101EB852001F0C9FB002608E03AF8DB
:100E3000160006EB09011B4A22F81100701C86B24D
:100E4000A642F4DB4FF0006101EB85208A141549BE
:100E5000FFF78BFF04E0224651464046FFF785FF2F
:100E6000A74200D10FE06D1C4FF000090AEB440AC5
:100E7000A044381B87B2B7F5007F02DD4FF4007441
:100E800000E03C46B0E700BF01F05FFB00BF9BE71E
:100E900013B50446012201A92046FFF78AFF1CBDB5
:100EA000000001085E00002010B56348406820F48F
:100EB0007000614948600846406840F4401048604E
:100EC00000205E490860142000F01BFA01205C49F4
:100ED000C1F8B4011E2000F0F0F910BD10B50024D7
:100EE0005548406820F470005349486008464068FF
:100EF00040F40000486004E0601CC4B2012000F02F
:100F0000DCF94E488038006808B1642CF4DB642CAE
:100F100001DB012010BD002404E0601CC4B20120EC
:100F200000F0CBF945488038006808B9642CF4DB40
:100F3000642C01DB0120EDE70020EBE710B5002475
:100F400004E0601CC4B2012000F0B7F93B488038CF
:100F5000006808B1642CF4DB002404E0601CC4B217
:100F6000012000F0AAF935488038006808B9642CDF
:100F7000F4DB282000F0A1F930488038006808B17F
:100F8000012010BD0020FCE770B50024002506E01C
:100F90006006040EFFF7D2FF0443681CC5B2082D9B
:100FA000F6DB204670BD7CB505460E46FFF77CFF9C
:100FB000FFF794FFF8B9002405E0FFF7E5FF0DF80F
:100FC0000400601CC4B2052CF7DB9DF800009DF8FE
:100FD000011008449DF8021008449DF803100844CD
:100FE0009DF80410884208D19DF8000030709DF8EB
:100FF0000200287001E001207CBD0020FCE708B55C
:101000000121102000F078FD4FF40050ADF80000F1
:1010100010208DF8030003208DF802006946064871
:1010200000F0AEFA4FF40051034800F056FBFFF712
:101030003BFFFFF753FF08BD00100140B4012242FF
:10104000000022427FB505460C460121022000F037
:1010500060FDADF80850ADF804400020ADF80A007E
:10106000ADF8060001A9144801F0F6FD0122114671
:10107000114802F068F91D208DF8000000208DF85D
:10108000010003208DF8020001208DF8030068465E
:1010900000F09FFF0121084802F03AF97FBD10B52A
:1010A0000121054802F0FDFB28B10121024802F0B0
:1010B00009FC03F0E0F810BD0004004008B540F260
:1010C0002551304800F03CFF40B12E4800F0B8FEFA
:1010D000C0B200900121684603F088F908BD10B540
:1010E00086B004460121082000F006FD0121880495
:1010F00000F00FFD234800F063FD4FF48060ADF871
:10110000100003208DF8120018208DF8130004A998
:101110001D4800F035FA4FF40060ADF810000420CF
:101120008DF8130004A9184800F02AFA0094002052
:10113000ADF80400ADF80600ADF80800ADF80C00FD
:101140000C20ADF80A0069460E4800F07CFD012134
:101150000C4800F004FE012240F22551094800F03D
:101160000AFE27208DF8140002208DF815000320B8
:101170008DF8160001208DF8170005A800F029FF52
:1011800006B010BD00480040000C014008B5012128
:10119000142000F0B1FC0121374800F0C2FA4FF4EE
:1011A0000040ADF8000048208DF803006946334840
:1011B00000F0E6F92020ADF8000048208DF803008B
:1011C00069462F4800F0DCF90120ADF80000282026
:1011D0008DF803006946294800F0D2F908BD10B522
:1011E000044614B10120274908702648007868B3E6
:1011F0002021234800F057FA58B14FF400411F480E
:1012000000F051FA28B101211C4800F04CFA0128E5
:101210001CD10A2000F075F800201A49087020211E
:10122000174800F040FA08B9012010BD4FF4004102
:10123000124800F038FA08B90220F6E701210F48F9
:1012400000F031FA012815D10320EEE720210C48E7
:1012500000F029FA01280DD1C103084800F023FA53
:10126000012807D10121054800F01DFA10B901201D
:10127000044908700020D8E700023000000801404F
:10128000001001401C00002010B56FF0040000F0B9
:10129000EAFE2E4800682E49B0FBF1F02D49087097
:1012A0000846007800EB4001C1EBC0104FF6FF711B
:1012B00001EAC0002849088010BD0146254A12787D
:1012C0004A434FF0E0235A6100229A611A4612699C
:1012D00042F001021A6100BF4FF0E022106900F0F5
:1012E00001021AB100F48032002AF5D04FF0E0225A
:1012F000126922F001024FF0E0231A6100229A6184
:1013000070470146144A12884A434FF0E0235A615D
:1013100000229A611A46126942F001021A6100BF66
:101320004FF0E022106900F001021AB100F480329F
:10133000002AF5D04FF0E022126922F001024FF0AE
:10134000E0231A6100229A61704700000800002023
:1013500000127A001E00002020000020014600BF7D
:10136000704700BF494A128802F04002002AF9D0B3
:10137000C2B2464B1B1D1A80704710B586B004469A
:10138000012144F2040000F0B7FB4FF40070ADF807
:10139000140003208DF8160018208DF8170005A9F9
:1013A0003B4800F0EDF84FF48060ADF814000420E5
:1013B0008DF8170005A9364800F0E2F825208DF8D1
:1013C000000003208DF801008DF8020001208DF847
:1013D0000300684600F0FDFD01940020ADF8080010
:1013E000ADF80A00ADF80C00ADF810000C20ADF817
:1013F0000E0001A9254800F026FC012240F22551EB
:10140000224800F0B8FC0121204800F0A8FC06B0FA
:1014100010BD10B540F225511C4800F091FD10B3ED
:101420001A4800F00DFDC4B21A48008800F40040CC
:10143000C8B91848008800F4804060B10A2C03D075
:1014400000201449088020E01248008840F4004041
:101450001049088019E00D2C06D10E48008840F490
:1014600080400C49088010E00A480088C0F30D0055
:1014700009490C5407480088401C06490880084662
:101480000088C72801DD0020088010BD0038014019
:1014900000080140280000205E0400200648804724
:1014A00006480047FEE7FEE7FEE7FEE7FEE7FEE749
:1014B000FEE7FEE7FEE7FEE7B70600083101000899
:1014C00010B50446CC48844208D10121042000F024
:1014D0002DFB0021042000F029FB46E0C748844290
:1014E00008D10121082000F021FB0021082000F094
:1014F0001DFB3AE0C248844208D10121102000F0CF
:1015000015FB0021102000F011FB2EE0BD488442A5
:1015100008D10121202000F009FB0021202000F04B
:1015200005FB22E0B848844208D10121402000F0A8
:10153000FDFA0021402000F0F9FA16E0B348844299
:1015400008D10121802000F0F1FA0021802000F074
:10155000EDFA0AE0AE48844207D10121801500F07F
:10156000E5FA0021A01500F0E1FA10BD10B5012147
:10157000084600F0DBFA0021012000F0D7FA10BD88
:101580002DE9F0410246002500260020002300241A
:10159000002791F803C00CF00F0591F803C00CF080
:1015A000100CBCF1000F03D091F802C04CEA050505
:1015B00091F800C0BCF1000F31D0146800202BE07E
:1015C0004FF0010C0CFA00F3B1F800C00CEA03066E
:1015D0009E4220D183004FF00F0C0CFA03F7BC435E
:1015E00005FA03FC4CEA040491F803C0BCF1280F8F
:1015F00006D14FF0010C0CFA00FCC2F814C00AE04E
:1016000091F803C0BCF1480F05D14FF0010C0CFA62
:1016100000FCC2F810C0401C0828D1D31460B1F8F7
:1016200000C0BCF1FF0F34DD546800202EE000F153
:10163000080C4FF0010808FA0CF3B1F800C00CEAEE
:1016400003069E4221D183004FF00F0C0CFA03F7E2
:10165000BC4305FA03FC4CEA040491F803C0BCF156
:10166000280F05D100F1080C08FA0CF8C2F8148014
:1016700091F803C0BCF1480F07D100F1080C4FF0FE
:10168000010808FA0CF8C2F81080401C0828CED3D4
:101690005460BDE8F0814FF6FF7101800221817036
:1016A0000421C17070470246002093680B400BB1C3
:1016B000012000E0002070470146886880B2704732
:1016C00002460020D3680B400BB1012000E000204F
:1016D00070470146C86880B2704701617047416138
:1016E00070470AB1016100E041617047C160704715
:1016F0004FF480320A43826181618261826982692A
:10170000704702460020434B18684FF6807318401C
:1017100040EA021008433F4B186070473E49C861D9
:101720007047F0B50A46002300240021002500F090
:101730000046B6F1004F02D1364EF16901E0354E58
:101740007168C0F3034583B200F44016B6F5401F3C
:1017500008D121F070612F4E766826F070662D4F0B
:101760007E6012E000F48016B6F5801F06D10326D5
:1017700006FA05F4A14341F0706106E0460D36011A
:1017800003FA06F6B14341F0706122B1460D36010D
:1017900003FA06F6314300F00046B6F1004F02D1DD
:1017A0001C4EF16101E01B4E7160F0BD30B50022AE
:1017B0008B071C0F0F2303FA04F2164B08338C100F
:1017C00053F824309343134C08348D1044F82530DB
:1017D00023468C1053F824308C07240F00FA04F4AD
:1017E00023430C4C08348D1044F8253030BD0A4991
:1017F000DC3108607047000000080140000C014027
:10180000001001400014014000180140001C01407C
:10181000002001400000014000002042DF48006835
:1018200040F00100DD49086008464068DC49084096
:10183000DA49486008460068DA490840D749086034
:101840000846006820F4802008600846406820F4BC
:10185000FE0048604FF41F0088607047CF49096858
:1018600021F48031CD4A11601146096821F48021AC
:101870001160B0F5803F03D0B0F5802F0ED106E0A7
:10188000C649096841F48031C44A116007E0C34980
:10189000096841F4A021C14A116000E000BF00BF07
:1018A000704710B501460022002300204A11012A8A
:1018B00002D1BA4C236806E0022A02D1B74C236A4F
:1018C00001E0B64C636A01F01F02012494401C4001
:1018D0000CB1012000E0002010BD38B500200090C0
:1018E0000024002500BF3120FFF7DBFF05460098EC
:1018F000401C00900098B0F5A06F01D0002DF2D0F0
:101900003120FFF7CEFF08B1012400E0002420467B
:1019100038BD01460020A14A106820F0F80040EAD6
:10192000C10010607047A04908607047024600205F
:101930009A4B586820F47C1042EA01031843974BF5
:101940005860704798490866704701460020934ADE
:10195000506820F003000843506070478F4840688B
:1019600000F00C007047014600208C4A506820F0BF
:10197000F00008435060704701460020874A5068D5
:1019800020F4E06008435060704701460020834A1D
:10199000506820F4605040EAC1005060704729B19F
:1019A0007E4A527A02437D4B5A7204E07B4A527A55
:1019B00082437A4B5A7270477B49D831086070472E
:1019C00001460020754A506820F4404008435060AA
:1019D00070470021714A20321170704A82F820103D
:1019E000012802D004280AD104E001216B4A2032E8
:1019F000117005E00521694A2032117000E000BF36
:101A000000BF70476949086070476449096A01432B
:101A1000624A11627047654944390860704730B5C1
:101A200000210022002400235C4D6D6805F00C01AC
:101A300021B1042905D0082923D105E05C4D0560BA
:101A400022E05B4D05601FE0544D6D6805F4701297
:101A5000524D6D6805F48034022505EB92421CB9A5
:101A6000544D554305600BE04C4D6D6805F4003551
:101A70001DB1504D5543056002E04D4D5543056085
:101A800002E04B4D056000BF00BF444D6D6805F09E
:101A9000F0010909484D6B5C0568DD4045603F4D2C
:101AA0006D6805F4E061090A434D6B5C4568DD40F3
:101AB00085603A4D6D6805F46051C90A3E4D6B5C16
:101AC0004568DD40C560354D6D6805F44041890BC2
:101AD0003A4D6B5CC568B5FBF3F5056130BD29B1C6
:101AE0002E4A526902432D4B5A6104E02B4A526937
:101AF00082432A4B5A61704729B1284A92690243AE
:101B0000264B9A6104E0254A92698243234B9A61ED
:101B1000704729B1214AD2690243204BDA6104E0BF
:101B20001E4AD26982431D4BDA61704729B11B4AB4
:101B3000D2680243194BDA6004E0184AD268824343
:101B4000164BDA60704729B1144A12690243134BED
:101B50001A6104E0114A12698243104B1A617047FE
:101B600012494039086070470F49C86470470B49F3
:101B7000C87170470948406A40F080700749486260
:101B8000704701460020054A92680A400AB10120C8
:101B900000E0002070470149887270470010024041
:101BA0000000FFF8FFFFF6FE0000424280044242C0
:101BB00000127A0000093D002A0000203A000020AF
:101BC00010B50446FB48844209D101218803FFF780
:101BD000ADFF00214FF48040FFF7A8FF32E0F64848
:101BE000844209D101214804FFF7ADFF00214FF4E1
:101BF0000030FFF7A8FF25E0F048844209D1012119
:101C00008804FFF7A0FF00214FF48020FFF79BFF1F
:101C100018E0EB48844209D10121C804FFF793FF83
:101C200000214FF40020FFF78EFF0BE0E5488442CF
:101C300008D101210805FFF786FF00214FF480102D
:101C4000FFF781FF10BD2DE9F04786B005460E462F
:101C50000024A24600BFA1460027B08900B100BF02
:101C60002F462C8A4CF6FF700440F08804432C82E7
:101C7000AC894EF6F3100440B0883189084371896D
:101C800008430443AC81AC8A4FF6FF400440B0895E
:101C90000443AC8201A8FFF7C2FEC648874202D1C6
:101CA000DDF810A001E0DDF80CA0A88900F40040E8
:101CB00040B10AEBCA0000EB0A1031684900B0FBE2
:101CC000F1F807E00AEBCA0000EB0A10316889005E
:101CD000B0FBF1F86420B8FBF0F0040120096421A6
:101CE00001FB1089A88900F4004040B1322000EBCC
:101CF000C900B0FBF1F000F00700044308E0322017
:101D000000EB09106421B0FBF1F000F00F00044378
:101D10002C8106B0BDE8F0874FF416510160002118
:101D20008180C18001810C21418100218181704726
:101D300010B502460020108A4FF2FF0318400B88AE
:101D40004C8823438C882343CC8823431843108238
:101D500010BD0021018041808180C180704721B188
:101D6000828942F40052828104E082894DF6FF7339
:101D70001A4082817047F0B50346002400260025F2
:101D8000002040F66A17B94200D100BF1846C1F3DF
:101D9000421401F01F06012707FA06F5012C01D1B4
:101DA0000C3004E0022C01D1103000E014301AB1E4
:101DB00007682F43076002E00768AF430760F0BD84
:101DC0001AB1838A0B43838202E0838A8B43838226
:101DD0007047028A4FF6F0731A400282028A0A4361
:101DE0000282704782894FF2FF731A408281828992
:101DF0000A438281704721B1828942F002028281C6
:101E000004E082894FF6FD731A4082817047028A8E
:101E10004FF6DF731A400282028A0A430282704739
:101E200021B1028A42F48042028204E0028A4BF627
:101E3000FF731A4002827047C1F308028280704724
:101E400001468888C0F308007047818941F001018C
:101E500081817047028BD2B20283028B42EA012257
:101E600002837047028B02F47F420283028B0A4393
:101E70000283704721B1828A42F02002828204E00C
:101E8000828A4FF6DF731A408282704721B1828ABC
:101E900042F01002828204E0828A4FF6EF731A4009
:101EA0008282704721B1828A42F00802828204E075
:101EB000828A4FF6F7731A408282704721B1828975
:101EC00042F40042828103E08289C2F30E028281E1
:101ED000704721B1828A42F40062828204E0828AE1
:101EE0004FF2FF731A4082827047828A4FF6FB736B
:101EF0001A408282828A0A438282704721B1828A92
:101F000042F00202828204E0828A4FF6FD731A4098
:101F10008282704702460020B1F5007F00D100BFE9
:101F200013880B400BB1012000E00020704701F442
:101F30000072B2F5007F00D100BFCA430280704733
:101F400070B50246002400230025002040F66A16E2
:101F5000B14200D100BFC1F3421501F01F030126B9
:101F600006FA03F3012D02D19689334006E0022DD3
:101F700002D1168A334001E0968A33400C120126C2
:101F800006FA04F41688344013B10CB1012000E0C5
:101F9000002070BD10B50022002340F66A14A14253
:101FA00000D100BF0A1201249440A3B2DC43048094
:101FB00010BD0000003801400044004000480040CF
:101FC000004C00400050004031490143314A11604B
:101FD000704770B5002100230F22C47804B32D4C44
:101FE000246804F4E064C4F5E064210AC1F1040348
:101FF000CA40447804FA03F184781440214309016B
:10200000254C0678A155047804F01F050124AC4046
:1020100005786D11AD0005F1E025C5F8004109E036
:10202000047804F01F050124AC401C4D067876119D
:1020300045F8264070BD1A4A0A400243154B1B1F43
:102040001A60704739B1134A121D12680243114BCE
:102050001B1D1A6006E00F4A121D126882430D4BC9
:102060001B1D1A607047042808D14FF0E021096950
:1020700041F004014FF0E022116107E04FF0E02150
:10208000096921F004014FF0E0221161704700005E
:102090000000FA050CED00E000E400E080E100E063
:1020A00080FFFF1F10B50446FA48844208D1012181
:1020B0004015FFF73BFD00216015FFF737FD17E0E6
:1020C000F548844208D101210015FFF72FFD0021BA
:1020D0002015FFF72BFD0BE0F048844208D10121C9
:1020E000C803FFF723FD00214FF40040FFF71EFD5A
:1020F00010BD30B50246002000235068E84C204057
:102100000D790C6844EA0524204350609068E54C42
:102110002040D1E902542C434D7944EA4504204340
:102120009060D06A20F470000C7C641EE4B22343FB
:1021300040EA0350D06230BD00210160017141715D
:102140008160C16001210174704721B1826842F051
:102150000102826003E0826822F00102826070471F
:1021600021B1826842F48072826003E0826822F4C6
:1021700080728260704710B50023CBB21AB14468F8
:102180001C43446002E044689C43446010BD816885
:1021900041F0080181607047014600208A6802F022
:1021A00008020AB1012000E000207047816841F078
:1021B000040181607047014600208A6802F0040231
:1021C0000AB1012000E00020704721B1826842F48A
:1021D000A002826003E0826822F4A002826070475D
:1021E000014600208A6802F480020AB1012000E062
:1021F0000020704710B50A4600210023416821F4F1
:102200006041531E41EA4331416010BD21B1426833
:1022100042F40062426003E0426822F400624260DD
:102220007047F0B504460D4600200021092D11DD50
:10223000E068A5F10A0606EB4607072606FA07F14D
:102240008843A5F10A0606EB460603FA06F10843A1
:10225000E0600CE0206905EB4507072606FA07F168
:10226000884305EB450603FA06F108432061072A77
:102270000FDA606B561E06EB86071F2606FA07F17B
:102280008843561E06EB860605FA06F1084360638E
:1022900022E00D2A0FDA206BD61F06EB86071F26D9
:1022A00006FA07F18843D61F06EB860605FA06F103
:1022B0000843206310E0E06AA2F10D0606EB8607F2
:1022C0001F2606FA07F18843A2F10D0606EB8606E3
:1022D00005FA06F10843E062F0BD21B1826842F4DC
:1022E0008012826003E0826822F48012826070476C
:1022F0000146C86C80B2704766484C300068704731
:1023000021B1426842F48062426003E0426822F4F4
:1023100080624260704721B1426842F4805242605C
:1023200003E0426822F48052426070470A4600216E
:10233000816821F4E04111438160704721B18268D6
:1023400042F40042826003E0826822F4004282602C
:10235000704721B1826842F40212826003E0826811
:1023600022F4021282607047014600208A6802F45B
:1023700000120AB1012000E000207047F0B50446C9
:102380001546002000220026092911DDE068A1F190
:102390000A0707EB470C072707FA0CF29043A1F155
:1023A0000A0707EB470703FA07F21043E0600CE067
:1023B000206901EB410C072707FA0CF2904301EB6F
:1023C000410703FA07F210432061A06BC0F30156E6
:1023D000EF1C06F1010CA7EB0C0707EB870C1F277E
:1023E00007FA0CF29043EF1C06F1010CA7EB0C0767
:1023F00007EB870701FA07F21043A063F0BD10B5A1
:102400000A4600210023816B21F44011531E41EA4A
:102410000351816310BD08B5002300930090009B19
:102420000B440093009B1A6008BD08B502460020CB
:102430000090009201F12800009B18440090009841
:10244000006880B208BD0A4600214168164B194059
:102450001143416070474162826270470A46002121
:10246000416821F01F0111434160704740B10949A3
:102470000831096841F40001064A0832116007E09A
:1024800004490831096821F40001024A0832116048
:10249000704700000024014000280140003C01403A
:1024A000FFFEF0FFFDF7F1FFFFFD3FFF02460020BA
:1024B00013680B400BB1012000E000207047CA43B5
:1024C0000260704770B502460020002300240B1202
:1024D0005568CEB205EA060415681D4015B10CB169
:1024E000012000E0002070BD00220A12D3430360E7
:1024F0007047000001460020FE4A106800F03800D6
:10250000084310607047FB49096821F00801F94A47
:10251000116011460968014311607047F549096867
:1025200021F01001F34A116011460968014311605E
:102530007047F148EF494860F04848607047EE48FE
:10254000EC494860ED4848607047EA48006940F04F
:102550008000E84908617047E648006940F0800063
:10256000E449086170470420E249C96801F00101AB
:1025700009B101200EE0DF49C96801F0040109B189
:10258000022007E0DB49C96801F0100109B103200E
:1025900000E00420704700B502460423FFF7E3FF84
:1025A000034603E0FFF7DFFF0346521E012B01D174
:1025B000002AF7D102B90523184600BD30B50446FC
:1025C00004254FF43020FFF7E6FF0546042D17D110
:1025D000C848006940F00200C649086108464461E5
:1025E000006940F0400008614FF43020FFF7D3FF4E
:1025F0000546C048006941F6FD710840BD490861C3
:10260000284630BD10B504244FF43020FFF7C3FF37
:102610000446042C16D1B748006940F00400B549BF
:1026200008610846006940F0400008614FF430201E
:10263000FFF7B1FF0446AF48006941F6FB7108405F
:10264000AC490861204610BD00B502460423FFF7DF
:102650008AFF034603E0FFF786FF0346521E012B65
:1026600001D1002AF7D102B90523184600BD10B5E3
:1026700004244FF43020FFF7E7FF0446042C16D162
:102680009C48006940F004009A49086108460069C6
:1026900040F0400008614FF43020FFF7D5FF0446BA
:1026A0009448006941F6FB71084092490861204650
:1026B00010BD00208F49C96901F0020109B1012054
:1026C00000E00020704730B5A5250424FFF7F1FF96
:1026D00000B100254FF43020FFF75DFF0446042CC5
:1026E0003AD18548834988608448886008460069F3
:1026F00040F0200008610846006940F04000086191
:102700004FF43020FFF747FF0446042C1BD17948D3
:10271000006941F6DF7108407649086108460069A2
:1027200040F01000086176480580E002FFF733FFB3
:102730000446052C10D06F48006941F6EF7108403F
:102740006C49086108E0052C06D06A48006941F62A
:10275000EF71084067490861204630BD78B50646EC
:102760000C46042500200090E802FFF714FF054600
:10277000042D24D15F48006940F001005D490861E3
:102780003480E802FFF707FF0546042D10D1B01C86
:102790000090200C00990880E802FFF7FCFE054637
:1027A0005448006941F6FE7108405249086106E04C
:1027B0005048006941F6FE7108404E4908612846BC
:1027C00078BD70B504460D460426F002FFF7E3FE1F
:1027D0000646042E11D14748006940F001004549E2
:1027E00008612580F002FFF7D6FE064641480069E1
:1027F00041F6FE7108403F490861304670BD70B532
:1028000005460E460424E002FFF7C5FE0446042CEC
:1028100017D13948374988603848886008460069C8
:1028200040F0100008612E80E002FFF7B4FE04467D
:10283000052C06D02F48006941F6EF7108402D495C
:102840000861204670BD2DE9F04304464FF6FF763F
:102850003746B046B1460425E443E6B2C4F3072741
:10286000C4F307484FEA1469E802FFF794FE0546EF
:10287000042D49D120481F498860204888600846B7
:10288000006940F010000861FF2E06D01C48083097
:102890000680E802FFF77FFE0546042D08D1FF2FD2
:1028A00006D017480A300780E802FFF774FE054695
:1028B000042D0AD1B8F1FF0F07D011480C30A0F851
:1028C0000080E802FFF767FE0546042D0AD1B9F142
:1028D000FF0F07D00A480E30A0F80090E802FFF77B
:1028E0005AFE0546052D0FD00248006941F6EF71EA
:1028F000084007E00020024023016745AB89EFCD87
:1029000000F8FF1F664908612846BDE8F08330B52E
:10291000054604244FF43020FFF73DFE0446042C06
:1029200041D160485E4988605F4888600846006918
:1029300040F0200008610846006940F0400008614E
:102940004FF43020FFF727FE0446042C22D15448D0
:10295000006941F6DF710840514908610846006985
:1029600040F0100008611DB100205049088002E0CD
:10297000A5204E4908804FF43020FFF70CFE044696
:10298000052C10D04648006941F6EF7108404449D3
:10299000086108E0052C06D04148006941F6DF7166
:1029A00008403F490861204630BDF0B505460E4657
:1029B000174604243B483A4988603B488860E00257
:1029C000FFF7E9FD0446042C19D13548006940F0B1
:1029D00010003349086147F0F80030432843334979
:1029E000891C0880E002FFF7D6FD0446052C06D0BE
:1029F0002B48006941F6EF710840294908612046DB
:102A0000F0BD2748C069800870472548006A7047B4
:102A100000202349096801F0200109B1012000E0EC
:102A20000020704729B11E4A126902431C4B1A61EB
:102A300004E01B4A12698243194B1A617047014630
:102A40000020012908D1164AD26902F001020AB118
:102A5000012008E0002006E0114AD2680A400AB1CD
:102A6000012000E0002070470D49C8607047042035
:102A70000B49C96801F0010109B101200EE00849C4
:102A8000C96801F0040109B1022007E00449C968DE
:102A900001F0100109B1032000E00420704700009C
:102AA0000020024023016745AB89EFCD00F8FF1FEE
:102AB00010B50446FE48844208D10121C014FFF736
:102AC00035F80021E014FFF731F8C4E0B4F1804F8D
:102AD00008D101210846FFF736F800210120FFF751
:102AE00032F8B8E0F348844208D101210220FFF710
:102AF0002AF800210220FFF726F8ACE0EE488442D5
:102B000008D101210420FFF71EF800210420FFF75F
:102B10001AF8A0E0E948844208D101210820FFF713
:102B200012F800210820FFF70EF894E0E4488442F0
:102B300008D101211020FFF706F800211020FFF72F
:102B400002F888E0DF48844208D101212020FEF706
:102B5000FAFF00212020FEF7F6FF7CE0DA488442ED
:102B600008D101214014FEF7E1FF00216014FEF7B7
:102B7000DDFF70E0D548844209D10121C804FEF789
:102B8000D5FF00214FF40020FEF7D0FF63E0D048CE
:102B9000844209D101210805FEF7C8FF00214FF446
:102BA0008010FEF7C3FF56E0CA48844209D10121D4
:102BB0004805FEF7BBFF00214FF40010FEF7B6FFFB
:102BC00049E0C548844208D101214020FEF7BBFFFF
:102BD00000214020FEF7B7FF3DE0C048844208D105
:102BE00001218020FEF7AFFF00218020FEF7ABFF20
:102BF00031E0BB48844208D101218015FEF7A3FFD4
:102C00000021A015FEF79FFF25E0B648844209D1B8
:102C100001210804FEF78AFF00214FF48030FEF7FF
:102C200085FF18E0B048844209D101214804FEF72D
:102C30007DFF00214FF40030FEF778FF0BE0AB483A
:102C4000844208D101218804FEF770FF00214FF46F
:102C50008020FEF76BFF10BD00220288944B984243
:102C60000ED0994B98420BD0B0F1804F08D0914BC9
:102C7000984205D0904B984202D0904B984204D194
:102C80004FF68F731A404B881A438D4B984207D0EA
:102C90008C4B984204D04FF6FF431A40CB881A431E
:102CA00002808B8883850B880385814B98420BD0EB
:102CB000854B984208D08B4B984205D08A4B98425E
:102CC00002D08A4B984201D10B7A0386012383827A
:102CD000704770B5002400220023058C4FF6FE7665
:102CE00035400584028C8388048B4FF68F752C4009
:102CF000B51E2C400D882C43751E2A400D892A4391
:102D00004D882A436A4DA8420BD06F4DA84208D087
:102D1000744DA84205D0744DA84202D0734DA8420C
:102D200013D14FF6F7752A404D892A434FF6FB75AC
:102D30002A408D882A434FF6FF652B404FF6FF55FA
:102D40002B408D892B43CD892B4383800483CD88F1
:102D50008586028470BD70B5002400220023058C96
:102D60004FF6EF7635400584028C8388048B48F655
:102D7000FF752C404FF6FF452C400D884FF6FF762F
:102D800006EA05252C434FF6DF752A400D8906EA31
:102D900005152A434D8806EA05152A43444DA842E5
:102DA00002D0494DA8421DD14FF67F752A404D896A
:102DB0004FF6FF7606EA05152A434FF6BF752A40FF
:102DC0008D8806EA05152A434FF6FF352B404FF252
:102DD000FF752B408D8906EA85052B43CD8906EAD0
:102DE00085052B4383800483CD880587028470BDCD
:102DF00070B5002400220023058C4FF6FF66354095
:102E00000584028C8388848B4FF68F752C404FF697
:102E1000FC752C400D882C434FF6FF552A400D8938
:102E20004FF6FF7606EA05252A434D8806EA052572
:102E30002A431F4DA84202D0234DA8421DD14FF274
:102E4000FF752A404D894FF6FF7606EA05252A438D
:102E50004FF6FF352A408D8806EA05252A434EF6AF
:102E6000FF752B404DF6FF752B408D8906EA051541
:102E70002B43CD8906EA05152B4383808483CD88B7
:102E80008587028470BD70B5002200230024058C64
:102E90004EF6FF7635400584038C8488828B48F695
:102EA000FF752A404FF6FF452A400D8820E00000BC
:102EB000002C01400004004000080040000C0040CD
:102EC000001000400014004000340140004C01405C
:102ED000005001400054014000180040001C004018
:102EE00000200040004001400044014000480140F3
:102EF0004FF6FF7606EA05252A434DF6FF752B406F
:102F00000D8906EA05352B434D8806EA05352B4326
:102F1000FA4DA84202D0FA4DA84208D14BF6FF75EF
:102F20002C408D894FF6FF7606EA85152C43848068
:102F30008283CD88A0F84050038470BD828B4FF20D
:102F4000FF331A408283828B4FF6FF7303EA01231B
:102F50001A4382837047F0B50C46154600220021C3
:102F60000026078C4EF6FF7C07EA0C070784828B4D
:102F7000018C4FF6FF7707EA043640F6FF473A40E8
:102F80004FF6FF7707EA05273A434FF6FF7707EA40
:102F900003373A43D94FB8420ED0D94FB8420BD07D
:102FA000B0F1804F08D0D74FB84205D0D64FB842C5
:102FB00002D0D64FB84206D14DF6FF77394046F4DD
:102FC0008057394305E047F6FF57394044F48057AE
:102FD000394382830184F0BD828B4FF6F3731A402C
:102FE0008283828B0A4382837047F0B50C46154674
:102FF000002200210026078C4FF6FF6C07EA0C0721
:103000000784828B018C4FF6FF7707EA04264FF680
:103010000C773A404FF6FF7707EA03172F433A43FE
:10302000B64FB8420ED0B64FB8420BD0B0F1804F79
:1030300008D0B44FB84205D0B34FB84202D0B34F16
:10304000B84206D14FF6FF57394046F480773943EE
:1030500005E04FF2FF57394044F4807739438283CB
:103060000184F0BD028B4FF2FF331A400283028BC2
:103070004FF6FF7303EA01231A4302837047F0B54A
:103080000C461546002200210026078C4FF6EF7CE7
:1030900007EA0C070784028B018C4FF6FF7707EADB
:1030A000041640F6FF473A404FF6FF7707EA03372A
:1030B0003A434FF6FF7707EA05273A438F4FB84266
:1030C0000ED08F4FB8420BD0B0F1804F08D08D4F4B
:1030D000B84205D08C4FB84202D08C4FB84206D1CE
:1030E0004FF6DF77394046F01007394305E04FF6D9
:1030F0005F77394044F01007394302830184F0BD03
:10310000028B4FF6F3731A400283028B0A43028349
:103110007047F0B50C46154600220021068C4FF68C
:10312000FE773E400684028B018C4FF60C763240CF
:103130007E1C06EA03162E433243704EB0420ED078
:103140006F4EB0420BD0B0F1804F08D06D4EB04200
:1031500005D06D4EB04202D06C4EB04206D14FF653
:10316000FD76314044F00106314305E04FF6F57637
:10317000314044F00106314302830184F0BD70B553
:1031800005460C465D4885420ED05D4885420BD011
:10319000B5F1804F08D05B48854205D05A4885423A
:1031A00002D05A48854200D100E000BF208850B9C3
:1031B0002389A28861882846FFF7ABFFE18828466B
:1031C000FFF79EFF25E0208804280AD12389A288E2
:1031D00061882846FFF753FFE1882846FFF742FF42
:1031E00017E0208808280AD12389A2886188284608
:1031F000FFF7FBFEE1882846FFF7EEFE09E0238992
:10320000A28861882846FFF7A6FEE1882846FFF7D6
:1032100095FE70BD2DE9F04105460C4600260127BC
:10322000608808B9022600E00026A088012801D1A4
:10323000022700E001272088A0B92389A28861889D
:103240002846FFF766FFE1882846FFF759FF2389E4
:103250003A4631462846FFF712FFE1882846FFF735
:1032600001FF13E02389A28861882846FFF707FF42
:10327000E1882846FFF7F6FE23893A46314628467C
:10328000FFF747FFE1882846FFF73AFFBDE8F081E6
:103290000A884B881A438B881A43CB881A430B89B8
:1032A0001A434B891A438B891A43A0F8442070476C
:1032B0004FF6FF71818000210180C1804180017241
:1032C00070470021018041808180C180018141815E
:1032D0008181C1817047002101804180012181806D
:1032E0000021C180018170470021018041808180DF
:1032F000C18001814181818170470000002C014023
:10330000003401400004004000080040000C004070
:1033100021B1028842F00102028004E002884FF6E7
:10332000FE731A400280704731B1B0F8442042F475
:103330000042A0F8442005E0B0F84420C2F30E0299
:10334000A0F8442070471AB183890B43838102E0BF
:1033500083898B43838170478182704741EA0203EE
:10336000A0F8483070471AB183890B43838102E08B
:1033700083898B438381704701894FF6F87211402E
:10338000018170470A46002101894FF68F73194069
:1033900011430181704730B504460D462946204649
:1033A000FFF7F0FF208940F00700208130BD2DE9B4
:1033B000F04104460D4616461F46602D06D13B4699
:1033C000012231462046FFF75AFE05E03B46012226
:1033D00031462046FFF79DFE29462046FFF7D2FFE3
:1033E000208940F007002081BDE8F08130B50C460F
:1033F00000210189C9B24FF6FF7505EA032515437F
:1034000025432943018130BD2DE9F04105460E4693
:1034100017469846002443463A4631462846FFF769
:10342000E5FF2C894FF6F870044044F007044FF68E
:103430008F70044044F070042C81BDE8F081F0B539
:1034400004460D4616461F463B4632462946204650
:10345000FFF7CCFF208940F480402081F0BD01853A
:10346000828270470A46002101884FF68F73194007
:10347000114301807047F0B50C4615461E460021E9
:10348000002200230189028B038C4FF6F877394024
:1034900021434FF6FC473A4040F201173A434FF6BA
:1034A000DD773B404FF6FF7707EA06172F433B4394
:1034B000018102830384F0BD0A460021018B4FF68F
:1034C0008F7319401143018370470A460021018B15
:1034D00048F6FF7319404FF6FF7303EA02231943BE
:1034E000018370470A460021818B4FF68F73194084
:1034F0001143818370470A460021818B48F6FF7390
:1035000019404FF6FF7303EA022319438183704782
:1035100021B1028842F08002028004E002884FF666
:103520007F731A400280704721B1828842F0040202
:10353000828004E082884FF6FB731A4082807047D5
:1035400021B1828842F00802828004E082884FF62E
:10355000F7731A408280704721B1828842F00102DD
:10356000828004E082884FF6FE731A4082807047A2
:103570000A460021018B4FF6F7731940114301836E
:1035800070470A460021018B4FF2FF7319404FF636
:10359000FF7303EA02231943018370470A4600219F
:1035A000818B4FF6F77319401143818370470A46A8
:1035B0000021818B4FF2FF7319404FF6FF7303EA2E
:1035C00002231943818370470A460021018B4FF67D
:1035D000FB7319401143018370470A460021018B98
:1035E0004FF6FF3319404FF6FF7303EA02231943E6
:1035F000018370470A460021818B4FF6FB73194007
:103600001143818370470A460021818B4FF6FF33B7
:1036100019404FF6FF7303EA022319438183704771
:103620000A460021018B4FF67F7319401143018335
:1036300070470A460021018BC1F30E014FF6FF735C
:1036400003EA02231943018370470A460021818B54
:103650004FF67F7319401143818370470A4600215A
:10366000818BC1F30E014FF6FF7303EA0223194366
:10367000818370470A460021018C4FF6FD73194083
:103680001143018470470A460021018C4FF6F773FD
:1036900019401143018470470A460021018C4FF6FE
:1036A000DF7319404FF6FF7303EA021319430184D5
:1036B00070470A460021018C4FF67F7319404FF680
:1036C000FF7303EA02131943018470470A4600217D
:1036D000018C4FF6FF5319404FF6FF7303EA0223A4
:1036E0001943018470470A460021018C4FF2FF7391
:1036F00019404FF6FF7303EA022319430184704710
:103700000A460021018C4DF6FF7319404FF6FF73F6
:1037100003EA023319430184704730B500230124C2
:103720008C40A3B2048C9C430484048C02FA01F5FF
:10373000ADB22C43048430BD30B5002304248C404A
:10374000A3B2048C9C430484048C02FA01F5ADB24C
:103750002C43048430BD70B5034600200024184675
:10376000183001258D40ACB21D8CA5431D8409B1D4
:10377000082909D100EB6100056825F07005056096
:103780000568154305600EE00D1FC5F34E0528447E
:10379000056825F4E045056005684FF6FF7606EA02
:1037A00002263543056070BD21B1028842F0020255
:1037B000028004E002884FF6FD731A4002807047D1
:1037C00021B1028842F00402028004E002884FF630
:1037D000FB731A400280704721B1828842F0800258
:1037E000828004E082884FF67F731A40828070479F
:1037F00002884FF6F7731A40028002880A4302805B
:10380000704782884FF68F731A40828082880A43FD
:103810008280704702894FF6F8731A40028102894C
:103820000A430281704702894FF67F731A40028172
:1038300002890A43028170478184704781857047FD
:10384000818670470187704781877047A0F84010D4
:10385000704702884FF6FF431A40028002880A43ED
:10386000028070470146888E70470146088F704776
:103870000146888F70470146B1F840007047014605
:10388000888C70470146088D704702460020138AD5
:103890000B400BB1012000E000207047CA430282B8
:1038A000704730B50246002000230024158A05EA3F
:1038B0000103958905EA010413B10CB1012000E070
:1038C000002030BDCA4302827047000010B5024696
:1038D0000024002302B109B9002010BD022303E037
:1038E000D05C2044C4B25B1C481E9842F8D82046E5
:1038F000F3E701B581B000200090694601AA507835
:10390000087010784870BDF800000CBD014608062C
:1039100001F47F4240EA022001F47F0240EA1220D3
:1039200040EA1160704710B502460024302A05DBDA
:10393000392A03DCA2F13000C3B20EE0412A05DBD4
:10394000462A03DCA2F13700C3B206E0612A04DB99
:10395000662A02DCA2F15700C3B2302905DB3929FF
:1039600003DCA1F13000C4B20EE0412905DB462999
:1039700003DCA1F13700C4B206E0612904DB66294B
:1039800002DCA1F15700C4B204EB0310C0B210BDB9
:1039900070B5044600250026204602F093FA06463C
:1039A0000CB9681E70BD002505E0605D302801D0AF
:1039B0000020F7E76D1CB542F7D30120F2E72DE9AF
:1039C000F043034600BF00250024002600270129FC
:1039D00001D002290DD1A3F1010C4FF06408BCFB0A
:1039E000F8F4BCFBF8F908FB19C501F10C06174601
:1039F00009E04FF0640CB3FBFCF4B3FBFCF80CFBE8
:103A000018350E46174606F1010C4FF01A080CFB4C
:103A100008FC4FF00A08BCFBF8FC05EB950808EB26
:103A200094084FF0020909FB1488C444BC44ACF16B
:103A30000100002806DB4FF0070C90FBFCF80CFBA4
:103A4000180C07E04FF0070C90FBFCF80CFB180C6F
:103A50000CF1070C6046BDE8F08301460A46C81722
:103A600001EB90708010A1EB800070B9642091FB95
:103A7000F0F300FB131030B94FF4C87091FBF0F372
:103A800000FB131008B9012070470020FCE710B5B7
:103A900004462046FFF7E1FF10B14FF4B77010BDA8
:103AA00040F26D10FBE72DE9F04190B080460E46E4
:103AB00040F2B2753022694901A802F0DFF93446BC
:103AC00004F5E14400BF11E02846FFF7E0FF074698
:103AD00040F2A3207843B4EBC01F06D340F2A320EA
:103AE0007843A4EBC0146D1C00E001E0002CEBD186
:103AF00000BFA8B2ADF83400002518E0BDF83400CE
:103B0000FFF7ABFF08B11D20029001A850F8250077
:103B100040F2A3214843B4EBC01F07D301A850F8DB
:103B200025004843A4EBC0146D1C00E001E0002C0C
:103B3000E4D100BF1C200290681CC0B28DF8360092
:103B4000012506E04648844202D3241A6D1C00E099
:103B500001E0002CF6D100BFE8B28DF837004FF439
:103B60006160B4FBF0F0C0B28DF838004FF46160D2
:103B7000B4FBF0F100FB11403C21B0FBF1F0C0B20E
:103B80008DF839003C20B4FBF0F100FB11408DF8BA
:103B90003A00CDF83B600D98C8F800000E98C8F8C0
:103BA0000400BDF83C00A8F808009DF83E0088F825
:103BB0000A0010B0BDE8F0812DE9F05F80460E46A6
:103BC000914600241CE016F814A06000401C16F872
:103BD00000B0504602F04CF93038C5B2092D01DD75
:103BE000E81FC5B2584602F043F93038C7B2092F72
:103BF00001DDF81FC7B207EB051008F80400641CCC
:103C00004C45E0DBBDE8F09FF0B5034600201EE028
:103C10000E5CF71706EB17773F1107F130050E5CC6
:103C2000F71706EB17773F11A6EB07173037FCB2F3
:103C3000392D01DDEE1DF5B2392C01DDE61DF4B2A2
:103C400003F81050012606EB40069C55401C90429C
:103C5000DEDB002603F81260F0BD0000687F00087C
:103C60008051010030B502460B460021002400259A
:103C70000AB9481E30BD002108E0545C581A401EA5
:103C8000155C5554581A401E1454491CB1EB530F7F
:103C9000F3D30020EEE710B503460020541AB4FB1E
:103CA000F3F010BD10B50346002002FB031010BD59
:103CB0002DE9F04704460E461546002731462846B2
:103CC00002F059F98146214602F08DF9804602F052
:103CD0003FFA07463846BDE8F0872DE9F04704462D
:103CE0000E4615460027284602F02DFA8146214649
:103CF00002F047F98046314602F0EBF807463846B5
:103D0000BDE8F087024612B102F0070028B9082981
:103D100001D8002070470120FCE702F00700C0F145
:103D20000800884201D30020F4E70120F2E72DE9E2
:103D3000F0470546884614461E464FF00009CA461D
:103D40000027002314B9581EBDE8F087EB08414650
:103D50002846FFF7D7FF07463FB9E05C05F00701AB
:103D600006FA01F10843E0541DE0012F1BD1F0B227
:103D700005F00701C1F1080140FA01F905F007005B
:103D8000C0F10801FF20084100EA060A581C205C27
:103D900040EA0900591C6054E05C05F007010AFA8A
:103DA00001F10843E0540020CEE72DE9F04F8FB039
:103DB00004460F4690461D460026B246B146B3461D
:103DC00000200E90B8F1000F00D025B94FF0FF3061
:103DD0000FB0BDE8F08F4FEAD4092A46414601A84A
:103DE00002F04CF8012D09D9294601A8FFF73AFF46
:103DF000B0F1FF3F02D14FF0FF30E9E739462046EE
:103E0000FFF780FF8246BAF1000F0CD101A810F82D
:103E1000090004F007010841C7F10802FF21114120
:103E20000840064321E0BAF1010F1ED101A909F1B2
:103E30000100085C04F00701C1F10801791AC1F121
:103E40000802FF21114100EA010B01A810F8090046
:103E500004F0070108410E9004F00700C0F10801CA
:103E60000BFA01F006430E9806433046B0E72DE901
:103E7000F04F8FB005460C4616469946189F4FF0F6
:103E8000000AD34600200E908046B9F1000F00D002
:103E900027B94FF0FF300FB0BDE8F08F3A464946E2
:103EA00001A801F0EBFF012F09D9394601A8FFF75E
:103EB000D9FEB0F1FF3F02D14FF0FF30EBE73146C2
:103EC0002046FFF71FFF8246BAF1000F0CD101A870
:103ED000405D04F007010841C6F10802FF211141CD
:103EE000084040EA080821E0BAF1010F1ED101A9FB
:103EF000681C085C04F00701C1F10801711AC1F1E6
:103F00000802FF21114100EA010B01A8405D04F005
:103F1000070108410E9004F00700C0F108010BFAF8
:103F200001F040EA08080E9848EA00084046B2E767
:103F30002DE9F04704460D461746089E4FF000094C
:103F4000CA46C8461BB94FF0FF30BDE8F087394676
:103F50002846FFF7D7FE8046B8F1000F07D1185D5D
:103F600005F0070106FA01F1084318551EE0B8F103
:103F7000010F1BD1F0B205F00701C1F1080140FAB1
:103F800001F905F00700C0F10801FF20084100EA2F
:103F9000060A601C185C40EA0900611C5854185D50
:103FA00005F007010AFA01F1084318550020CCE793
:103FB000014611B94FF0FF307047C8684860C868C3
:103FC00088600020F8E7014611B94FF0FF307047D4
:103FD0000020C86048608860086000BFF7E70146BD
:103FE00011B94FF0FF3070470868FCE700B5024692
:103FF00012B94FF0FF3000BD50689168884201D17E
:104000000020F8E750689168884203D290685168B0
:10401000401AF0E71046FFF7E2FF51689368C91AAB
:10402000401AE8E730B5044614B94FF0FF3030BD10
:104030002046FFF7D4FF05462046FFF7D7FF281A92
:10404000F5E72DE9F04104460F461646002514B960
:10405000681EBDE8F08117B94FF0FF30F9E76068DE
:10406000A168884214D22046FFF7C0FFB04201D9B0
:10407000304602E02046FFF7B9FF054661682A4650
:10408000384601F0FBFE6068284460602846E0E79F
:104090002046FFF7A4FF6168E268891A401AB0421F
:1040A0000AD9354661682A46384601F0E7FE60685D
:1040B000284460602846CCE72046FFF790FF6168FF
:1040C000E268891A451A61682A46384601F0D6FE28
:1040D000E0686060721B79192046FFF7B2FF054463
:1040E0002846B6E72DE9F04104460F46154600265E
:1040F00004B11FB94FF0FF30BDE8F0812046FFF753
:1041000091FFA84202D86FF00100F5E76068A1684E
:1041100088422AD82046FFF762FFA168E268891A20
:10412000461AB54213D8A0682A46394601F0A6FEC1
:10413000A0682844A0602046FFF751FFE1680844CA
:10414000A168884201D1E068A0602846D4E7A06851
:104150003246394601F092FEE068A060AA1BB91908
:104160002046FFF7BFFF3044C6E7A0682A4639461D
:1041700001F084FEA0682844A0602846BCE7000047
:104180002DE9FF5F07460D4693464FF000082E4687
:10419000A9462C46AA4607B125B94FF0FF3004B016
:1041A000BDE8F09F4FF000085AE0781C10F80800B6
:1041B00013284FD2DFE800F01C1D1E4E4E1F202199
:1041C000254E4E4E4E2933422F0A13003078524965
:1041D00008700846017851A002F062FA3BE070785E
:1041E0004D4948700846417853A002F059FA32E030
:1041F00031E030E02FE02EE02DE00120554908703D
:1042000029E000205349087025E099F8001052A0D9
:1042100002F046FA1FE053A002F042FA1BE0A17937
:1042200062792379A068CDE90032CDE90210E37804
:10423000A278218850A002F033FA0CE059A002F0D5
:104240002FFA5DA002F02CFA9AF800105EA002F09E
:1042500027FA00E000BF00BF08F1010000F0FF08EE
:1042600038784045A1DC002099E72B480021016007
:1042700041600181704759480068401C57490860F7
:104280007047564800687047012080F3138800BFCC
:1042900000BF5348006800F4E06052490843001D25
:1042A0004F490860BFF34F8F00BF00BFFEE700B566
:1042B000FFF7E1FF00BD08B500200090012168462E
:1042C00000F094F808BD70B505460E4600240DB9FF
:1042D000601E70BD00241BE0295D4348FDF7ACFD66
:1042E00000BF40214048FDF715FE0028F9D0022C00
:1042F0000DD3285DFF280AD155213B48FDF79CFDD1
:1043000000BF40213848FDF705FE0028F9D0641CA5
:10431000B442E1D33046DCE7540000204576743ADD
:10432000204556454E545F4F4E5F4F46465F312005
:104330002564200A000000004576743A2045564561
:104340004E545F4F4E5F4F46465F32202564200A31
:104350000000000004000020525353492025640A45
:10436000000000005452414E53504152454E545F9C
:1043700044415441200A0000574946495F4E545079
:10438000203A205B25642D25642D256420253032BC
:10439000643A253032643A253032645D5B25645DD1
:1043A000200A00004D4F44554C4520494E464F20B1
:1043B0002E2E2E0A00000000574946204D4F44552E
:1043C0004C45202E2E2E0A006D6F64756C65547955
:1043D0007065203A205B25645D200A0040000020C3
:1043E0000CED00E00000FA050048004070B50446FE
:1043F0000D46002624B9F2A002F052F9701E70BDDD
:104400002A462146F648FFF76DFE0646AE4205D025
:10441000F4A002F045F94FF0FF30F0E73046EEE748
:1044200010B504462CB9F6A002F03AF94FF0FF306F
:1044300010BD002020606060FF20207060700020B0
:10444000F6E770B504460D462CB9F8A002F028F93D
:104450004FF0FF3070BD2021FA4801F028FD2A46B8
:104460002146F848801C01F009FDF6483D38A0F8C7
:104470005750012180F83E10FFF703FFF1493D3905
:10448000C1F859000020E5E7F8B505460C46164688
:104490000DB104B12EB9ECA002F002F94FF0FF30DB
:1044A000F8BD287800F0010098B111212278601C35
:1044B00081542078401C207001206B1C0246002192
:1044C00000900846FFF7D3FC08B1012000E000206F
:1044D00030702878C0F3400098B112212278601C17
:1044E00081542078401C207001206B1C024601463C
:1044F00000900020FFF7BBFC08B1012000E0002085
:1045000070700020CCE72DE9F04104460D460026EE
:10451000002704B135B9D7A002F0C2F84FF0FF3040
:10452000BDE8F081FFF7ADFE074628782178884284
:1045300003D0DAA002F0B4F80126687861788842E6
:1045400003D0DCA002F0ACF80126D5F80200D4F8C4
:10455000021088420AD0DD480068381A41F27071B2
:10456000884203D3DAA002F09BF80126D5F80600B2
:10457000D4F8061088420AD0D4480068381A41F2AC
:104580007071884203D3D7A002F08AF80126012E69
:1045900003D1FFF776FECD4908603046C0E738B555
:1045A00005460C4605B12CB9D3A002F079F84FF0BE
:1045B000FF3038BD002020702878234601220021DA
:1045C00000900846FFF7B4FC6878234601221146A4
:1045D00000900020FFF7ACFC01212046FFF742FBD2
:1045E000D5F802206FF063010120FFF754FB6070E3
:1045F000D5F8062000210120FFF74DFBA070002018
:10460000D7E72DE9F04780460C4617461D46089E21
:1046100094F800900CB105B136B9C3A002F040F88F
:104620004FF0FF30BDE8F087B8F1000F56D11421EC
:104630008448203001F03BFCB9F1010F06D0B9F1FC
:10464000020F12D0B9F1050F46D125E07D4A733231
:10465000A2F15301601CFFF717FF012079493D3992
:10466000087000250020306037E07649703101F194
:104670000D00FFF794FF58B9724870300188A5F813
:1046800001108078E870032028700420306002E078
:104690004FF0FF30C6E720E07A1E611C69482438DD
:1046A00001F0ECFB781E67493D39C1F8310010215B
:1046B00064483D3890F85D205E3081545E3890F853
:1046C0005D00401C5F493D3981F85D0003200870A2
:1046D00000250020306000E000BF00BF0020A1E7FF
:1046E0002DE9F04F8DB006468B46174699460020BF
:1046F0000C908246804600256C46BBF1000F06D127
:1047000095A001F0CDFF681E0DB0BDE8F08FB9F1A6
:10471000010F06D196F8088008F10600384485B2EA
:1047200001E0781D85B22B464246394690A001F043
:10473000B7FFFF2004F8010B04F8010B281204F85E
:10474000010B04F8015B3079401C04F8010B70790F
:1047500004F8010B002004F8010B04F8019B4FF052
:10476000080AB9F1010F0CD104F8018B0AF1010A12
:104770000DEB0A00424606F1090101F07FFBC2443D
:1047800044442FB10DEB0A003A46594601F076FB3E
:10479000291D6846FFF79AF80146E81C0DF800103D
:1047A000291D6846FFF78FFD0C900C98002806DA4B
:1047B00079A00C9901F074FF6FF00100A4E7F7E015
:1047C0004552523A2067697A507574446174612089
:1047D00062756620697320656D707479200A000027
:1047E000380600204552523A204661696C656420C3
:1047F000746F2072625772697465200A00000000AD
:104800004552523A2067697A50726F746F636F6CC9
:1048100048656164496E69742068656164206973E4
:1048200020656D707479200A000000004552523AEC
:10483000206461746120697320656D707479200A49
:10484000000000006305002067697A4461746150CC
:104850006F696E74324576656E74204572726F7240
:10486000202C20496C6C6567616C20506172616D11
:104870000A00000067697A436865636B5265706F70
:104880007274204572726F72202C20496C6C6567BF
:10489000616C20506172616D0A00000076616C7578
:1048A000654F4E5F4F46465F31204368616E6765D6
:1048B000640A000076616C75654F4E5F4F46465F37
:1048C00032204368616E6765640A0000440000207E
:1048D00076616C7565545F76616C204368616E67C4
:1048E00065640A0076616C7565485F76616C20438B
:1048F00068616E6765640A0067697A446174615033
:104900006F696E7473325265706F72744461746152
:10491000204572726F72202C20496C6C6567616C47
:1049200020506172616D0A0067697A50726F746F0E
:10493000636F6C49737375656450726F63657373ED
:10494000204572726F72202C20496C6C6567616C17
:1049500020506172616D0A005B4552525D202064F7
:10496000617461204973204E756C6C200A00000050
:104970006C656E203D202564202C20734469644CB6
:10498000656E203D202564202C646174615F6C6538
:104990006E203D2025640A0075617274207772696B
:1049A0007465206572726F72202564200A00000011
:1049B0000020A9E62DE9FF4105460E4617460024D2
:1049C00036B9FBA001F06CFE601E04B0BDE8F081BA
:1049D0006846FFF725FD05208DF80400FE4890F895
:1049E0003510D0F83500401CFB4AC2F83500C8B27B
:1049F0008DF805008DF808500920FEF77AFFADF814
:104A000002003A4631460DF1090001F037FA0D2156
:104A10006846FEF75BFF8DF80C000D216846FFF736
:104A200052FC0446002C06DA2146ECA001F038FEC8
:104A30006FF00100C9E70D216846FFF702FD20462F
:104A4000C3E770B50446FFF71CFC0546E249BA31DE
:104A50002046FFF758FD012817D1E7A001F020FEFE
:104A6000DD49AD312046FFF79AFD28B90322DA4926
:104A7000AD310420FFF79EFFD7484230216881679F
:104A80006168C1672189A0F88010E148B5FBF0F1A9
:104A900000FB1150E8B9DF480068A84219D0DEA039
:104AA00001F0FEFDCC49AD312046FFF778FD28B975
:104AB0000322C949AD310420FFF77CFFC6484230CC
:104AC000216881676168C1672189A0F88010D14899
:104AD000056070BD2DE9FE4F80460E4617464FF02B
:104AE000000B00200290814682460025344600904B
:104AF000B8F1000F01D006B137B9CDA001F0D0FD5B
:104B00004FF0FF30BDE8FE8F4046FFF76FFA00F030
:104B1000FF0ABAF1000F02D14FF0FF30F2E74FF079
:104B200000095DE0012201A94046FFF78AFA8346A9
:104B3000BBF1000F52D0CA480078FF281FD19DF862
:104B40000400FF281BD1C748007848B9FF20207017
:104B500060700220C44908800120C249087034E016
:104B6000C1480088042830DDBF480088A8422CD006
:104B7000FF20207060700220BB49088025E0B84803
:104B80000078FF2803D19DF8040055281DD0B548B2
:104B90000078012819D19DF80400B34909886054B0
:104BA000B1480088401CB0490880084600880428A5
:104BB0000BDD0094009C6088FEF79BFE001D85B213
:104BC000A9480088A84200D10CE09DF80400A4493F
:104BD0000870A6480078401CA449087009F1010932
:104BE000D1459FDB00BFA0480088042823DD9E48F4
:104BF0000088A8421FD19C4801882046FEF766FE27
:104C0000029099480088401E215C029881420FD191
:104C10002A462146304601F031F93D800020914975
:104C2000087091490880914908708D49087069E7BA
:104C30006FF0010066E7012064E710B500246648C4
:104C400090F83E0000B910BD89A001F029FD62482E
:104C5000B0F857103F30FFF736FB04465E48B0F817
:104C60005700A04202D08AA001F01AFDFFF709FB0D
:104C70005949C1F8590000BFE5E770B50446564DE3
:104C80003F3534B9AFF25C4001F00AFD4FF0FF3020
:104C900070BD2879401C2179884204D120214E48DA
:104CA0003D3001F004F90020F2E73EB5044600254E
:104CB00024B97DA001F0F4FC681E3EBD2068009080
:104CC000606801909DF80400401CC0B28DF804009B
:104CD0000520FEF70EFEADF8020009216846FEF73A
:104CE000F5FD8DF8080009216846FFF7ECFA054646
:104CF000002D03DA294639A001F0D2FC2846DCE772
:104D000010B5354890F83E00012827D1324890F878
:104D10003D0002281DDAFFF7B4FA2F49D1F85910E7
:104D2000401AC8281AD9FFF7ACFA04462A4890F866
:104D30003D30D0F85920214666A001F0B1FCFFF7C4
:104D40007CFF254890F83D00401C234981F83D0038
:104D500004E0202120483D3001F0A9F810BD30B515
:104D60009DB0044600252CB964A001F099FC681E92
:104D70001DB030BD6846FFF753FB02208DF80400DC
:104D800060798DF8050069A103C9CDE902016AA126
:104D900003C9CDE904016BA103C9CDE908016CA1E8
:104DA00003C9CDE9060120226CA10AA8E8E00000B1
:104DB00067697A5265706F727444617461204572DC
:104DC000726F72202C20496C6C6567616C20506199
:104DD00072616D0A00000000260500204552523A1B
:104DE0002075617274207772697465206572726FC4
:104DF00072202564200A00006368616E6765642C78
:104E0000207265706F727420646174610A00000022
:104E1000C027090048000020496E666F3A203630EE
:104E20003053207265706F727420646174610A007F
:104E300067697A50726F746F636F6C4765744F6EF9
:104E4000655061636B6574204572726F72202C200F
:104E5000496C6C6567616C20506172616D0A00007D
:104E6000500000204C0000204E0000205100002087
:104E70005761726E696E673A2074696D656F7574FB
:104E80002C20726573656E642064617461200A0071
:104E90004552523A20726573656E64206461746194
:104EA000206572726F720A004552523A2067697A21
:104EB00050726F746F636F6C436F6D6D6F6E416393
:104EC0006B206461746120697320656D7074792052
:104ED0000A0000005761726E696E673A67697A501E
:104EE000726F746F636F6C526573656E6444617446
:104EF000612025642025642025640A0067697A50B2
:104F0000726F746F636F6C4765744465766963652F
:104F1000496E666F204572726F72202C20496C6C4E
:104F20006567616C20506172616D0A00303030300D
:104F3000303030340000000030303030303030322B
:104F400000000000303330333030303000000000DB
:104F500030333031303130300000000035313265CF
:104F60006264386266333731346363646263303459
:104F700035623138656438303737346300000000FB
:104F800000F07CFF2022F9A10DF1520000F076FF25
:104F90000020CDF84A00CDF84E009DF851008DF864
:104FA00051009DF8510040F002018DF85110002091
:104FB000FEF79FFCADF848006F20FEF79AFCADF8B5
:104FC000020073216846FEF781FC8DF872007321A0
:104FD0006846FFF778F90546002D04DA2946AFF256
:104FE000042001F05DFB2846C2E6FEB504460E46ED
:104FF000002524B9E6A001F053FB681EFEBD6846FB
:10500000FFF70EFA12208DF8040060798DF8050084
:105010000620FEF76EFCADF802008DF808600A214C
:105020006846FEF753FC8DF809000A216846FFF731
:105030004AF90546002D04DA2946AFF2602001F056
:105040002FFB2846DAE770B5044625462CB9DBA0CD
:1050500001F026FB4FF0FF3070BDDD48A96801600C
:10506000E9684160298A0181A97C8172A0F1C501AA
:10507000B1F8C500FEF73DFCD549C539A1F8C5001A
:10508000D1F8CD00FEF742FCD149C539C1F8CD00B9
:105090000E21CF48C53890F8852086308154863857
:1050A00090F88500401CCA49C53981F88500042064
:1050B00008700020D0E710B5FFF7E3F8044600BF02
:1050C000FFF7DFF8001BB0F5167FF9D9FFF7DCF822
:1050D00010BD10B504462CB9BEA001F0E1FA4FF0A6
:1050E000FF3010BD2089FEF704FC2081C548007800
:1050F000C0F38000217AC1F3800188425ED0207A1B
:10510000C0F3800000282DD0207A00F0010088B183
:105110000021AF48C53890F8712072308154723840
:1051200090F87100401CAA49C53981F87100B6A0F9
:1051300001F0B6FA207AC0F3400000283ED00121E9
:10514000A348C53890F8712072308154723890F8B5
:105150007100401C9E49C53981F87100B2A001F070
:105160009FFA2BE0207A00F0010088B100219848D6
:10517000C53890F8712072308154723890F87100FF
:10518000401C9349C53981F871009FA001F088FA4D
:10519000207AC0F3400088B102218D48C53890F8CC
:1051A000712072308154723890F87100401C884927
:1051B000C53981F87100A3A001F072FA9148007816
:1051C000C0F3C000217AC1F3C001884230D0207AF8
:1051D000C1088C48007861F3C3008A490870207ABE
:1051E000C0F3C00090B103217948C53890F8712010
:1051F00072308154723890F87100401C7449C5397E
:1052000081F8710096A001F04BFA11E0042170487A
:10521000C53890F8712072308154723890F871005E
:10522000401C6B49C53981F8710095A001F038FA2E
:1052300074480078C0F30010217AC1F3001188424D
:1052400030D0207A01096F48007861F304106D496D
:105250000870207AC0F3001090B105215C48C53871
:1052600090F8712072308154723890F87100401CAF
:105270005749C53981F8710089A001F011FA11E090
:1052800006215348C53890F8712072308154723825
:1052900090F87100401C4E49C53981F8710088A012
:1052A00001F0FEF957480078C0F34010217AC1F3AD
:1052B0004011884230D0207A41095248007861F389
:1052C000451050490870207AC0F3401090B1072172
:1052D0003F48C53890F8712072308154723890F888
:1052E0007100401C3A49C53981F871007DA001F078
:1052F000D7F911E008213648C53890F8712072308E
:105300008154723890F87100401C3149C53981F8D8
:1053100071007BA001F0C4F93A484078C0F3C001A5
:10532000607AC0F3C00081421DD0607AC108354860
:10533000407861F3C30033494870607AC0F3C0001D
:1053400090B10B212248C53890F8712072308154F9
:10535000723890F87100401C1D49C53981F8710000
:105360006FA001F09DF9F9E0E8E0000065396534CF
:10537000656630303763363234656535626337656C
:10538000316663396139616664643263000000002C
:1053900067697A50726F746F636F6C4572726F7267
:1053A000436D64204572726F72202C20496C6C65CD
:1053B00067616C20506172616D0A00004552523A7B
:1053C000204E545020697320656D707479200A0056
:1053D000EB05002067697A50726F746F636F6C4DD4
:1053E0006F64756C65537461747573204572726F68
:1053F00072202C20496C6C6567616C205061726171
:105400006D0A0000520000204F6E426F61726469A5
:105410006E673A20536F66744150206F7220576553
:1054200062206D6F64650A004F6E426F617264693D
:105430006E673A204169724C696E6B206D6F6465CE
:105440000A0000004F6E426F617264696E673A2015
:1054500053746174696F6E206D6F64650A0000009B
:1054600057694669207374617475733A20696E20B8
:1054700062696E64696E67206D6F64650A00000082
:1054800057694669207374617475733A206F757437
:105490002062696E64696E67206D6F64650A000042
:1054A00057694669207374617475733A20636F6E2F
:1054B0006E656374656420726F757465720A0000AE
:1054C00057694669207374617475733A206469730F
:1054D000636F6E6E656374656420726F7574657258
:1054E0000A00000057694669207374617475733A45
:1054F00020636F6E6E6563746564206D326D0A00A3
:1055000057694669207374617475733A20646973CE
:10551000636F6E6E6563746564206D326D0A0000A2
:1055200057694669207374617475733A20617070AD
:1055300020636F6E6E6563740A0000000C21FD48E5
:1055400090F8712072308154723890F87100401CCC
:10555000F84981F87100F8A001F0A2F8FE484078FF
:10556000C0F30011607AC0F3001081422CD0607A41
:105570000109F948407861F30410F7494870607AEE
:10558000C0F3001080B10921EA4890F87120723010
:105590008154723890F87100401CE64981F871001E
:1055A000EEA001F07DF80FE00A21E24890F87120AA
:1055B00072308154723890F87100401CDD4981F8D6
:1055C0007100EDA001F06CF80D21DA4890F871201F
:1055D00072308154723890F87100401CD54981F8BE
:1055E0007100607A00F0070081F8C400084690F866
:1055F000C410E8A001F054F80220CE490870002041
:105600006FE510B53020E7490860E748C8600846F4
:10561000FEF7CEFC18B9E5A001F042F802E0E8A0E0
:1056200001F03EF84FF48971C24800F040FC10BD13
:1056300030B587B005460024062D7DD2DFE805F0A1
:1056400003316193C1F001A8FEF7EAFE0B208DF84B
:105650000800B84890F83510D0F83500401CB54A1D
:10566000C2F83500C8B28DF809000520FEF741F9EF
:10567000ADF80600092101A8FEF728F98DF80C0005
:10568000092101A8FEF71FFE0446002C04DA21467A
:10569000AFF6B80001F004F8092101A8FEF7D1FE29
:1056A000F0E004A8FEF7BCFE09208DF81400A14824
:1056B00090F83510D0F83500401C9E4AC2F83500ED
:1056C000C8B28DF815008DF818500620FEF711F9B4
:1056D000ADF812000A2104A8FEF7F8F88DF81900B9
:1056E0000A2104A8FEF7EFFD0446002C04DA214647
:1056F000AFF6181000F0D4FF0A2104A8FEF7A1FEAF
:10570000C0E004A8FEF78CFE09208DF8140089483B
:1057100090F83510D0F83500401C864AC2F83500A4
:10572000C8B28DF815008DF818500620FEF7E1F884
:10573000ADF812000A2100E0A0E004A8FEF7C6F8C8
:105740008DF819000A2104A8FEF7BDFD0446002CBF
:1057500004DA2146AFF67C1000F0A2FF0A2104A86B
:10576000FEF76FFE8EE001A8FEF75AFE13208DF8BB
:105770000800704890F83510D0F83500401C6D4A8C
:10578000C2F83500C8B28DF809000520FEF7B1F85F
:10579000ADF80600092101A8FEF798F88DF80C0075
:1057A000092101A8FEF78FFD0446002C04DA2146EA
:1057B000AFF6D81000F074FF092101A8FEF741FEF2
:1057C00060E001A8FEF72CFE15208DF8080059486E
:1057D00090F83510D0F83500401C564AC2F8350014
:1057E000C8B28DF809000520FEF783F8ADF8060071
:1057F000092101A8FEF76AF88DF80C00092101A81B
:10580000FEF761FD0446002C04DA2146AFF6342091
:1058100000F046FF092101A8FEF713FE32E0FFE782
:1058200001A8FEF7FDFD29208DF80800414890F8F9
:105830003510D0F83500401C3E4AC2F83500C8B2D9
:105840008DF809000520FEF754F8ADF8060009218F
:1058500001A8FEF73BF88DF80C00092101A8FEF71E
:1058600032FD0446002C04DA2146AFF6902000F009
:1058700017FF092101A8FEF7E4FD03E055A000F0A1
:105880000FFF00BF00BF204607B030BD3EB500246B
:105890006846FEF7C5FD17208DF80400254890F8EE
:1058A0003510D0F83500401C224AC2F83500C8B285
:1058B0008DF805000520FEF71CF8ADF8020009215F
:1058C0006846FEF703F88DF8080009216846FEF7E0
:1058D000FAFC0446002C03DA214644A000F0E0FE66
:1058E00009216846FEF7ADFD3EBD3EB50024684681
:1058F000FEF796FD21208DF804000E4890F8351033
:10590000D0F83500401C0B4AC2F83500C8B28DF8FB
:10591000050000208DF808000620FDF7EAFFADF82D
:1059200002000A216846FDF7D1FF8DF809000A211F
:1059300068466BE02605002057694669207374614C
:105940007475733A206E6F2061707020636F6E6E95
:105950006563740A00000000520000205769466920
:10596000207374617475733A20696E207465737462
:10597000206D6F64650A0000576946692073746181
:105980007475733A206F75742074657374206D6F2D
:1059900064650A0052535349206973202564200A24
:1059A00000000000380600204806002072624372A2
:1059B000656174652053756363657373200A000025
:1059C0007262437265617465204661696C64200A85
:1059D000000000004552523A204366674D6F6465EF
:1059E000206572726F72210A000000004552525BFE
:1059F0004E54505D3A2075617274207772697465F7
:105A0000206572726F72202564200A00FEF75BFC2D
:105A10000446002C04DA2146AFF2300000F040FECC
:105A20000A216846FEF70DFD3EBD70B504462546C9
:105A30002CB9C3A000F034FE4FF0FF3070BD4122FE
:105A400005F10801C24800F019FA0F21C048D13809
:105A500090F899209A3081549A3890F89900401C17
:105A6000BB49D13981F89900052008700020E5E78D
:105A70002DE9F04190B005460026002003900290E9
:105A800000248046002735B9B2A000F009FE601E50
:105A900010B0BDE8F081FFF733F903AAAC49D03963
:105AA000B648FFF717F80646002E72D1B4A000F0F2
:105AB000F7FDA74CD03C20790F284FD00ADC0E28E8
:105AC00073D2DFE800F07216721A72724338727283
:105AD0004472453C182852D006DC112847D01428BF
